{"contracts/AuditRegistry.sol":{"AuditRegistry":{"abi":[{"inputs":[],"stateMutability":"nonpayable","type":"constructor"},{"inputs":[],"name":"AccessControlBadConfirmation","type":"error"},{"inputs":[{"internalType":"address","name":"account","type":"address"},{"internalType":"bytes32","name":"neededRole","type":"bytes32"}],"name":"AccessControlUnauthorizedAccount","type":"error"},{"anonymous":false,"inputs":[{"indexed":true,"internalType":"bytes32","name":"role","type":"bytes32"},{"indexed":true,"internalType":"bytes32","name":"previousAdminRole","type":"bytes32"},{"indexed":true,"internalType":"bytes32","name":"newAdminRole","type":"bytes32"}],"name":"RoleAdminChanged","type":"event"},{"anonymous":false,"inputs":[{"indexed":true,"internalType":"bytes32","name":"role","type":"bytes32"},{"indexed":true,"internalType":"address","name":"account","type":"address"},{"indexed":true,"internalType":"address","name":"sender","type":"address"}],"name":"RoleGranted","type":"event"},{"anonymous":false,"inputs":[{"indexed":true,"internalType":"bytes32","name":"role","type":"bytes32"},{"indexed":true,"internalType":"address","name":"account","type":"address"},{"indexed":true,"internalType":"address","name":"sender","type":"address"}],"name":"RoleRevoked","type":"event"},{"inputs":[],"name":"ADMIN_ROLE","outputs":[{"internalType":"bytes32","name":"","type":"bytes32"}],"stateMutability":"view","type":"function"},{"inputs":[],"name":"AUDITOR_ROLE","outputs":[{"internalType":"bytes32","name":"","type":"bytes32"}],"stateMutability":"view","type":"function"},{"inputs":[],"name":"DEFAULT_ADMIN_ROLE","outputs":[{"internalType":"bytes32","name":"","type":"bytes32"}],"stateMutability":"view","type":"function"},{"inputs":[{"internalType":"address","name":"auditor","type":"address"}],"name":"addAuditor","outputs":[],"stateMutability":"nonpayable","type":"function"},{"inputs":[{"internalType":"uint256","name":"","type":"uint256"}],"name":"audits","outputs":[{"internalType":"uint256","name":"id","type":"uint256"},{"internalType":"address","name":"auditor","type":"address"},{"internalType":"string","name":"company","type":"string"},{"internalType":"string","name":"project","type":"string"},{"internalType":"uint256","name":"startDate","type":"uint256"},{"internalType":"uint256","name":"endDate","type":"uint256"},{"internalType":"uint256","name":"vulnerabilitiesFound","type":"uint256"},{"internalType":"string","name":"githubCommit","type":"string"},{"internalType":"uint256","name":"highSeverity","type":"uint256"},{"internalType":"uint256","name":"mediumSeverity","type":"uint256"},{"internalType":"uint256","name":"lowSeverity","type":"uint256"},{"internalType":"bool","name":"certified","type":"bool"}],"stateMutability":"view","type":"function"},{"inputs":[{"internalType":"uint256","name":"id","type":"uint256"}],"name":"certifyAudit","outputs":[],"stateMutability":"nonpayable","type":"function"},{"inputs":[{"internalType":"bytes32","name":"role","type":"bytes32"}],"name":"getRoleAdmin","outputs":[{"internalType":"bytes32","name":"","type":"bytes32"}],"stateMutability":"view","type":"function"},{"inputs":[{"internalType":"bytes32","name":"role","type":"bytes32"},{"internalType":"address","name":"account","type":"address"}],"name":"grantRole","outputs":[],"stateMutability":"nonpayable","type":"function"},{"inputs":[{"internalType":"bytes32","name":"role","type":"bytes32"},{"internalType":"address","name":"account","type":"address"}],"name":"hasRole","outputs":[{"internalType":"bool","name":"","type":"bool"}],"stateMutability":"view","type":"function"},{"inputs":[],"name":"nextId","outputs":[{"internalType":"uint256","name":"","type":"uint256"}],"stateMutability":"view","type":"function"},{"inputs":[{"internalType":"string","name":"company","type":"string"},{"internalType":"string","name":"project","type":"string"},{"internalType":"uint256","name":"startDate","type":"uint256"},{"internalType":"uint256","name":"endDate","type":"uint256"},{"internalType":"uint256","name":"vulnerabilitiesFound","type":"uint256"},{"internalType":"string","name":"githubCommit","type":"string"},{"internalType":"uint256","name":"highSeverity","type":"uint256"},{"internalType":"uint256","name":"mediumSeverity","type":"uint256"},{"internalType":"uint256","name":"lowSeverity","type":"uint256"}],"name":"recordAudit","outputs":[],"stateMutability":"nonpayable","type":"function"},{"inputs":[{"internalType":"bytes32","name":"role","type":"bytes32"},{"internalType":"address","name":"callerConfirmation","type":"address"}],"name":"renounceRole","outputs":[],"stateMutability":"nonpayable","type":"function"},{"inputs":[{"internalType":"bytes32","name":"role","type":"bytes32"},{"internalType":"address","name":"account","type":"address"}],"name":"revokeRole","outputs":[],"stateMutability":"nonpayable","type":"function"},{"inputs":[{"internalType":"bytes4","name":"interfaceId","type":"bytes4"}],"name":"supportsInterface","outputs":[{"internalType":"bool","name":"","type":"bool"}],"stateMutability":"view","type":"function"}],"evm":{"bytecode":{"linkReferences":{},"object":"608060405260016002553480156200001657600080fd5b50620000497fa49807205ce4d355092ef5a8a18f56e8913cf4a201fbe287825b095693c21775336200004f60201b60201c565b6200032a565b62000060826200008960201b60201c565b6200007181620000a860201b60201c565b620000838383620000cc60201b60201c565b50505050565b6000806000838152602001908152602001600020600101549050919050565b620000c981620000bd620001cf60201b60201c565b620001d760201b60201c565b50565b6000620000e083836200023360201b60201c565b620001c457600160008085815260200190815260200160002060000160008473ffffffffffffffffffffffffffffffffffffffff1673ffffffffffffffffffffffffffffffffffffffff16815260200190815260200160002060006101000a81548160ff02191690831515021790555062000160620001cf60201b60201c565b73ffffffffffffffffffffffffffffffffffffffff168273ffffffffffffffffffffffffffffffffffffffff16847f2f8788117e7eff1d82e926ec794901d17c78024a50270940304540a733656f0d60405160405180910390a460019050620001c9565b600090505b92915050565b600033905090565b620001e982826200023360201b60201c565b6200022f5780826040517fe2517d3f00000000000000000000000000000000000000000000000000000000815260040162000226929190620002fd565b60405180910390fd5b5050565b600080600084815260200190815260200160002060000160008373ffffffffffffffffffffffffffffffffffffffff1673ffffffffffffffffffffffffffffffffffffffff16815260200190815260200160002060009054906101000a900460ff16905092915050565b600073ffffffffffffffffffffffffffffffffffffffff82169050919050565b6000620002ca826200029d565b9050919050565b620002dc81620002bd565b82525050565b6000819050919050565b620002f781620002e2565b82525050565b6000604082019050620003146000830185620002d1565b620003236020830184620002ec565b9392505050565b61171f806200033a6000396000f3fe608060405234801561001057600080fd5b50600436106100ea5760003560e01c80636e1d616e1161008c578063a217fddf11610066578063a217fddf14610249578063b60e73db14610267578063d547741f146102a2578063e429cef1146102be576100ea565b80636e1d616e146101dd57806375b238fc146101fb57806391d1485414610219576100ea565b80632f2ff15d116100c85780632f2ff15d1461016b578063328f7ebe1461018757806336568abe146101a357806361b8ce8c146101bf576100ea565b806301ffc9a7146100ef578063248a9ca31461011f57806327bda1971461014f575b600080fd5b61010960048036038101906101049190610cd0565b6102da565b6040516101169190610d18565b60405180910390f35b61013960048036038101906101349190610d69565b610354565b6040516101469190610da5565b60405180910390f35b61016960048036038101906101649190610df6565b610373565b005b61018560048036038101906101809190610e81565b610414565b005b6101a1600480360381019061019c9190611007565b610436565b005b6101bd60048036038101906101b89190610e81565b6105fc565b005b6101c7610677565b6040516101d49190611134565b60405180910390f35b6101e561067d565b6040516101f29190610da5565b60405180910390f35b6102036106a1565b6040516102109190610da5565b60405180910390f35b610233600480360381019061022e9190610e81565b6106c5565b6040516102409190610d18565b60405180910390f35b61025161072f565b60405161025e9190610da5565b60405180910390f35b610281600480360381019061027c9190610df6565b610736565b6040516102999c9b9a999897969594939291906111dd565b60405180910390f35b6102bc60048036038101906102b79190610e81565b61095b565b005b6102d860048036038101906102d391906112ac565b61097d565b005b60007f7965db0b000000000000000000000000000000000000000000000000000000007bffffffffffffffffffffffffffffffffffffffffffffffffffffffff1916827bffffffffffffffffffffffffffffffffffffffffffffffffffffffff1916148061034d575061034c826109aa565b5b9050919050565b6000806000838152602001908152602001600020600101549050919050565b61039d7f59a1c48e5837ad7a7f3dcedcbe129bf3249ec4fbf651fd4f5e2600ead39fe2f5336106c5565b6103dc576040517f08c379a00000000000000000000000000000000000000000000000000000000081526004016103d39061134b565b60405180910390fd5b6000600160008381526020019081526020016000209050600181600b0160006101000a81548160ff0219169083151502179055505050565b61041d82610354565b61042681610a14565b6104308383610a28565b50505050565b7f59a1c48e5837ad7a7f3dcedcbe129bf3249ec4fbf651fd4f5e2600ead39fe2f561046081610a14565b60405180610180016040528060025481526020013373ffffffffffffffffffffffffffffffffffffffff1681526020018b81526020018a8152602001898152602001888152602001878152602001868152602001858152602001848152602001838152602001600015158152506001600060025481526020019081526020016000206000820151816000015560208201518160010160006101000a81548173ffffffffffffffffffffffffffffffffffffffff021916908373ffffffffffffffffffffffffffffffffffffffff16021790555060408201518160020190816105489190611577565b50606082015181600301908161055e9190611577565b506080820151816004015560a0820151816005015560c0820151816006015560e08201518160070190816105929190611577565b506101008201518160080155610120820151816009015561014082015181600a015561016082015181600b0160006101000a81548160ff021916908315150217905550905050600260008154809291906105eb90611678565b919050555050505050505050505050565b610604610b19565b73ffffffffffffffffffffffffffffffffffffffff168173ffffffffffffffffffffffffffffffffffffffff1614610668576040517f6697b23200000000000000000000000000000000000000000000000000000000815260040160405180910390fd5b6106728282610b21565b505050565b60025481565b7f59a1c48e5837ad7a7f3dcedcbe129bf3249ec4fbf651fd4f5e2600ead39fe2f581565b7fa49807205ce4d355092ef5a8a18f56e8913cf4a201fbe287825b095693c2177581565b600080600084815260200190815260200160002060000160008373ffffffffffffffffffffffffffffffffffffffff1673ffffffffffffffffffffffffffffffffffffffff16815260200190815260200160002060009054906101000a900460ff16905092915050565b6000801b81565b60016020528060005260406000206000915090508060000154908060010160009054906101000a900473ffffffffffffffffffffffffffffffffffffffff16908060020180546107859061139a565b80601f01602080910402602001604051908101604052809291908181526020018280546107b19061139a565b80156107fe5780601f106107d3576101008083540402835291602001916107fe565b820191906000526020600020905b8154815290600101906020018083116107e157829003601f168201915b5050505050908060030180546108139061139a565b80601f016020809104026020016040519081016040528092919081815260200182805461083f9061139a565b801561088c5780601f106108615761010080835404028352916020019161088c565b820191906000526020600020905b81548152906001019060200180831161086f57829003601f168201915b5050505050908060040154908060050154908060060154908060070180546108b39061139a565b80601f01602080910402602001604051908101604052809291908181526020018280546108df9061139a565b801561092c5780601f106109015761010080835404028352916020019161092c565b820191906000526020600020905b81548152906001019060200180831161090f57829003601f168201915b50505050509080600801549080600901549080600a01549080600b0160009054906101000a900460ff1690508c565b61096482610354565b61096d81610a14565b6109778383610b21565b50505050565b6109a77f59a1c48e5837ad7a7f3dcedcbe129bf3249ec4fbf651fd4f5e2600ead39fe2f582610414565b50565b60007f01ffc9a7000000000000000000000000000000000000000000000000000000007bffffffffffffffffffffffffffffffffffffffffffffffffffffffff1916827bffffffffffffffffffffffffffffffffffffffffffffffffffffffff1916149050919050565b610a2581610a20610b19565b610c13565b50565b6000610a3483836106c5565b610b0e57600160008085815260200190815260200160002060000160008473ffffffffffffffffffffffffffffffffffffffff1673ffffffffffffffffffffffffffffffffffffffff16815260200190815260200160002060006101000a81548160ff021916908315150217905550610aab610b19565b73ffffffffffffffffffffffffffffffffffffffff168273ffffffffffffffffffffffffffffffffffffffff16847f2f8788117e7eff1d82e926ec794901d17c78024a50270940304540a733656f0d60405160405180910390a460019050610b13565b600090505b92915050565b600033905090565b6000610b2d83836106c5565b15610c0857600080600085815260200190815260200160002060000160008473ffffffffffffffffffffffffffffffffffffffff1673ffffffffffffffffffffffffffffffffffffffff16815260200190815260200160002060006101000a81548160ff021916908315150217905550610ba5610b19565b73ffffffffffffffffffffffffffffffffffffffff168273ffffffffffffffffffffffffffffffffffffffff16847ff6391f5c32d9c69d2a47ea670b442974b53935d1edc7fd64eb21e047a839171b60405160405180910390a460019050610c0d565b600090505b92915050565b610c1d82826106c5565b610c605780826040517fe2517d3f000000000000000000000000000000000000000000000000000000008152600401610c579291906116c0565b60405180910390fd5b5050565b6000604051905090565b600080fd5b600080fd5b60007fffffffff0000000000000000000000000000000000000000000000000000000082169050919050565b610cad81610c78565b8114610cb857600080fd5b50565b600081359050610cca81610ca4565b92915050565b600060208284031215610ce657610ce5610c6e565b5b6000610cf484828501610cbb565b91505092915050565b60008115159050919050565b610d1281610cfd565b82525050565b6000602082019050610d2d6000830184610d09565b92915050565b6000819050919050565b610d4681610d33565b8114610d5157600080fd5b50565b600081359050610d6381610d3d565b92915050565b600060208284031215610d7f57610d7e610c6e565b5b6000610d8d84828501610d54565b91505092915050565b610d9f81610d33565b82525050565b6000602082019050610dba6000830184610d96565b92915050565b6000819050919050565b610dd381610dc0565b8114610dde57600080fd5b50565b600081359050610df081610dca565b92915050565b600060208284031215610e0c57610e0b610c6e565b5b6000610e1a84828501610de1565b91505092915050565b600073ffffffffffffffffffffffffffffffffffffffff82169050919050565b6000610e4e82610e23565b9050919050565b610e5e81610e43565b8114610e6957600080fd5b50565b600081359050610e7b81610e55565b92915050565b60008060408385031215610e9857610e97610c6e565b5b6000610ea685828601610d54565b9250506020610eb785828601610e6c565b9150509250929050565b600080fd5b600080fd5b6000601f19601f8301169050919050565b7f4e487b7100000000000000000000000000000000000000000000000000000000600052604160045260246000fd5b610f1482610ecb565b810181811067ffffffffffffffff82111715610f3357610f32610edc565b5b80604052505050565b6000610f46610c64565b9050610f528282610f0b565b919050565b600067ffffffffffffffff821115610f7257610f71610edc565b5b610f7b82610ecb565b9050602081019050919050565b82818337600083830152505050565b6000610faa610fa584610f57565b610f3c565b905082815260208101848484011115610fc657610fc5610ec6565b5b610fd1848285610f88565b509392505050565b600082601f830112610fee57610fed610ec1565b5b8135610ffe848260208601610f97565b91505092915050565b60008060008060008060008060006101208a8c03121561102a57611029610c6e565b5b60008a013567ffffffffffffffff81111561104857611047610c73565b5b6110548c828d01610fd9565b99505060208a013567ffffffffffffffff81111561107557611074610c73565b5b6110818c828d01610fd9565b98505060406110928c828d01610de1565b97505060606110a38c828d01610de1565b96505060806110b48c828d01610de1565b95505060a08a013567ffffffffffffffff8111156110d5576110d4610c73565b5b6110e18c828d01610fd9565b94505060c06110f28c828d01610de1565b93505060e06111038c828d01610de1565b9250506101006111158c828d01610de1565b9150509295985092959850929598565b61112e81610dc0565b82525050565b60006020820190506111496000830184611125565b92915050565b61115881610e43565b82525050565b600081519050919050565b600082825260208201905092915050565b60005b8381101561119857808201518184015260208101905061117d565b60008484015250505050565b60006111af8261115e565b6111b98185611169565b93506111c981856020860161117a565b6111d281610ecb565b840191505092915050565b6000610180820190506111f3600083018f611125565b611200602083018e61114f565b8181036040830152611212818d6111a4565b90508181036060830152611226818c6111a4565b9050611235608083018b611125565b61124260a083018a611125565b61124f60c0830189611125565b81810360e083015261126181886111a4565b9050611271610100830187611125565b61127f610120830186611125565b61128d610140830185611125565b61129b610160830184610d09565b9d9c50505050505050505050505050565b6000602082840312156112c2576112c1610c6e565b5b60006112d084828501610e6c565b91505092915050565b7f4f6e6c79207468652061756469746f722063616e20636572746966792074686560008201527f2061756469740000000000000000000000000000000000000000000000000000602082015250565b6000611335602683611169565b9150611340826112d9565b604082019050919050565b6000602082019050818103600083015261136481611328565b9050919050565b7f4e487b7100000000000000000000000000000000000000000000000000000000600052602260045260246000fd5b600060028204905060018216806113b257607f821691505b6020821081036113c5576113c461136b565b5b50919050565b60008190508160005260206000209050919050565b60006020601f8301049050919050565b600082821b905092915050565b60006008830261142d7fffffffffffffffffffffffffffffffffffffffffffffffffffffffffffffffff826113f0565b61143786836113f0565b95508019841693508086168417925050509392505050565b6000819050919050565b600061147461146f61146a84610dc0565b61144f565b610dc0565b9050919050565b6000819050919050565b61148e83611459565b6114a261149a8261147b565b8484546113fd565b825550505050565b600090565b6114b76114aa565b6114c2818484611485565b505050565b5b818110156114e6576114db6000826114af565b6001810190506114c8565b5050565b601f82111561152b576114fc816113cb565b611505846113e0565b81016020851015611514578190505b611528611520856113e0565b8301826114c7565b50505b505050565b600082821c905092915050565b600061154e60001984600802611530565b1980831691505092915050565b6000611567838361153d565b9150826002028217905092915050565b6115808261115e565b67ffffffffffffffff81111561159957611598610edc565b5b6115a3825461139a565b6115ae8282856114ea565b600060209050601f8311600181146115e157600084156115cf578287015190505b6115d9858261155b565b865550611641565b601f1984166115ef866113cb565b60005b82811015611617578489015182556001820191506020850194506020810190506115f2565b868310156116345784890151611630601f89168261153d565b8355505b6001600288020188555050505b505050505050565b7f4e487b7100000000000000000000000000000000000000000000000000000000600052601160045260246000fd5b600061168382610dc0565b91507fffffffffffffffffffffffffffffffffffffffffffffffffffffffffffffffff82036116b5576116b4611649565b5b600182019050919050565b60006040820190506116d5600083018561114f565b6116e26020830184610d96565b939250505056fea2646970667358221220dac06b55fcf8ba93c686ce93d773fc533b1c5b5ef2279129c1822c518fff211164736f6c63430008180033","opcodes":"PUSH1 0x80 PUSH1 0x40 MSTORE PUSH1 0x1 PUSH1 0x2 SSTORE CALLVALUE DUP1 ISZERO PUSH3 0x16 JUMPI PUSH1 0x0 DUP1 REVERT JUMPDEST POP PUSH3 0x49 PUSH32 0xA49807205CE4D355092EF5A8A18F56E8913CF4A201FBE287825B095693C21775 CALLER PUSH3 0x4F PUSH1 0x20 SHL PUSH1 0x20 SHR JUMP JUMPDEST PUSH3 0x32A JUMP JUMPDEST PUSH3 0x60 DUP3 PUSH3 0x89 PUSH1 0x20 SHL PUSH1 0x20 SHR JUMP JUMPDEST PUSH3 0x71 DUP2 PUSH3 0xA8 PUSH1 0x20 SHL PUSH1 0x20 SHR JUMP JUMPDEST PUSH3 0x83 DUP4 DUP4 PUSH3 0xCC PUSH1 0x20 SHL PUSH1 0x20 SHR JUMP JUMPDEST POP POP POP POP JUMP JUMPDEST PUSH1 0x0 DUP1 PUSH1 0x0 DUP4 DUP2 MSTORE PUSH1 0x20 ADD SWAP1 DUP2 MSTORE PUSH1 0x20 ADD PUSH1 0x0 KECCAK256 PUSH1 0x1 ADD SLOAD SWAP1 POP SWAP2 SWAP1 POP JUMP JUMPDEST PUSH3 0xC9 DUP2 PUSH3 0xBD PUSH3 0x1CF PUSH1 0x20 SHL PUSH1 0x20 SHR JUMP JUMPDEST PUSH3 0x1D7 PUSH1 0x20 SHL PUSH1 0x20 SHR JUMP JUMPDEST POP JUMP JUMPDEST PUSH1 0x0 PUSH3 0xE0 DUP4 DUP4 PUSH3 0x233 PUSH1 0x20 SHL PUSH1 0x20 SHR JUMP JUMPDEST PUSH3 0x1C4 JUMPI PUSH1 0x1 PUSH1 0x0 DUP1 DUP6 DUP2 MSTORE PUSH1 0x20 ADD SWAP1 DUP2 MSTORE PUSH1 0x20 ADD PUSH1 0x0 KECCAK256 PUSH1 0x0 ADD PUSH1 0x0 DUP5 PUSH20 0xFFFFFFFFFFFFFFFFFFFFFFFFFFFFFFFFFFFFFFFF AND PUSH20 0xFFFFFFFFFFFFFFFFFFFFFFFFFFFFFFFFFFFFFFFF AND DUP2 MSTORE PUSH1 0x20 ADD SWAP1 DUP2 MSTORE PUSH1 0x20 ADD PUSH1 0x0 KECCAK256 PUSH1 0x0 PUSH2 0x100 EXP DUP2 SLOAD DUP2 PUSH1 0xFF MUL NOT AND SWAP1 DUP4 ISZERO ISZERO MUL OR SWAP1 SSTORE POP PUSH3 0x160 PUSH3 0x1CF PUSH1 0x20 SHL PUSH1 0x20 SHR JUMP JUMPDEST PUSH20 0xFFFFFFFFFFFFFFFFFFFFFFFFFFFFFFFFFFFFFFFF AND DUP3 PUSH20 0xFFFFFFFFFFFFFFFFFFFFFFFFFFFFFFFFFFFFFFFF AND DUP5 PUSH32 0x2F8788117E7EFF1D82E926EC794901D17C78024A50270940304540A733656F0D PUSH1 0x40 MLOAD PUSH1 0x40 MLOAD DUP1 SWAP2 SUB SWAP1 LOG4 PUSH1 0x1 SWAP1 POP PUSH3 0x1C9 JUMP JUMPDEST PUSH1 0x0 SWAP1 POP JUMPDEST SWAP3 SWAP2 POP POP JUMP JUMPDEST PUSH1 0x0 CALLER SWAP1 POP SWAP1 JUMP JUMPDEST PUSH3 0x1E9 DUP3 DUP3 PUSH3 0x233 PUSH1 0x20 SHL PUSH1 0x20 SHR JUMP JUMPDEST PUSH3 0x22F JUMPI DUP1 DUP3 PUSH1 0x40 MLOAD PUSH32 0xE2517D3F00000000000000000000000000000000000000000000000000000000 DUP2 MSTORE PUSH1 0x4 ADD PUSH3 0x226 SWAP3 SWAP2 SWAP1 PUSH3 0x2FD JUMP JUMPDEST PUSH1 0x40 MLOAD DUP1 SWAP2 SUB SWAP1 REVERT JUMPDEST POP POP JUMP JUMPDEST PUSH1 0x0 DUP1 PUSH1 0x0 DUP5 DUP2 MSTORE PUSH1 0x20 ADD SWAP1 DUP2 MSTORE PUSH1 0x20 ADD PUSH1 0x0 KECCAK256 PUSH1 0x0 ADD PUSH1 0x0 DUP4 PUSH20 0xFFFFFFFFFFFFFFFFFFFFFFFFFFFFFFFFFFFFFFFF AND PUSH20 0xFFFFFFFFFFFFFFFFFFFFFFFFFFFFFFFFFFFFFFFF AND DUP2 MSTORE PUSH1 0x20 ADD SWAP1 DUP2 MSTORE PUSH1 0x20 ADD PUSH1 0x0 KECCAK256 PUSH1 0x0 SWAP1 SLOAD SWAP1 PUSH2 0x100 EXP SWAP1 DIV PUSH1 0xFF AND SWAP1 POP SWAP3 SWAP2 POP POP JUMP JUMPDEST PUSH1 0x0 PUSH20 0xFFFFFFFFFFFFFFFFFFFFFFFFFFFFFFFFFFFFFFFF DUP3 AND SWAP1 POP SWAP2 SWAP1 POP JUMP JUMPDEST PUSH1 0x0 PUSH3 0x2CA DUP3 PUSH3 0x29D JUMP JUMPDEST SWAP1 POP SWAP2 SWAP1 POP JUMP JUMPDEST PUSH3 0x2DC DUP2 PUSH3 0x2BD JUMP JUMPDEST DUP3 MSTORE POP POP JUMP JUMPDEST PUSH1 0x0 DUP2 SWAP1 POP SWAP2 SWAP1 POP JUMP JUMPDEST PUSH3 0x2F7 DUP2 PUSH3 0x2E2 JUMP JUMPDEST DUP3 MSTORE POP POP JUMP JUMPDEST PUSH1 0x0 PUSH1 0x40 DUP3 ADD SWAP1 POP PUSH3 0x314 PUSH1 0x0 DUP4 ADD DUP6 PUSH3 0x2D1 JUMP JUMPDEST PUSH3 0x323 PUSH1 0x20 DUP4 ADD DUP5 PUSH3 0x2EC JUMP JUMPDEST SWAP4 SWAP3 POP POP POP JUMP JUMPDEST PUSH2 0x171F DUP1 PUSH3 0x33A PUSH1 0x0 CODECOPY PUSH1 0x0 RETURN INVALID PUSH1 0x80 PUSH1 0x40 MSTORE CALLVALUE DUP1 ISZERO PUSH2 0x10 JUMPI PUSH1 0x0 DUP1 REVERT JUMPDEST POP PUSH1 0x4 CALLDATASIZE LT PUSH2 0xEA JUMPI PUSH1 0x0 CALLDATALOAD PUSH1 0xE0 SHR DUP1 PUSH4 0x6E1D616E GT PUSH2 0x8C JUMPI DUP1 PUSH4 0xA217FDDF GT PUSH2 0x66 JUMPI DUP1 PUSH4 0xA217FDDF EQ PUSH2 0x249 JUMPI DUP1 PUSH4 0xB60E73DB EQ PUSH2 0x267 JUMPI DUP1 PUSH4 0xD547741F EQ PUSH2 0x2A2 JUMPI DUP1 PUSH4 0xE429CEF1 EQ PUSH2 0x2BE JUMPI PUSH2 0xEA JUMP JUMPDEST DUP1 PUSH4 0x6E1D616E EQ PUSH2 0x1DD JUMPI DUP1 PUSH4 0x75B238FC EQ PUSH2 0x1FB JUMPI DUP1 PUSH4 0x91D14854 EQ PUSH2 0x219 JUMPI PUSH2 0xEA JUMP JUMPDEST DUP1 PUSH4 0x2F2FF15D GT PUSH2 0xC8 JUMPI DUP1 PUSH4 0x2F2FF15D EQ PUSH2 0x16B JUMPI DUP1 PUSH4 0x328F7EBE EQ PUSH2 0x187 JUMPI DUP1 PUSH4 0x36568ABE EQ PUSH2 0x1A3 JUMPI DUP1 PUSH4 0x61B8CE8C EQ PUSH2 0x1BF JUMPI PUSH2 0xEA JUMP JUMPDEST DUP1 PUSH4 0x1FFC9A7 EQ PUSH2 0xEF JUMPI DUP1 PUSH4 0x248A9CA3 EQ PUSH2 0x11F JUMPI DUP1 PUSH4 0x27BDA197 EQ PUSH2 0x14F JUMPI JUMPDEST PUSH1 0x0 DUP1 REVERT JUMPDEST PUSH2 0x109 PUSH1 0x4 DUP1 CALLDATASIZE SUB DUP2 ADD SWAP1 PUSH2 0x104 SWAP2 SWAP1 PUSH2 0xCD0 JUMP JUMPDEST PUSH2 0x2DA JUMP JUMPDEST PUSH1 0x40 MLOAD PUSH2 0x116 SWAP2 SWAP1 PUSH2 0xD18 JUMP JUMPDEST PUSH1 0x40 MLOAD DUP1 SWAP2 SUB SWAP1 RETURN JUMPDEST PUSH2 0x139 PUSH1 0x4 DUP1 CALLDATASIZE SUB DUP2 ADD SWAP1 PUSH2 0x134 SWAP2 SWAP1 PUSH2 0xD69 JUMP JUMPDEST PUSH2 0x354 JUMP JUMPDEST PUSH1 0x40 MLOAD PUSH2 0x146 SWAP2 SWAP1 PUSH2 0xDA5 JUMP JUMPDEST PUSH1 0x40 MLOAD DUP1 SWAP2 SUB SWAP1 RETURN JUMPDEST PUSH2 0x169 PUSH1 0x4 DUP1 CALLDATASIZE SUB DUP2 ADD SWAP1 PUSH2 0x164 SWAP2 SWAP1 PUSH2 0xDF6 JUMP JUMPDEST PUSH2 0x373 JUMP JUMPDEST STOP JUMPDEST PUSH2 0x185 PUSH1 0x4 DUP1 CALLDATASIZE SUB DUP2 ADD SWAP1 PUSH2 0x180 SWAP2 SWAP1 PUSH2 0xE81 JUMP JUMPDEST PUSH2 0x414 JUMP JUMPDEST STOP JUMPDEST PUSH2 0x1A1 PUSH1 0x4 DUP1 CALLDATASIZE SUB DUP2 ADD SWAP1 PUSH2 0x19C SWAP2 SWAP1 PUSH2 0x1007 JUMP JUMPDEST PUSH2 0x436 JUMP JUMPDEST STOP JUMPDEST PUSH2 0x1BD PUSH1 0x4 DUP1 CALLDATASIZE SUB DUP2 ADD SWAP1 PUSH2 0x1B8 SWAP2 SWAP1 PUSH2 0xE81 JUMP JUMPDEST PUSH2 0x5FC JUMP JUMPDEST STOP JUMPDEST PUSH2 0x1C7 PUSH2 0x677 JUMP JUMPDEST PUSH1 0x40 MLOAD PUSH2 0x1D4 SWAP2 SWAP1 PUSH2 0x1134 JUMP JUMPDEST PUSH1 0x40 MLOAD DUP1 SWAP2 SUB SWAP1 RETURN JUMPDEST PUSH2 0x1E5 PUSH2 0x67D JUMP JUMPDEST PUSH1 0x40 MLOAD PUSH2 0x1F2 SWAP2 SWAP1 PUSH2 0xDA5 JUMP JUMPDEST PUSH1 0x40 MLOAD DUP1 SWAP2 SUB SWAP1 RETURN JUMPDEST PUSH2 0x203 PUSH2 0x6A1 JUMP JUMPDEST PUSH1 0x40 MLOAD PUSH2 0x210 SWAP2 SWAP1 PUSH2 0xDA5 JUMP JUMPDEST PUSH1 0x40 MLOAD DUP1 SWAP2 SUB SWAP1 RETURN JUMPDEST PUSH2 0x233 PUSH1 0x4 DUP1 CALLDATASIZE SUB DUP2 ADD SWAP1 PUSH2 0x22E SWAP2 SWAP1 PUSH2 0xE81 JUMP JUMPDEST PUSH2 0x6C5 JUMP JUMPDEST PUSH1 0x40 MLOAD PUSH2 0x240 SWAP2 SWAP1 PUSH2 0xD18 JUMP JUMPDEST PUSH1 0x40 MLOAD DUP1 SWAP2 SUB SWAP1 RETURN JUMPDEST PUSH2 0x251 PUSH2 0x72F JUMP JUMPDEST PUSH1 0x40 MLOAD PUSH2 0x25E SWAP2 SWAP1 PUSH2 0xDA5 JUMP JUMPDEST PUSH1 0x40 MLOAD DUP1 SWAP2 SUB SWAP1 RETURN JUMPDEST PUSH2 0x281 PUSH1 0x4 DUP1 CALLDATASIZE SUB DUP2 ADD SWAP1 PUSH2 0x27C SWAP2 SWAP1 PUSH2 0xDF6 JUMP JUMPDEST PUSH2 0x736 JUMP JUMPDEST PUSH1 0x40 MLOAD PUSH2 0x299 SWAP13 SWAP12 SWAP11 SWAP10 SWAP9 SWAP8 SWAP7 SWAP6 SWAP5 SWAP4 SWAP3 SWAP2 SWAP1 PUSH2 0x11DD JUMP JUMPDEST PUSH1 0x40 MLOAD DUP1 SWAP2 SUB SWAP1 RETURN JUMPDEST PUSH2 0x2BC PUSH1 0x4 DUP1 CALLDATASIZE SUB DUP2 ADD SWAP1 PUSH2 0x2B7 SWAP2 SWAP1 PUSH2 0xE81 JUMP JUMPDEST PUSH2 0x95B JUMP JUMPDEST STOP JUMPDEST PUSH2 0x2D8 PUSH1 0x4 DUP1 CALLDATASIZE SUB DUP2 ADD SWAP1 PUSH2 0x2D3 SWAP2 SWAP1 PUSH2 0x12AC JUMP JUMPDEST PUSH2 0x97D JUMP JUMPDEST STOP JUMPDEST PUSH1 0x0 PUSH32 0x7965DB0B00000000000000000000000000000000000000000000000000000000 PUSH28 0xFFFFFFFFFFFFFFFFFFFFFFFFFFFFFFFFFFFFFFFFFFFFFFFFFFFFFFFF NOT AND DUP3 PUSH28 0xFFFFFFFFFFFFFFFFFFFFFFFFFFFFFFFFFFFFFFFFFFFFFFFFFFFFFFFF NOT AND EQ DUP1 PUSH2 0x34D JUMPI POP PUSH2 0x34C DUP3 PUSH2 0x9AA JUMP JUMPDEST JUMPDEST SWAP1 POP SWAP2 SWAP1 POP JUMP JUMPDEST PUSH1 0x0 DUP1 PUSH1 0x0 DUP4 DUP2 MSTORE PUSH1 0x20 ADD SWAP1 DUP2 MSTORE PUSH1 0x20 ADD PUSH1 0x0 KECCAK256 PUSH1 0x1 ADD SLOAD SWAP1 POP SWAP2 SWAP1 POP JUMP JUMPDEST PUSH2 0x39D PUSH32 0x59A1C48E5837AD7A7F3DCEDCBE129BF3249EC4FBF651FD4F5E2600EAD39FE2F5 CALLER PUSH2 0x6C5 JUMP JUMPDEST PUSH2 0x3DC JUMPI PUSH1 0x40 MLOAD PUSH32 0x8C379A000000000000000000000000000000000000000000000000000000000 DUP2 MSTORE PUSH1 0x4 ADD PUSH2 0x3D3 SWAP1 PUSH2 0x134B JUMP JUMPDEST PUSH1 0x40 MLOAD DUP1 SWAP2 SUB SWAP1 REVERT JUMPDEST PUSH1 0x0 PUSH1 0x1 PUSH1 0x0 DUP4 DUP2 MSTORE PUSH1 0x20 ADD SWAP1 DUP2 MSTORE PUSH1 0x20 ADD PUSH1 0x0 KECCAK256 SWAP1 POP PUSH1 0x1 DUP2 PUSH1 0xB ADD PUSH1 0x0 PUSH2 0x100 EXP DUP2 SLOAD DUP2 PUSH1 0xFF MUL NOT AND SWAP1 DUP4 ISZERO ISZERO MUL OR SWAP1 SSTORE POP POP POP JUMP JUMPDEST PUSH2 0x41D DUP3 PUSH2 0x354 JUMP JUMPDEST PUSH2 0x426 DUP2 PUSH2 0xA14 JUMP JUMPDEST PUSH2 0x430 DUP4 DUP4 PUSH2 0xA28 JUMP JUMPDEST POP POP POP POP JUMP JUMPDEST PUSH32 0x59A1C48E5837AD7A7F3DCEDCBE129BF3249EC4FBF651FD4F5E2600EAD39FE2F5 PUSH2 0x460 DUP2 PUSH2 0xA14 JUMP JUMPDEST PUSH1 0x40 MLOAD DUP1 PUSH2 0x180 ADD PUSH1 0x40 MSTORE DUP1 PUSH1 0x2 SLOAD DUP2 MSTORE PUSH1 0x20 ADD CALLER PUSH20 0xFFFFFFFFFFFFFFFFFFFFFFFFFFFFFFFFFFFFFFFF AND DUP2 MSTORE PUSH1 0x20 ADD DUP12 DUP2 MSTORE PUSH1 0x20 ADD DUP11 DUP2 MSTORE PUSH1 0x20 ADD DUP10 DUP2 MSTORE PUSH1 0x20 ADD DUP9 DUP2 MSTORE PUSH1 0x20 ADD DUP8 DUP2 MSTORE PUSH1 0x20 ADD DUP7 DUP2 MSTORE PUSH1 0x20 ADD DUP6 DUP2 MSTORE PUSH1 0x20 ADD DUP5 DUP2 MSTORE PUSH1 0x20 ADD DUP4 DUP2 MSTORE PUSH1 0x20 ADD PUSH1 0x0 ISZERO ISZERO DUP2 MSTORE POP PUSH1 0x1 PUSH1 0x0 PUSH1 0x2 SLOAD DUP2 MSTORE PUSH1 0x20 ADD SWAP1 DUP2 MSTORE PUSH1 0x20 ADD PUSH1 0x0 KECCAK256 PUSH1 0x0 DUP3 ADD MLOAD DUP2 PUSH1 0x0 ADD SSTORE PUSH1 0x20 DUP3 ADD MLOAD DUP2 PUSH1 0x1 ADD PUSH1 0x0 PUSH2 0x100 EXP DUP2 SLOAD DUP2 PUSH20 0xFFFFFFFFFFFFFFFFFFFFFFFFFFFFFFFFFFFFFFFF MUL NOT AND SWAP1 DUP4 PUSH20 0xFFFFFFFFFFFFFFFFFFFFFFFFFFFFFFFFFFFFFFFF AND MUL OR SWAP1 SSTORE POP PUSH1 0x40 DUP3 ADD MLOAD DUP2 PUSH1 0x2 ADD SWAP1 DUP2 PUSH2 0x548 SWAP2 SWAP1 PUSH2 0x1577 JUMP JUMPDEST POP PUSH1 0x60 DUP3 ADD MLOAD DUP2 PUSH1 0x3 ADD SWAP1 DUP2 PUSH2 0x55E SWAP2 SWAP1 PUSH2 0x1577 JUMP JUMPDEST POP PUSH1 0x80 DUP3 ADD MLOAD DUP2 PUSH1 0x4 ADD SSTORE PUSH1 0xA0 DUP3 ADD MLOAD DUP2 PUSH1 0x5 ADD SSTORE PUSH1 0xC0 DUP3 ADD MLOAD DUP2 PUSH1 0x6 ADD SSTORE PUSH1 0xE0 DUP3 ADD MLOAD DUP2 PUSH1 0x7 ADD SWAP1 DUP2 PUSH2 0x592 SWAP2 SWAP1 PUSH2 0x1577 JUMP JUMPDEST POP PUSH2 0x100 DUP3 ADD MLOAD DUP2 PUSH1 0x8 ADD SSTORE PUSH2 0x120 DUP3 ADD MLOAD DUP2 PUSH1 0x9 ADD SSTORE PUSH2 0x140 DUP3 ADD MLOAD DUP2 PUSH1 0xA ADD SSTORE PUSH2 0x160 DUP3 ADD MLOAD DUP2 PUSH1 0xB ADD PUSH1 0x0 PUSH2 0x100 EXP DUP2 SLOAD DUP2 PUSH1 0xFF MUL NOT AND SWAP1 DUP4 ISZERO ISZERO MUL OR SWAP1 SSTORE POP SWAP1 POP POP PUSH1 0x2 PUSH1 0x0 DUP2 SLOAD DUP1 SWAP3 SWAP2 SWAP1 PUSH2 0x5EB SWAP1 PUSH2 0x1678 JUMP JUMPDEST SWAP2 SWAP1 POP SSTORE POP POP POP POP POP POP POP POP POP POP POP JUMP JUMPDEST PUSH2 0x604 PUSH2 0xB19 JUMP JUMPDEST PUSH20 0xFFFFFFFFFFFFFFFFFFFFFFFFFFFFFFFFFFFFFFFF AND DUP2 PUSH20 0xFFFFFFFFFFFFFFFFFFFFFFFFFFFFFFFFFFFFFFFF AND EQ PUSH2 0x668 JUMPI PUSH1 0x40 MLOAD PUSH32 0x6697B23200000000000000000000000000000000000000000000000000000000 DUP2 MSTORE PUSH1 0x4 ADD PUSH1 0x40 MLOAD DUP1 SWAP2 SUB SWAP1 REVERT JUMPDEST PUSH2 0x672 DUP3 DUP3 PUSH2 0xB21 JUMP JUMPDEST POP POP POP JUMP JUMPDEST PUSH1 0x2 SLOAD DUP2 JUMP JUMPDEST PUSH32 0x59A1C48E5837AD7A7F3DCEDCBE129BF3249EC4FBF651FD4F5E2600EAD39FE2F5 DUP2 JUMP JUMPDEST PUSH32 0xA49807205CE4D355092EF5A8A18F56E8913CF4A201FBE287825B095693C21775 DUP2 JUMP JUMPDEST PUSH1 0x0 DUP1 PUSH1 0x0 DUP5 DUP2 MSTORE PUSH1 0x20 ADD SWAP1 DUP2 MSTORE PUSH1 0x20 ADD PUSH1 0x0 KECCAK256 PUSH1 0x0 ADD PUSH1 0x0 DUP4 PUSH20 0xFFFFFFFFFFFFFFFFFFFFFFFFFFFFFFFFFFFFFFFF AND PUSH20 0xFFFFFFFFFFFFFFFFFFFFFFFFFFFFFFFFFFFFFFFF AND DUP2 MSTORE PUSH1 0x20 ADD SWAP1 DUP2 MSTORE PUSH1 0x20 ADD PUSH1 0x0 KECCAK256 PUSH1 0x0 SWAP1 SLOAD SWAP1 PUSH2 0x100 EXP SWAP1 DIV PUSH1 0xFF AND SWAP1 POP SWAP3 SWAP2 POP POP JUMP JUMPDEST PUSH1 0x0 DUP1 SHL DUP2 JUMP JUMPDEST PUSH1 0x1 PUSH1 0x20 MSTORE DUP1 PUSH1 0x0 MSTORE PUSH1 0x40 PUSH1 0x0 KECCAK256 PUSH1 0x0 SWAP2 POP SWAP1 POP DUP1 PUSH1 0x0 ADD SLOAD SWAP1 DUP1 PUSH1 0x1 ADD PUSH1 0x0 SWAP1 SLOAD SWAP1 PUSH2 0x100 EXP SWAP1 DIV PUSH20 0xFFFFFFFFFFFFFFFFFFFFFFFFFFFFFFFFFFFFFFFF AND SWAP1 DUP1 PUSH1 0x2 ADD DUP1 SLOAD PUSH2 0x785 SWAP1 PUSH2 0x139A JUMP JUMPDEST DUP1 PUSH1 0x1F ADD PUSH1 0x20 DUP1 SWAP2 DIV MUL PUSH1 0x20 ADD PUSH1 0x40 MLOAD SWAP1 DUP2 ADD PUSH1 0x40 MSTORE DUP1 SWAP3 SWAP2 SWAP1 DUP2 DUP2 MSTORE PUSH1 0x20 ADD DUP3 DUP1 SLOAD PUSH2 0x7B1 SWAP1 PUSH2 0x139A JUMP JUMPDEST DUP1 ISZERO PUSH2 0x7FE JUMPI DUP1 PUSH1 0x1F LT PUSH2 0x7D3 JUMPI PUSH2 0x100 DUP1 DUP4 SLOAD DIV MUL DUP4 MSTORE SWAP2 PUSH1 0x20 ADD SWAP2 PUSH2 0x7FE JUMP JUMPDEST DUP3 ADD SWAP2 SWAP1 PUSH1 0x0 MSTORE PUSH1 0x20 PUSH1 0x0 KECCAK256 SWAP1 JUMPDEST DUP2 SLOAD DUP2 MSTORE SWAP1 PUSH1 0x1 ADD SWAP1 PUSH1 0x20 ADD DUP1 DUP4 GT PUSH2 0x7E1 JUMPI DUP3 SWAP1 SUB PUSH1 0x1F AND DUP3 ADD SWAP2 JUMPDEST POP POP POP POP POP SWAP1 DUP1 PUSH1 0x3 ADD DUP1 SLOAD PUSH2 0x813 SWAP1 PUSH2 0x139A JUMP JUMPDEST DUP1 PUSH1 0x1F ADD PUSH1 0x20 DUP1 SWAP2 DIV MUL PUSH1 0x20 ADD PUSH1 0x40 MLOAD SWAP1 DUP2 ADD PUSH1 0x40 MSTORE DUP1 SWAP3 SWAP2 SWAP1 DUP2 DUP2 MSTORE PUSH1 0x20 ADD DUP3 DUP1 SLOAD PUSH2 0x83F SWAP1 PUSH2 0x139A JUMP JUMPDEST DUP1 ISZERO PUSH2 0x88C JUMPI DUP1 PUSH1 0x1F LT PUSH2 0x861 JUMPI PUSH2 0x100 DUP1 DUP4 SLOAD DIV MUL DUP4 MSTORE SWAP2 PUSH1 0x20 ADD SWAP2 PUSH2 0x88C JUMP JUMPDEST DUP3 ADD SWAP2 SWAP1 PUSH1 0x0 MSTORE PUSH1 0x20 PUSH1 0x0 KECCAK256 SWAP1 JUMPDEST DUP2 SLOAD DUP2 MSTORE SWAP1 PUSH1 0x1 ADD SWAP1 PUSH1 0x20 ADD DUP1 DUP4 GT PUSH2 0x86F JUMPI DUP3 SWAP1 SUB PUSH1 0x1F AND DUP3 ADD SWAP2 JUMPDEST POP POP POP POP POP SWAP1 DUP1 PUSH1 0x4 ADD SLOAD SWAP1 DUP1 PUSH1 0x5 ADD SLOAD SWAP1 DUP1 PUSH1 0x6 ADD SLOAD SWAP1 DUP1 PUSH1 0x7 ADD DUP1 SLOAD PUSH2 0x8B3 SWAP1 PUSH2 0x139A JUMP JUMPDEST DUP1 PUSH1 0x1F ADD PUSH1 0x20 DUP1 SWAP2 DIV MUL PUSH1 0x20 ADD PUSH1 0x40 MLOAD SWAP1 DUP2 ADD PUSH1 0x40 MSTORE DUP1 SWAP3 SWAP2 SWAP1 DUP2 DUP2 MSTORE PUSH1 0x20 ADD DUP3 DUP1 SLOAD PUSH2 0x8DF SWAP1 PUSH2 0x139A JUMP JUMPDEST DUP1 ISZERO PUSH2 0x92C JUMPI DUP1 PUSH1 0x1F LT PUSH2 0x901 JUMPI PUSH2 0x100 DUP1 DUP4 SLOAD DIV MUL DUP4 MSTORE SWAP2 PUSH1 0x20 ADD SWAP2 PUSH2 0x92C JUMP JUMPDEST DUP3 ADD SWAP2 SWAP1 PUSH1 0x0 MSTORE PUSH1 0x20 PUSH1 0x0 KECCAK256 SWAP1 JUMPDEST DUP2 SLOAD DUP2 MSTORE SWAP1 PUSH1 0x1 ADD SWAP1 PUSH1 0x20 ADD DUP1 DUP4 GT PUSH2 0x90F JUMPI DUP3 SWAP1 SUB PUSH1 0x1F AND DUP3 ADD SWAP2 JUMPDEST POP POP POP POP POP SWAP1 DUP1 PUSH1 0x8 ADD SLOAD SWAP1 DUP1 PUSH1 0x9 ADD SLOAD SWAP1 DUP1 PUSH1 0xA ADD SLOAD SWAP1 DUP1 PUSH1 0xB ADD PUSH1 0x0 SWAP1 SLOAD SWAP1 PUSH2 0x100 EXP SWAP1 DIV PUSH1 0xFF AND SWAP1 POP DUP13 JUMP JUMPDEST PUSH2 0x964 DUP3 PUSH2 0x354 JUMP JUMPDEST PUSH2 0x96D DUP2 PUSH2 0xA14 JUMP JUMPDEST PUSH2 0x977 DUP4 DUP4 PUSH2 0xB21 JUMP JUMPDEST POP POP POP POP JUMP JUMPDEST PUSH2 0x9A7 PUSH32 0x59A1C48E5837AD7A7F3DCEDCBE129BF3249EC4FBF651FD4F5E2600EAD39FE2F5 DUP3 PUSH2 0x414 JUMP JUMPDEST POP JUMP JUMPDEST PUSH1 0x0 PUSH32 0x1FFC9A700000000000000000000000000000000000000000000000000000000 PUSH28 0xFFFFFFFFFFFFFFFFFFFFFFFFFFFFFFFFFFFFFFFFFFFFFFFFFFFFFFFF NOT AND DUP3 PUSH28 0xFFFFFFFFFFFFFFFFFFFFFFFFFFFFFFFFFFFFFFFFFFFFFFFFFFFFFFFF NOT AND EQ SWAP1 POP SWAP2 SWAP1 POP JUMP JUMPDEST PUSH2 0xA25 DUP2 PUSH2 0xA20 PUSH2 0xB19 JUMP JUMPDEST PUSH2 0xC13 JUMP JUMPDEST POP JUMP JUMPDEST PUSH1 0x0 PUSH2 0xA34 DUP4 DUP4 PUSH2 0x6C5 JUMP JUMPDEST PUSH2 0xB0E JUMPI PUSH1 0x1 PUSH1 0x0 DUP1 DUP6 DUP2 MSTORE PUSH1 0x20 ADD SWAP1 DUP2 MSTORE PUSH1 0x20 ADD PUSH1 0x0 KECCAK256 PUSH1 0x0 ADD PUSH1 0x0 DUP5 PUSH20 0xFFFFFFFFFFFFFFFFFFFFFFFFFFFFFFFFFFFFFFFF AND PUSH20 0xFFFFFFFFFFFFFFFFFFFFFFFFFFFFFFFFFFFFFFFF AND DUP2 MSTORE PUSH1 0x20 ADD SWAP1 DUP2 MSTORE PUSH1 0x20 ADD PUSH1 0x0 KECCAK256 PUSH1 0x0 PUSH2 0x100 EXP DUP2 SLOAD DUP2 PUSH1 0xFF MUL NOT AND SWAP1 DUP4 ISZERO ISZERO MUL OR SWAP1 SSTORE POP PUSH2 0xAAB PUSH2 0xB19 JUMP JUMPDEST PUSH20 0xFFFFFFFFFFFFFFFFFFFFFFFFFFFFFFFFFFFFFFFF AND DUP3 PUSH20 0xFFFFFFFFFFFFFFFFFFFFFFFFFFFFFFFFFFFFFFFF AND DUP5 PUSH32 0x2F8788117E7EFF1D82E926EC794901D17C78024A50270940304540A733656F0D PUSH1 0x40 MLOAD PUSH1 0x40 MLOAD DUP1 SWAP2 SUB SWAP1 LOG4 PUSH1 0x1 SWAP1 POP PUSH2 0xB13 JUMP JUMPDEST PUSH1 0x0 SWAP1 POP JUMPDEST SWAP3 SWAP2 POP POP JUMP JUMPDEST PUSH1 0x0 CALLER SWAP1 POP SWAP1 JUMP JUMPDEST PUSH1 0x0 PUSH2 0xB2D DUP4 DUP4 PUSH2 0x6C5 JUMP JUMPDEST ISZERO PUSH2 0xC08 JUMPI PUSH1 0x0 DUP1 PUSH1 0x0 DUP6 DUP2 MSTORE PUSH1 0x20 ADD SWAP1 DUP2 MSTORE PUSH1 0x20 ADD PUSH1 0x0 KECCAK256 PUSH1 0x0 ADD PUSH1 0x0 DUP5 PUSH20 0xFFFFFFFFFFFFFFFFFFFFFFFFFFFFFFFFFFFFFFFF AND PUSH20 0xFFFFFFFFFFFFFFFFFFFFFFFFFFFFFFFFFFFFFFFF AND DUP2 MSTORE PUSH1 0x20 ADD SWAP1 DUP2 MSTORE PUSH1 0x20 ADD PUSH1 0x0 KECCAK256 PUSH1 0x0 PUSH2 0x100 EXP DUP2 SLOAD DUP2 PUSH1 0xFF MUL NOT AND SWAP1 DUP4 ISZERO ISZERO MUL OR SWAP1 SSTORE POP PUSH2 0xBA5 PUSH2 0xB19 JUMP JUMPDEST PUSH20 0xFFFFFFFFFFFFFFFFFFFFFFFFFFFFFFFFFFFFFFFF AND DUP3 PUSH20 0xFFFFFFFFFFFFFFFFFFFFFFFFFFFFFFFFFFFFFFFF AND DUP5 PUSH32 0xF6391F5C32D9C69D2A47EA670B442974B53935D1EDC7FD64EB21E047A839171B PUSH1 0x40 MLOAD PUSH1 0x40 MLOAD DUP1 SWAP2 SUB SWAP1 LOG4 PUSH1 0x1 SWAP1 POP PUSH2 0xC0D JUMP JUMPDEST PUSH1 0x0 SWAP1 POP JUMPDEST SWAP3 SWAP2 POP POP JUMP JUMPDEST PUSH2 0xC1D DUP3 DUP3 PUSH2 0x6C5 JUMP JUMPDEST PUSH2 0xC60 JUMPI DUP1 DUP3 PUSH1 0x40 MLOAD PUSH32 0xE2517D3F00000000000000000000000000000000000000000000000000000000 DUP2 MSTORE PUSH1 0x4 ADD PUSH2 0xC57 SWAP3 SWAP2 SWAP1 PUSH2 0x16C0 JUMP JUMPDEST PUSH1 0x40 MLOAD DUP1 SWAP2 SUB SWAP1 REVERT JUMPDEST POP POP JUMP JUMPDEST PUSH1 0x0 PUSH1 0x40 MLOAD SWAP1 POP SWAP1 JUMP JUMPDEST PUSH1 0x0 DUP1 REVERT JUMPDEST PUSH1 0x0 DUP1 REVERT JUMPDEST PUSH1 0x0 PUSH32 0xFFFFFFFF00000000000000000000000000000000000000000000000000000000 DUP3 AND SWAP1 POP SWAP2 SWAP1 POP JUMP JUMPDEST PUSH2 0xCAD DUP2 PUSH2 0xC78 JUMP JUMPDEST DUP2 EQ PUSH2 0xCB8 JUMPI PUSH1 0x0 DUP1 REVERT JUMPDEST POP JUMP JUMPDEST PUSH1 0x0 DUP2 CALLDATALOAD SWAP1 POP PUSH2 0xCCA DUP2 PUSH2 0xCA4 JUMP JUMPDEST SWAP3 SWAP2 POP POP JUMP JUMPDEST PUSH1 0x0 PUSH1 0x20 DUP3 DUP5 SUB SLT ISZERO PUSH2 0xCE6 JUMPI PUSH2 0xCE5 PUSH2 0xC6E JUMP JUMPDEST JUMPDEST PUSH1 0x0 PUSH2 0xCF4 DUP5 DUP3 DUP6 ADD PUSH2 0xCBB JUMP JUMPDEST SWAP2 POP POP SWAP3 SWAP2 POP POP JUMP JUMPDEST PUSH1 0x0 DUP2 ISZERO ISZERO SWAP1 POP SWAP2 SWAP1 POP JUMP JUMPDEST PUSH2 0xD12 DUP2 PUSH2 0xCFD JUMP JUMPDEST DUP3 MSTORE POP POP JUMP JUMPDEST PUSH1 0x0 PUSH1 0x20 DUP3 ADD SWAP1 POP PUSH2 0xD2D PUSH1 0x0 DUP4 ADD DUP5 PUSH2 0xD09 JUMP JUMPDEST SWAP3 SWAP2 POP POP JUMP JUMPDEST PUSH1 0x0 DUP2 SWAP1 POP SWAP2 SWAP1 POP JUMP JUMPDEST PUSH2 0xD46 DUP2 PUSH2 0xD33 JUMP JUMPDEST DUP2 EQ PUSH2 0xD51 JUMPI PUSH1 0x0 DUP1 REVERT JUMPDEST POP JUMP JUMPDEST PUSH1 0x0 DUP2 CALLDATALOAD SWAP1 POP PUSH2 0xD63 DUP2 PUSH2 0xD3D JUMP JUMPDEST SWAP3 SWAP2 POP POP JUMP JUMPDEST PUSH1 0x0 PUSH1 0x20 DUP3 DUP5 SUB SLT ISZERO PUSH2 0xD7F JUMPI PUSH2 0xD7E PUSH2 0xC6E JUMP JUMPDEST JUMPDEST PUSH1 0x0 PUSH2 0xD8D DUP5 DUP3 DUP6 ADD PUSH2 0xD54 JUMP JUMPDEST SWAP2 POP POP SWAP3 SWAP2 POP POP JUMP JUMPDEST PUSH2 0xD9F DUP2 PUSH2 0xD33 JUMP JUMPDEST DUP3 MSTORE POP POP JUMP JUMPDEST PUSH1 0x0 PUSH1 0x20 DUP3 ADD SWAP1 POP PUSH2 0xDBA PUSH1 0x0 DUP4 ADD DUP5 PUSH2 0xD96 JUMP JUMPDEST SWAP3 SWAP2 POP POP JUMP JUMPDEST PUSH1 0x0 DUP2 SWAP1 POP SWAP2 SWAP1 POP JUMP JUMPDEST PUSH2 0xDD3 DUP2 PUSH2 0xDC0 JUMP JUMPDEST DUP2 EQ PUSH2 0xDDE JUMPI PUSH1 0x0 DUP1 REVERT JUMPDEST POP JUMP JUMPDEST PUSH1 0x0 DUP2 CALLDATALOAD SWAP1 POP PUSH2 0xDF0 DUP2 PUSH2 0xDCA JUMP JUMPDEST SWAP3 SWAP2 POP POP JUMP JUMPDEST PUSH1 0x0 PUSH1 0x20 DUP3 DUP5 SUB SLT ISZERO PUSH2 0xE0C JUMPI PUSH2 0xE0B PUSH2 0xC6E JUMP JUMPDEST JUMPDEST PUSH1 0x0 PUSH2 0xE1A DUP5 DUP3 DUP6 ADD PUSH2 0xDE1 JUMP JUMPDEST SWAP2 POP POP SWAP3 SWAP2 POP POP JUMP JUMPDEST PUSH1 0x0 PUSH20 0xFFFFFFFFFFFFFFFFFFFFFFFFFFFFFFFFFFFFFFFF DUP3 AND SWAP1 POP SWAP2 SWAP1 POP JUMP JUMPDEST PUSH1 0x0 PUSH2 0xE4E DUP3 PUSH2 0xE23 JUMP JUMPDEST SWAP1 POP SWAP2 SWAP1 POP JUMP JUMPDEST PUSH2 0xE5E DUP2 PUSH2 0xE43 JUMP JUMPDEST DUP2 EQ PUSH2 0xE69 JUMPI PUSH1 0x0 DUP1 REVERT JUMPDEST POP JUMP JUMPDEST PUSH1 0x0 DUP2 CALLDATALOAD SWAP1 POP PUSH2 0xE7B DUP2 PUSH2 0xE55 JUMP JUMPDEST SWAP3 SWAP2 POP POP JUMP JUMPDEST PUSH1 0x0 DUP1 PUSH1 0x40 DUP4 DUP6 SUB SLT ISZERO PUSH2 0xE98 JUMPI PUSH2 0xE97 PUSH2 0xC6E JUMP JUMPDEST JUMPDEST PUSH1 0x0 PUSH2 0xEA6 DUP6 DUP3 DUP7 ADD PUSH2 0xD54 JUMP JUMPDEST SWAP3 POP POP PUSH1 0x20 PUSH2 0xEB7 DUP6 DUP3 DUP7 ADD PUSH2 0xE6C JUMP JUMPDEST SWAP2 POP POP SWAP3 POP SWAP3 SWAP1 POP JUMP JUMPDEST PUSH1 0x0 DUP1 REVERT JUMPDEST PUSH1 0x0 DUP1 REVERT JUMPDEST PUSH1 0x0 PUSH1 0x1F NOT PUSH1 0x1F DUP4 ADD AND SWAP1 POP SWAP2 SWAP1 POP JUMP JUMPDEST PUSH32 0x4E487B7100000000000000000000000000000000000000000000000000000000 PUSH1 0x0 MSTORE PUSH1 0x41 PUSH1 0x4 MSTORE PUSH1 0x24 PUSH1 0x0 REVERT JUMPDEST PUSH2 0xF14 DUP3 PUSH2 0xECB JUMP JUMPDEST DUP2 ADD DUP2 DUP2 LT PUSH8 0xFFFFFFFFFFFFFFFF DUP3 GT OR ISZERO PUSH2 0xF33 JUMPI PUSH2 0xF32 PUSH2 0xEDC JUMP JUMPDEST JUMPDEST DUP1 PUSH1 0x40 MSTORE POP POP POP JUMP JUMPDEST PUSH1 0x0 PUSH2 0xF46 PUSH2 0xC64 JUMP JUMPDEST SWAP1 POP PUSH2 0xF52 DUP3 DUP3 PUSH2 0xF0B JUMP JUMPDEST SWAP2 SWAP1 POP JUMP JUMPDEST PUSH1 0x0 PUSH8 0xFFFFFFFFFFFFFFFF DUP3 GT ISZERO PUSH2 0xF72 JUMPI PUSH2 0xF71 PUSH2 0xEDC JUMP JUMPDEST JUMPDEST PUSH2 0xF7B DUP3 PUSH2 0xECB JUMP JUMPDEST SWAP1 POP PUSH1 0x20 DUP2 ADD SWAP1 POP SWAP2 SWAP1 POP JUMP JUMPDEST DUP3 DUP2 DUP4 CALLDATACOPY PUSH1 0x0 DUP4 DUP4 ADD MSTORE POP POP POP JUMP JUMPDEST PUSH1 0x0 PUSH2 0xFAA PUSH2 0xFA5 DUP5 PUSH2 0xF57 JUMP JUMPDEST PUSH2 0xF3C JUMP JUMPDEST SWAP1 POP DUP3 DUP2 MSTORE PUSH1 0x20 DUP2 ADD DUP5 DUP5 DUP5 ADD GT ISZERO PUSH2 0xFC6 JUMPI PUSH2 0xFC5 PUSH2 0xEC6 JUMP JUMPDEST JUMPDEST PUSH2 0xFD1 DUP5 DUP3 DUP6 PUSH2 0xF88 JUMP JUMPDEST POP SWAP4 SWAP3 POP POP POP JUMP JUMPDEST PUSH1 0x0 DUP3 PUSH1 0x1F DUP4 ADD SLT PUSH2 0xFEE JUMPI PUSH2 0xFED PUSH2 0xEC1 JUMP JUMPDEST JUMPDEST DUP2 CALLDATALOAD PUSH2 0xFFE DUP5 DUP3 PUSH1 0x20 DUP7 ADD PUSH2 0xF97 JUMP JUMPDEST SWAP2 POP POP SWAP3 SWAP2 POP POP JUMP JUMPDEST PUSH1 0x0 DUP1 PUSH1 0x0 DUP1 PUSH1 0x0 DUP1 PUSH1 0x0 DUP1 PUSH1 0x0 PUSH2 0x120 DUP11 DUP13 SUB SLT ISZERO PUSH2 0x102A JUMPI PUSH2 0x1029 PUSH2 0xC6E JUMP JUMPDEST JUMPDEST PUSH1 0x0 DUP11 ADD CALLDATALOAD PUSH8 0xFFFFFFFFFFFFFFFF DUP2 GT ISZERO PUSH2 0x1048 JUMPI PUSH2 0x1047 PUSH2 0xC73 JUMP JUMPDEST JUMPDEST PUSH2 0x1054 DUP13 DUP3 DUP14 ADD PUSH2 0xFD9 JUMP JUMPDEST SWAP10 POP POP PUSH1 0x20 DUP11 ADD CALLDATALOAD PUSH8 0xFFFFFFFFFFFFFFFF DUP2 GT ISZERO PUSH2 0x1075 JUMPI PUSH2 0x1074 PUSH2 0xC73 JUMP JUMPDEST JUMPDEST PUSH2 0x1081 DUP13 DUP3 DUP14 ADD PUSH2 0xFD9 JUMP JUMPDEST SWAP9 POP POP PUSH1 0x40 PUSH2 0x1092 DUP13 DUP3 DUP14 ADD PUSH2 0xDE1 JUMP JUMPDEST SWAP8 POP POP PUSH1 0x60 PUSH2 0x10A3 DUP13 DUP3 DUP14 ADD PUSH2 0xDE1 JUMP JUMPDEST SWAP7 POP POP PUSH1 0x80 PUSH2 0x10B4 DUP13 DUP3 DUP14 ADD PUSH2 0xDE1 JUMP JUMPDEST SWAP6 POP POP PUSH1 0xA0 DUP11 ADD CALLDATALOAD PUSH8 0xFFFFFFFFFFFFFFFF DUP2 GT ISZERO PUSH2 0x10D5 JUMPI PUSH2 0x10D4 PUSH2 0xC73 JUMP JUMPDEST JUMPDEST PUSH2 0x10E1 DUP13 DUP3 DUP14 ADD PUSH2 0xFD9 JUMP JUMPDEST SWAP5 POP POP PUSH1 0xC0 PUSH2 0x10F2 DUP13 DUP3 DUP14 ADD PUSH2 0xDE1 JUMP JUMPDEST SWAP4 POP POP PUSH1 0xE0 PUSH2 0x1103 DUP13 DUP3 DUP14 ADD PUSH2 0xDE1 JUMP JUMPDEST SWAP3 POP POP PUSH2 0x100 PUSH2 0x1115 DUP13 DUP3 DUP14 ADD PUSH2 0xDE1 JUMP JUMPDEST SWAP2 POP POP SWAP3 SWAP6 SWAP9 POP SWAP3 SWAP6 SWAP9 POP SWAP3 SWAP6 SWAP9 JUMP JUMPDEST PUSH2 0x112E DUP2 PUSH2 0xDC0 JUMP JUMPDEST DUP3 MSTORE POP POP JUMP JUMPDEST PUSH1 0x0 PUSH1 0x20 DUP3 ADD SWAP1 POP PUSH2 0x1149 PUSH1 0x0 DUP4 ADD DUP5 PUSH2 0x1125 JUMP JUMPDEST SWAP3 SWAP2 POP POP JUMP JUMPDEST PUSH2 0x1158 DUP2 PUSH2 0xE43 JUMP JUMPDEST DUP3 MSTORE POP POP JUMP JUMPDEST PUSH1 0x0 DUP2 MLOAD SWAP1 POP SWAP2 SWAP1 POP JUMP JUMPDEST PUSH1 0x0 DUP3 DUP3 MSTORE PUSH1 0x20 DUP3 ADD SWAP1 POP SWAP3 SWAP2 POP POP JUMP JUMPDEST PUSH1 0x0 JUMPDEST DUP4 DUP2 LT ISZERO PUSH2 0x1198 JUMPI DUP1 DUP3 ADD MLOAD DUP2 DUP5 ADD MSTORE PUSH1 0x20 DUP2 ADD SWAP1 POP PUSH2 0x117D JUMP JUMPDEST PUSH1 0x0 DUP5 DUP5 ADD MSTORE POP POP POP POP JUMP JUMPDEST PUSH1 0x0 PUSH2 0x11AF DUP3 PUSH2 0x115E JUMP JUMPDEST PUSH2 0x11B9 DUP2 DUP6 PUSH2 0x1169 JUMP JUMPDEST SWAP4 POP PUSH2 0x11C9 DUP2 DUP6 PUSH1 0x20 DUP7 ADD PUSH2 0x117A JUMP JUMPDEST PUSH2 0x11D2 DUP2 PUSH2 0xECB JUMP JUMPDEST DUP5 ADD SWAP2 POP POP SWAP3 SWAP2 POP POP JUMP JUMPDEST PUSH1 0x0 PUSH2 0x180 DUP3 ADD SWAP1 POP PUSH2 0x11F3 PUSH1 0x0 DUP4 ADD DUP16 PUSH2 0x1125 JUMP JUMPDEST PUSH2 0x1200 PUSH1 0x20 DUP4 ADD DUP15 PUSH2 0x114F JUMP JUMPDEST DUP2 DUP2 SUB PUSH1 0x40 DUP4 ADD MSTORE PUSH2 0x1212 DUP2 DUP14 PUSH2 0x11A4 JUMP JUMPDEST SWAP1 POP DUP2 DUP2 SUB PUSH1 0x60 DUP4 ADD MSTORE PUSH2 0x1226 DUP2 DUP13 PUSH2 0x11A4 JUMP JUMPDEST SWAP1 POP PUSH2 0x1235 PUSH1 0x80 DUP4 ADD DUP12 PUSH2 0x1125 JUMP JUMPDEST PUSH2 0x1242 PUSH1 0xA0 DUP4 ADD DUP11 PUSH2 0x1125 JUMP JUMPDEST PUSH2 0x124F PUSH1 0xC0 DUP4 ADD DUP10 PUSH2 0x1125 JUMP JUMPDEST DUP2 DUP2 SUB PUSH1 0xE0 DUP4 ADD MSTORE PUSH2 0x1261 DUP2 DUP9 PUSH2 0x11A4 JUMP JUMPDEST SWAP1 POP PUSH2 0x1271 PUSH2 0x100 DUP4 ADD DUP8 PUSH2 0x1125 JUMP JUMPDEST PUSH2 0x127F PUSH2 0x120 DUP4 ADD DUP7 PUSH2 0x1125 JUMP JUMPDEST PUSH2 0x128D PUSH2 0x140 DUP4 ADD DUP6 PUSH2 0x1125 JUMP JUMPDEST PUSH2 0x129B PUSH2 0x160 DUP4 ADD DUP5 PUSH2 0xD09 JUMP JUMPDEST SWAP14 SWAP13 POP POP POP POP POP POP POP POP POP POP POP POP POP JUMP JUMPDEST PUSH1 0x0 PUSH1 0x20 DUP3 DUP5 SUB SLT ISZERO PUSH2 0x12C2 JUMPI PUSH2 0x12C1 PUSH2 0xC6E JUMP JUMPDEST JUMPDEST PUSH1 0x0 PUSH2 0x12D0 DUP5 DUP3 DUP6 ADD PUSH2 0xE6C JUMP JUMPDEST SWAP2 POP POP SWAP3 SWAP2 POP POP JUMP JUMPDEST PUSH32 0x4F6E6C79207468652061756469746F722063616E206365727469667920746865 PUSH1 0x0 DUP3 ADD MSTORE PUSH32 0x2061756469740000000000000000000000000000000000000000000000000000 PUSH1 0x20 DUP3 ADD MSTORE POP JUMP JUMPDEST PUSH1 0x0 PUSH2 0x1335 PUSH1 0x26 DUP4 PUSH2 0x1169 JUMP JUMPDEST SWAP2 POP PUSH2 0x1340 DUP3 PUSH2 0x12D9 JUMP JUMPDEST PUSH1 0x40 DUP3 ADD SWAP1 POP SWAP2 SWAP1 POP JUMP JUMPDEST PUSH1 0x0 PUSH1 0x20 DUP3 ADD SWAP1 POP DUP2 DUP2 SUB PUSH1 0x0 DUP4 ADD MSTORE PUSH2 0x1364 DUP2 PUSH2 0x1328 JUMP JUMPDEST SWAP1 POP SWAP2 SWAP1 POP JUMP JUMPDEST PUSH32 0x4E487B7100000000000000000000000000000000000000000000000000000000 PUSH1 0x0 MSTORE PUSH1 0x22 PUSH1 0x4 MSTORE PUSH1 0x24 PUSH1 0x0 REVERT JUMPDEST PUSH1 0x0 PUSH1 0x2 DUP3 DIV SWAP1 POP PUSH1 0x1 DUP3 AND DUP1 PUSH2 0x13B2 JUMPI PUSH1 0x7F DUP3 AND SWAP2 POP JUMPDEST PUSH1 0x20 DUP3 LT DUP2 SUB PUSH2 0x13C5 JUMPI PUSH2 0x13C4 PUSH2 0x136B JUMP JUMPDEST JUMPDEST POP SWAP2 SWAP1 POP JUMP JUMPDEST PUSH1 0x0 DUP2 SWAP1 POP DUP2 PUSH1 0x0 MSTORE PUSH1 0x20 PUSH1 0x0 KECCAK256 SWAP1 POP SWAP2 SWAP1 POP JUMP JUMPDEST PUSH1 0x0 PUSH1 0x20 PUSH1 0x1F DUP4 ADD DIV SWAP1 POP SWAP2 SWAP1 POP JUMP JUMPDEST PUSH1 0x0 DUP3 DUP3 SHL SWAP1 POP SWAP3 SWAP2 POP POP JUMP JUMPDEST PUSH1 0x0 PUSH1 0x8 DUP4 MUL PUSH2 0x142D PUSH32 0xFFFFFFFFFFFFFFFFFFFFFFFFFFFFFFFFFFFFFFFFFFFFFFFFFFFFFFFFFFFFFFFF DUP3 PUSH2 0x13F0 JUMP JUMPDEST PUSH2 0x1437 DUP7 DUP4 PUSH2 0x13F0 JUMP JUMPDEST SWAP6 POP DUP1 NOT DUP5 AND SWAP4 POP DUP1 DUP7 AND DUP5 OR SWAP3 POP POP POP SWAP4 SWAP3 POP POP POP JUMP JUMPDEST PUSH1 0x0 DUP2 SWAP1 POP SWAP2 SWAP1 POP JUMP JUMPDEST PUSH1 0x0 PUSH2 0x1474 PUSH2 0x146F PUSH2 0x146A DUP5 PUSH2 0xDC0 JUMP JUMPDEST PUSH2 0x144F JUMP JUMPDEST PUSH2 0xDC0 JUMP JUMPDEST SWAP1 POP SWAP2 SWAP1 POP JUMP JUMPDEST PUSH1 0x0 DUP2 SWAP1 POP SWAP2 SWAP1 POP JUMP JUMPDEST PUSH2 0x148E DUP4 PUSH2 0x1459 JUMP JUMPDEST PUSH2 0x14A2 PUSH2 0x149A DUP3 PUSH2 0x147B JUMP JUMPDEST DUP5 DUP5 SLOAD PUSH2 0x13FD JUMP JUMPDEST DUP3 SSTORE POP POP POP POP JUMP JUMPDEST PUSH1 0x0 SWAP1 JUMP JUMPDEST PUSH2 0x14B7 PUSH2 0x14AA JUMP JUMPDEST PUSH2 0x14C2 DUP2 DUP5 DUP5 PUSH2 0x1485 JUMP JUMPDEST POP POP POP JUMP JUMPDEST JUMPDEST DUP2 DUP2 LT ISZERO PUSH2 0x14E6 JUMPI PUSH2 0x14DB PUSH1 0x0 DUP3 PUSH2 0x14AF JUMP JUMPDEST PUSH1 0x1 DUP2 ADD SWAP1 POP PUSH2 0x14C8 JUMP JUMPDEST POP POP JUMP JUMPDEST PUSH1 0x1F DUP3 GT ISZERO PUSH2 0x152B JUMPI PUSH2 0x14FC DUP2 PUSH2 0x13CB JUMP JUMPDEST PUSH2 0x1505 DUP5 PUSH2 0x13E0 JUMP JUMPDEST DUP2 ADD PUSH1 0x20 DUP6 LT ISZERO PUSH2 0x1514 JUMPI DUP2 SWAP1 POP JUMPDEST PUSH2 0x1528 PUSH2 0x1520 DUP6 PUSH2 0x13E0 JUMP JUMPDEST DUP4 ADD DUP3 PUSH2 0x14C7 JUMP JUMPDEST POP POP JUMPDEST POP POP POP JUMP JUMPDEST PUSH1 0x0 DUP3 DUP3 SHR SWAP1 POP SWAP3 SWAP2 POP POP JUMP JUMPDEST PUSH1 0x0 PUSH2 0x154E PUSH1 0x0 NOT DUP5 PUSH1 0x8 MUL PUSH2 0x1530 JUMP JUMPDEST NOT DUP1 DUP4 AND SWAP2 POP POP SWAP3 SWAP2 POP POP JUMP JUMPDEST PUSH1 0x0 PUSH2 0x1567 DUP4 DUP4 PUSH2 0x153D JUMP JUMPDEST SWAP2 POP DUP3 PUSH1 0x2 MUL DUP3 OR SWAP1 POP SWAP3 SWAP2 POP POP JUMP JUMPDEST PUSH2 0x1580 DUP3 PUSH2 0x115E JUMP JUMPDEST PUSH8 0xFFFFFFFFFFFFFFFF DUP2 GT ISZERO PUSH2 0x1599 JUMPI PUSH2 0x1598 PUSH2 0xEDC JUMP JUMPDEST JUMPDEST PUSH2 0x15A3 DUP3 SLOAD PUSH2 0x139A JUMP JUMPDEST PUSH2 0x15AE DUP3 DUP3 DUP6 PUSH2 0x14EA JUMP JUMPDEST PUSH1 0x0 PUSH1 0x20 SWAP1 POP PUSH1 0x1F DUP4 GT PUSH1 0x1 DUP2 EQ PUSH2 0x15E1 JUMPI PUSH1 0x0 DUP5 ISZERO PUSH2 0x15CF JUMPI DUP3 DUP8 ADD MLOAD SWAP1 POP JUMPDEST PUSH2 0x15D9 DUP6 DUP3 PUSH2 0x155B JUMP JUMPDEST DUP7 SSTORE POP PUSH2 0x1641 JUMP JUMPDEST PUSH1 0x1F NOT DUP5 AND PUSH2 0x15EF DUP7 PUSH2 0x13CB JUMP JUMPDEST PUSH1 0x0 JUMPDEST DUP3 DUP2 LT ISZERO PUSH2 0x1617 JUMPI DUP5 DUP10 ADD MLOAD DUP3 SSTORE PUSH1 0x1 DUP3 ADD SWAP2 POP PUSH1 0x20 DUP6 ADD SWAP5 POP PUSH1 0x20 DUP2 ADD SWAP1 POP PUSH2 0x15F2 JUMP JUMPDEST DUP7 DUP4 LT ISZERO PUSH2 0x1634 JUMPI DUP5 DUP10 ADD MLOAD PUSH2 0x1630 PUSH1 0x1F DUP10 AND DUP3 PUSH2 0x153D JUMP JUMPDEST DUP4 SSTORE POP JUMPDEST PUSH1 0x1 PUSH1 0x2 DUP9 MUL ADD DUP9 SSTORE POP POP POP JUMPDEST POP POP POP POP POP POP JUMP JUMPDEST PUSH32 0x4E487B7100000000000000000000000000000000000000000000000000000000 PUSH1 0x0 MSTORE PUSH1 0x11 PUSH1 0x4 MSTORE PUSH1 0x24 PUSH1 0x0 REVERT JUMPDEST PUSH1 0x0 PUSH2 0x1683 DUP3 PUSH2 0xDC0 JUMP JUMPDEST SWAP2 POP PUSH32 0xFFFFFFFFFFFFFFFFFFFFFFFFFFFFFFFFFFFFFFFFFFFFFFFFFFFFFFFFFFFFFFFF DUP3 SUB PUSH2 0x16B5 JUMPI PUSH2 0x16B4 PUSH2 0x1649 JUMP JUMPDEST JUMPDEST PUSH1 0x1 DUP3 ADD SWAP1 POP SWAP2 SWAP1 POP JUMP JUMPDEST PUSH1 0x0 PUSH1 0x40 DUP3 ADD SWAP1 POP PUSH2 0x16D5 PUSH1 0x0 DUP4 ADD DUP6 PUSH2 0x114F JUMP JUMPDEST PUSH2 0x16E2 PUSH1 0x20 DUP4 ADD DUP5 PUSH2 0xD96 JUMP JUMPDEST SWAP4 SWAP3 POP POP POP JUMP INVALID LOG2 PUSH5 0x6970667358 0x22 SLT KECCAK256 0xDA 0xC0 PUSH12 0x55FCF8BA93C686CE93D773FC MSTORE8 EXTCODESIZE SHR JUMPDEST MCOPY CALLCODE 0x27 SWAP2 0x29 0xC1 DUP3 0x2C MLOAD DUP16 SELFDESTRUCT 0x21 GT PUSH5 0x736F6C6343 STOP ADDMOD XOR STOP CALLER "},"methodIdentifiers":{"ADMIN_ROLE()":"75b238fc","AUDITOR_ROLE()":"6e1d616e","DEFAULT_ADMIN_ROLE()":"a217fddf","addAuditor(address)":"e429cef1","audits(uint256)":"b60e73db","certifyAudit(uint256)":"27bda197","getRoleAdmin(bytes32)":"248a9ca3","grantRole(bytes32,address)":"2f2ff15d","hasRole(bytes32,address)":"91d14854","nextId()":"61b8ce8c","recordAudit(string,string,uint256,uint256,uint256,string,uint256,uint256,uint256)":"328f7ebe","renounceRole(bytes32,address)":"36568abe","revokeRole(bytes32,address)":"d547741f","supportsInterface(bytes4)":"01ffc9a7"}}}}}