{
	"contracts/AuditRegistry.sol": {
		"AuditRegistry": {
			"abi": [
				{
					"inputs": [],
					"stateMutability": "nonpayable",
					"type": "constructor"
				},
				{
					"inputs": [],
					"name": "AccessControlBadConfirmation",
					"type": "error"
				},
				{
					"inputs": [
						{
							"internalType": "address",
							"name": "account",
							"type": "address"
						},
						{
							"internalType": "bytes32",
							"name": "neededRole",
							"type": "bytes32"
						}
					],
					"name": "AccessControlUnauthorizedAccount",
					"type": "error"
				},
				{
					"inputs": [
						{
							"internalType": "address",
							"name": "owner",
							"type": "address"
						}
					],
					"name": "OwnableInvalidOwner",
					"type": "error"
				},
				{
					"inputs": [
						{
							"internalType": "address",
							"name": "account",
							"type": "address"
						}
					],
					"name": "OwnableUnauthorizedAccount",
					"type": "error"
				},
				{
					"anonymous": false,
					"inputs": [
						{
							"indexed": true,
							"internalType": "address",
							"name": "previousOwner",
							"type": "address"
						},
						{
							"indexed": true,
							"internalType": "address",
							"name": "newOwner",
							"type": "address"
						}
					],
					"name": "OwnershipTransferred",
					"type": "event"
				},
				{
					"anonymous": false,
					"inputs": [
						{
							"indexed": true,
							"internalType": "bytes32",
							"name": "role",
							"type": "bytes32"
						},
						{
							"indexed": true,
							"internalType": "bytes32",
							"name": "previousAdminRole",
							"type": "bytes32"
						},
						{
							"indexed": true,
							"internalType": "bytes32",
							"name": "newAdminRole",
							"type": "bytes32"
						}
					],
					"name": "RoleAdminChanged",
					"type": "event"
				},
				{
					"anonymous": false,
					"inputs": [
						{
							"indexed": true,
							"internalType": "bytes32",
							"name": "role",
							"type": "bytes32"
						},
						{
							"indexed": true,
							"internalType": "address",
							"name": "account",
							"type": "address"
						},
						{
							"indexed": true,
							"internalType": "address",
							"name": "sender",
							"type": "address"
						}
					],
					"name": "RoleGranted",
					"type": "event"
				},
				{
					"anonymous": false,
					"inputs": [
						{
							"indexed": true,
							"internalType": "bytes32",
							"name": "role",
							"type": "bytes32"
						},
						{
							"indexed": true,
							"internalType": "address",
							"name": "account",
							"type": "address"
						},
						{
							"indexed": true,
							"internalType": "address",
							"name": "sender",
							"type": "address"
						}
					],
					"name": "RoleRevoked",
					"type": "event"
				},
				{
					"inputs": [],
					"name": "ADMIN_ROLE",
					"outputs": [
						{
							"internalType": "bytes32",
							"name": "",
							"type": "bytes32"
						}
					],
					"stateMutability": "view",
					"type": "function"
				},
				{
					"inputs": [],
					"name": "AUDITOR_ROLE",
					"outputs": [
						{
							"internalType": "bytes32",
							"name": "",
							"type": "bytes32"
						}
					],
					"stateMutability": "view",
					"type": "function"
				},
				{
					"inputs": [],
					"name": "DEFAULT_ADMIN_ROLE",
					"outputs": [
						{
							"internalType": "bytes32",
							"name": "",
							"type": "bytes32"
						}
					],
					"stateMutability": "view",
					"type": "function"
				},
				{
					"inputs": [
						{
							"internalType": "address",
							"name": "auditor",
							"type": "address"
						}
					],
					"name": "addAuditor",
					"outputs": [],
					"stateMutability": "nonpayable",
					"type": "function"
				},
				{
					"inputs": [
						{
							"internalType": "uint256",
							"name": "",
							"type": "uint256"
						}
					],
					"name": "audits",
					"outputs": [
						{
							"internalType": "uint256",
							"name": "id",
							"type": "uint256"
						},
						{
							"internalType": "address",
							"name": "auditor",
							"type": "address"
						},
						{
							"internalType": "string",
							"name": "company",
							"type": "string"
						},
						{
							"internalType": "string",
							"name": "project",
							"type": "string"
						},
						{
							"internalType": "uint256",
							"name": "startDate",
							"type": "uint256"
						},
						{
							"internalType": "uint256",
							"name": "endDate",
							"type": "uint256"
						},
						{
							"internalType": "string",
							"name": "githubCommit",
							"type": "string"
						},
						{
							"internalType": "uint256",
							"name": "highSeverity",
							"type": "uint256"
						},
						{
							"internalType": "uint256",
							"name": "mediumSeverity",
							"type": "uint256"
						},
						{
							"internalType": "uint256",
							"name": "lowSeverity",
							"type": "uint256"
						},
						{
							"internalType": "bool",
							"name": "certified",
							"type": "bool"
						}
					],
					"stateMutability": "view",
					"type": "function"
				},
				{
					"inputs": [
						{
							"internalType": "uint256",
							"name": "id",
							"type": "uint256"
						},
						{
							"internalType": "uint256",
							"name": "endDate",
							"type": "uint256"
						},
						{
							"internalType": "uint256",
							"name": "highSeverity",
							"type": "uint256"
						},
						{
							"internalType": "uint256",
							"name": "mediumSeverity",
							"type": "uint256"
						},
						{
							"internalType": "uint256",
							"name": "lowSeverity",
							"type": "uint256"
						}
					],
					"name": "certifyAudit",
					"outputs": [],
					"stateMutability": "nonpayable",
					"type": "function"
				},
				{
					"inputs": [
						{
							"internalType": "uint256",
							"name": "id",
							"type": "uint256"
						}
					],
					"name": "getAudit",
					"outputs": [
						{
							"internalType": "uint256",
							"name": "",
							"type": "uint256"
						},
						{
							"internalType": "address",
							"name": "",
							"type": "address"
						},
						{
							"internalType": "string",
							"name": "",
							"type": "string"
						},
						{
							"internalType": "string",
							"name": "",
							"type": "string"
						},
						{
							"internalType": "uint256",
							"name": "",
							"type": "uint256"
						},
						{
							"internalType": "uint256",
							"name": "",
							"type": "uint256"
						},
						{
							"internalType": "string",
							"name": "",
							"type": "string"
						},
						{
							"internalType": "uint256",
							"name": "",
							"type": "uint256"
						},
						{
							"internalType": "uint256",
							"name": "",
							"type": "uint256"
						},
						{
							"internalType": "uint256",
							"name": "",
							"type": "uint256"
						},
						{
							"internalType": "bool",
							"name": "",
							"type": "bool"
						}
					],
					"stateMutability": "view",
					"type": "function"
				},
				{
					"inputs": [
						{
							"internalType": "bytes32",
							"name": "role",
							"type": "bytes32"
						}
					],
					"name": "getRoleAdmin",
					"outputs": [
						{
							"internalType": "bytes32",
							"name": "",
							"type": "bytes32"
						}
					],
					"stateMutability": "view",
					"type": "function"
				},
				{
					"inputs": [
						{
							"internalType": "bytes32",
							"name": "role",
							"type": "bytes32"
						},
						{
							"internalType": "address",
							"name": "account",
							"type": "address"
						}
					],
					"name": "grantRole",
					"outputs": [],
					"stateMutability": "nonpayable",
					"type": "function"
				},
				{
					"inputs": [
						{
							"internalType": "bytes32",
							"name": "role",
							"type": "bytes32"
						},
						{
							"internalType": "address",
							"name": "account",
							"type": "address"
						}
					],
					"name": "hasRole",
					"outputs": [
						{
							"internalType": "bool",
							"name": "",
							"type": "bool"
						}
					],
					"stateMutability": "view",
					"type": "function"
				},
				{
					"inputs": [],
					"name": "nextId",
					"outputs": [
						{
							"internalType": "uint256",
							"name": "",
							"type": "uint256"
						}
					],
					"stateMutability": "view",
					"type": "function"
				},
				{
					"inputs": [],
					"name": "owner",
					"outputs": [
						{
							"internalType": "address",
							"name": "",
							"type": "address"
						}
					],
					"stateMutability": "view",
					"type": "function"
				},
				{
					"inputs": [
						{
							"internalType": "string",
							"name": "company",
							"type": "string"
						},
						{
							"internalType": "string",
							"name": "project",
							"type": "string"
						},
						{
							"internalType": "uint256",
							"name": "startDate",
							"type": "uint256"
						},
						{
							"internalType": "uint256",
							"name": "endDate",
							"type": "uint256"
						},
						{
							"internalType": "string",
							"name": "githubCommit",
							"type": "string"
						},
						{
							"internalType": "uint256",
							"name": "highSeverity",
							"type": "uint256"
						},
						{
							"internalType": "uint256",
							"name": "mediumSeverity",
							"type": "uint256"
						},
						{
							"internalType": "uint256",
							"name": "lowSeverity",
							"type": "uint256"
						}
					],
					"name": "recordAudit",
					"outputs": [],
					"stateMutability": "nonpayable",
					"type": "function"
				},
				{
					"inputs": [],
					"name": "renounceOwnership",
					"outputs": [],
					"stateMutability": "nonpayable",
					"type": "function"
				},
				{
					"inputs": [
						{
							"internalType": "bytes32",
							"name": "role",
							"type": "bytes32"
						},
						{
							"internalType": "address",
							"name": "callerConfirmation",
							"type": "address"
						}
					],
					"name": "renounceRole",
					"outputs": [],
					"stateMutability": "nonpayable",
					"type": "function"
				},
				{
					"inputs": [
						{
							"internalType": "bytes32",
							"name": "role",
							"type": "bytes32"
						},
						{
							"internalType": "address",
							"name": "account",
							"type": "address"
						}
					],
					"name": "revokeRole",
					"outputs": [],
					"stateMutability": "nonpayable",
					"type": "function"
				},
				{
					"inputs": [
						{
							"internalType": "bytes4",
							"name": "interfaceId",
							"type": "bytes4"
						}
					],
					"name": "supportsInterface",
					"outputs": [
						{
							"internalType": "bool",
							"name": "",
							"type": "bool"
						}
					],
					"stateMutability": "view",
					"type": "function"
				},
				{
					"inputs": [
						{
							"internalType": "address",
							"name": "newOwner",
							"type": "address"
						}
					],
					"name": "transferOwnership",
					"outputs": [],
					"stateMutability": "nonpayable",
					"type": "function"
				}
			],
			"devdoc": {
				"errors": {
					"AccessControlBadConfirmation()": [
						{
							"details": "The caller of a function is not the expected one. NOTE: Don't confuse with {AccessControlUnauthorizedAccount}."
						}
					],
					"AccessControlUnauthorizedAccount(address,bytes32)": [
						{
							"details": "The `account` is missing a role."
						}
					],
					"OwnableInvalidOwner(address)": [
						{
							"details": "The owner is not a valid owner account. (eg. `address(0)`)"
						}
					],
					"OwnableUnauthorizedAccount(address)": [
						{
							"details": "The caller account is not authorized to perform an operation."
						}
					]
				},
				"events": {
					"RoleAdminChanged(bytes32,bytes32,bytes32)": {
						"details": "Emitted when `newAdminRole` is set as ``role``'s admin role, replacing `previousAdminRole` `DEFAULT_ADMIN_ROLE` is the starting admin for all roles, despite {RoleAdminChanged} not being emitted signaling this."
					},
					"RoleGranted(bytes32,address,address)": {
						"details": "Emitted when `account` is granted `role`. `sender` is the account that originated the contract call, an admin role bearer except when using {AccessControl-_setupRole}."
					},
					"RoleRevoked(bytes32,address,address)": {
						"details": "Emitted when `account` is revoked `role`. `sender` is the account that originated the contract call:   - if using `revokeRole`, it is the admin role bearer   - if using `renounceRole`, it is the role bearer (i.e. `account`)"
					}
				},
				"kind": "dev",
				"methods": {
					"getRoleAdmin(bytes32)": {
						"details": "Returns the admin role that controls `role`. See {grantRole} and {revokeRole}. To change a role's admin, use {_setRoleAdmin}."
					},
					"grantRole(bytes32,address)": {
						"details": "Grants `role` to `account`. If `account` had not been already granted `role`, emits a {RoleGranted} event. Requirements: - the caller must have ``role``'s admin role. May emit a {RoleGranted} event."
					},
					"hasRole(bytes32,address)": {
						"details": "Returns `true` if `account` has been granted `role`."
					},
					"owner()": {
						"details": "Returns the address of the current owner."
					},
					"renounceOwnership()": {
						"details": "Leaves the contract without owner. It will not be possible to call `onlyOwner` functions. Can only be called by the current owner. NOTE: Renouncing ownership will leave the contract without an owner, thereby disabling any functionality that is only available to the owner."
					},
					"renounceRole(bytes32,address)": {
						"details": "Revokes `role` from the calling account. Roles are often managed via {grantRole} and {revokeRole}: this function's purpose is to provide a mechanism for accounts to lose their privileges if they are compromised (such as when a trusted device is misplaced). If the calling account had been revoked `role`, emits a {RoleRevoked} event. Requirements: - the caller must be `callerConfirmation`. May emit a {RoleRevoked} event."
					},
					"revokeRole(bytes32,address)": {
						"details": "Revokes `role` from `account`. If `account` had been granted `role`, emits a {RoleRevoked} event. Requirements: - the caller must have ``role``'s admin role. May emit a {RoleRevoked} event."
					},
					"supportsInterface(bytes4)": {
						"details": "See {IERC165-supportsInterface}."
					},
					"transferOwnership(address)": {
						"details": "Transfers ownership of the contract to a new account (`newOwner`). Can only be called by the current owner."
					}
				},
				"version": 1
			},
			"evm": {
				"assembly": "    /* \"contracts/AuditRegistry.sol\":170:2743  contract AuditRegistry is AccessControl, Ownable {... */\n  mstore(0x40, 0x80)\n    /* \"contracts/AuditRegistry.sol\":746:747  1 */\n  0x01\n    /* \"contracts/AuditRegistry.sol\":722:747  uint256 public nextId = 1 */\n  0x03\n  sstore\n    /* \"contracts/AuditRegistry.sol\":754:795  constructor() Ownable(msg.sender) {... */\n  callvalue\n  dup1\n  iszero\n  tag_1\n  jumpi\n  0x00\n  dup1\n  revert\ntag_1:\n  pop\n    /* \"contracts/AuditRegistry.sol\":776:786  msg.sender */\n  caller\n    /* \"@openzeppelin/contracts/access/Ownable.sol\":1297:1298  0 */\n  0x00\n    /* \"@openzeppelin/contracts/access/Ownable.sol\":1273:1299  initialOwner == address(0) */\n  0xffffffffffffffffffffffffffffffffffffffff\n  and\n    /* \"@openzeppelin/contracts/access/Ownable.sol\":1273:1285  initialOwner */\n  dup2\n    /* \"@openzeppelin/contracts/access/Ownable.sol\":1273:1299  initialOwner == address(0) */\n  0xffffffffffffffffffffffffffffffffffffffff\n  and\n  sub\n    /* \"@openzeppelin/contracts/access/Ownable.sol\":1269:1364  if (initialOwner == address(0)) {... */\n  tag_5\n  jumpi\n    /* \"@openzeppelin/contracts/access/Ownable.sol\":1350:1351  0 */\n  0x00\n    /* \"@openzeppelin/contracts/access/Ownable.sol\":1322:1353  OwnableInvalidOwner(address(0)) */\n  mload(0x40)\n  0x1e4fbdf700000000000000000000000000000000000000000000000000000000\n  dup2\n  mstore\n  0x04\n  add\n  tag_6\n  swap2\n  swap1\n  tag_7\n  jump\t// in\ntag_6:\n  mload(0x40)\n  dup1\n  swap2\n  sub\n  swap1\n  revert\n    /* \"@openzeppelin/contracts/access/Ownable.sol\":1269:1364  if (initialOwner == address(0)) {... */\ntag_5:\n    /* \"@openzeppelin/contracts/access/Ownable.sol\":1373:1405  _transferOwnership(initialOwner) */\n  tag_8\n    /* \"@openzeppelin/contracts/access/Ownable.sol\":1392:1404  initialOwner */\n  dup2\n    /* \"@openzeppelin/contracts/access/Ownable.sol\":1373:1391  _transferOwnership */\n  shl(0x20, tag_9)\n    /* \"@openzeppelin/contracts/access/Ownable.sol\":1373:1405  _transferOwnership(initialOwner) */\n  0x20\n  shr\n  jump\t// in\ntag_8:\n    /* \"@openzeppelin/contracts/access/Ownable.sol\":1225:1412  constructor(address initialOwner) {... */\n  pop\n    /* \"contracts/AuditRegistry.sol\":170:2743  contract AuditRegistry is AccessControl, Ownable {... */\n  jump(tag_11)\n    /* \"@openzeppelin/contracts/access/Ownable.sol\":2912:3099  function _transferOwnership(address newOwner) internal virtual {... */\ntag_9:\n    /* \"@openzeppelin/contracts/access/Ownable.sol\":2985:3001  address oldOwner */\n  0x00\n    /* \"@openzeppelin/contracts/access/Ownable.sol\":3004:3010  _owner */\n  0x01\n  0x00\n  swap1\n  sload\n  swap1\n  0x0100\n  exp\n  swap1\n  div\n  0xffffffffffffffffffffffffffffffffffffffff\n  and\n    /* \"@openzeppelin/contracts/access/Ownable.sol\":2985:3010  address oldOwner = _owner */\n  swap1\n  pop\n    /* \"@openzeppelin/contracts/access/Ownable.sol\":3029:3037  newOwner */\n  dup2\n    /* \"@openzeppelin/contracts/access/Ownable.sol\":3020:3026  _owner */\n  0x01\n  0x00\n    /* \"@openzeppelin/contracts/access/Ownable.sol\":3020:3037  _owner = newOwner */\n  0x0100\n  exp\n  dup2\n  sload\n  dup2\n  0xffffffffffffffffffffffffffffffffffffffff\n  mul\n  not\n  and\n  swap1\n  dup4\n  0xffffffffffffffffffffffffffffffffffffffff\n  and\n  mul\n  or\n  swap1\n  sstore\n  pop\n    /* \"@openzeppelin/contracts/access/Ownable.sol\":3083:3091  newOwner */\n  dup2\n    /* \"@openzeppelin/contracts/access/Ownable.sol\":3052:3092  OwnershipTransferred(oldOwner, newOwner) */\n  0xffffffffffffffffffffffffffffffffffffffff\n  and\n    /* \"@openzeppelin/contracts/access/Ownable.sol\":3073:3081  oldOwner */\n  dup2\n    /* \"@openzeppelin/contracts/access/Ownable.sol\":3052:3092  OwnershipTransferred(oldOwner, newOwner) */\n  0xffffffffffffffffffffffffffffffffffffffff\n  and\n  0x8be0079c531659141344cd1fd0a4f28419497f9722a3daafe3b4186f6b6457e0\n  mload(0x40)\n  mload(0x40)\n  dup1\n  swap2\n  sub\n  swap1\n  log3\n    /* \"@openzeppelin/contracts/access/Ownable.sol\":2975:3099  {... */\n  pop\n    /* \"@openzeppelin/contracts/access/Ownable.sol\":2912:3099  function _transferOwnership(address newOwner) internal virtual {... */\n  pop\n  jump\t// out\n    /* \"#utility.yul\":7:133   */\ntag_13:\n    /* \"#utility.yul\":44:51   */\n  0x00\n    /* \"#utility.yul\":84:126   */\n  0xffffffffffffffffffffffffffffffffffffffff\n    /* \"#utility.yul\":77:82   */\n  dup3\n    /* \"#utility.yul\":73:127   */\n  and\n    /* \"#utility.yul\":62:127   */\n  swap1\n  pop\n    /* \"#utility.yul\":7:133   */\n  swap2\n  swap1\n  pop\n  jump\t// out\n    /* \"#utility.yul\":139:235   */\ntag_14:\n    /* \"#utility.yul\":176:183   */\n  0x00\n    /* \"#utility.yul\":205:229   */\n  tag_19\n    /* \"#utility.yul\":223:228   */\n  dup3\n    /* \"#utility.yul\":205:229   */\n  tag_13\n  jump\t// in\ntag_19:\n    /* \"#utility.yul\":194:229   */\n  swap1\n  pop\n    /* \"#utility.yul\":139:235   */\n  swap2\n  swap1\n  pop\n  jump\t// out\n    /* \"#utility.yul\":241:359   */\ntag_15:\n    /* \"#utility.yul\":328:352   */\n  tag_21\n    /* \"#utility.yul\":346:351   */\n  dup2\n    /* \"#utility.yul\":328:352   */\n  tag_14\n  jump\t// in\ntag_21:\n    /* \"#utility.yul\":323:326   */\n  dup3\n    /* \"#utility.yul\":316:353   */\n  mstore\n    /* \"#utility.yul\":241:359   */\n  pop\n  pop\n  jump\t// out\n    /* \"#utility.yul\":365:587   */\ntag_7:\n    /* \"#utility.yul\":458:462   */\n  0x00\n    /* \"#utility.yul\":496:498   */\n  0x20\n    /* \"#utility.yul\":485:494   */\n  dup3\n    /* \"#utility.yul\":481:499   */\n  add\n    /* \"#utility.yul\":473:499   */\n  swap1\n  pop\n    /* \"#utility.yul\":509:580   */\n  tag_23\n    /* \"#utility.yul\":577:578   */\n  0x00\n    /* \"#utility.yul\":566:575   */\n  dup4\n    /* \"#utility.yul\":562:579   */\n  add\n    /* \"#utility.yul\":553:559   */\n  dup5\n    /* \"#utility.yul\":509:580   */\n  tag_15\n  jump\t// in\ntag_23:\n    /* \"#utility.yul\":365:587   */\n  swap3\n  swap2\n  pop\n  pop\n  jump\t// out\n    /* \"contracts/AuditRegistry.sol\":170:2743  contract AuditRegistry is AccessControl, Ownable {... */\ntag_11:\n  dataSize(sub_0)\n  dup1\n  dataOffset(sub_0)\n  0x00\n  codecopy\n  0x00\n  return\nstop\n\nsub_0: assembly {\n        /* \"contracts/AuditRegistry.sol\":170:2743  contract AuditRegistry is AccessControl, Ownable {... */\n      mstore(0x40, 0x80)\n      callvalue\n      dup1\n      iszero\n      tag_1\n      jumpi\n      0x00\n      dup1\n      revert\n    tag_1:\n      pop\n      jumpi(tag_2, lt(calldatasize, 0x04))\n      shr(0xe0, calldataload(0x00))\n      dup1\n      0x715018a6\n      gt\n      tag_21\n      jumpi\n      dup1\n      0xa217fddf\n      gt\n      tag_22\n      jumpi\n      dup1\n      0xa217fddf\n      eq\n      tag_16\n      jumpi\n      dup1\n      0xb60e73db\n      eq\n      tag_17\n      jumpi\n      dup1\n      0xd547741f\n      eq\n      tag_18\n      jumpi\n      dup1\n      0xe429cef1\n      eq\n      tag_19\n      jumpi\n      dup1\n      0xf2fde38b\n      eq\n      tag_20\n      jumpi\n      jump(tag_2)\n    tag_22:\n      dup1\n      0x715018a6\n      eq\n      tag_12\n      jumpi\n      dup1\n      0x75b238fc\n      eq\n      tag_13\n      jumpi\n      dup1\n      0x8da5cb5b\n      eq\n      tag_14\n      jumpi\n      dup1\n      0x91d14854\n      eq\n      tag_15\n      jumpi\n      jump(tag_2)\n    tag_21:\n      dup1\n      0x2f2ff15d\n      gt\n      tag_23\n      jumpi\n      dup1\n      0x2f2ff15d\n      eq\n      tag_7\n      jumpi\n      dup1\n      0x36568abe\n      eq\n      tag_8\n      jumpi\n      dup1\n      0x61b8ce8c\n      eq\n      tag_9\n      jumpi\n      dup1\n      0x666fb488\n      eq\n      tag_10\n      jumpi\n      dup1\n      0x6e1d616e\n      eq\n      tag_11\n      jumpi\n      jump(tag_2)\n    tag_23:\n      dup1\n      0x01ffc9a7\n      eq\n      tag_3\n      jumpi\n      dup1\n      0x179c06fa\n      eq\n      tag_4\n      jumpi\n      dup1\n      0x17bf37a3\n      eq\n      tag_5\n      jumpi\n      dup1\n      0x248a9ca3\n      eq\n      tag_6\n      jumpi\n    tag_2:\n      0x00\n      dup1\n      revert\n        /* \"@openzeppelin/contracts/access/AccessControl.sol\":2565:2767  function supportsInterface(bytes4 interfaceId) public view virtual override returns (bool) {... */\n    tag_3:\n      tag_24\n      0x04\n      dup1\n      calldatasize\n      sub\n      dup2\n      add\n      swap1\n      tag_25\n      swap2\n      swap1\n      tag_26\n      jump\t// in\n    tag_25:\n      tag_27\n      jump\t// in\n    tag_24:\n      mload(0x40)\n      tag_28\n      swap2\n      swap1\n      tag_29\n      jump\t// in\n    tag_28:\n      mload(0x40)\n      dup1\n      swap2\n      sub\n      swap1\n      return\n        /* \"contracts/AuditRegistry.sol\":1657:2171  function certifyAudit(... */\n    tag_4:\n      tag_30\n      0x04\n      dup1\n      calldatasize\n      sub\n      dup2\n      add\n      swap1\n      tag_31\n      swap2\n      swap1\n      tag_32\n      jump\t// in\n    tag_31:\n      tag_33\n      jump\t// in\n    tag_30:\n      stop\n        /* \"contracts/AuditRegistry.sol\":2177:2741  function getAudit(uint256 id) public view returns (... */\n    tag_5:\n      tag_34\n      0x04\n      dup1\n      calldatasize\n      sub\n      dup2\n      add\n      swap1\n      tag_35\n      swap2\n      swap1\n      tag_36\n      jump\t// in\n    tag_35:\n      tag_37\n      jump\t// in\n    tag_34:\n      mload(0x40)\n      tag_38\n      swap12\n      swap11\n      swap10\n      swap9\n      swap8\n      swap7\n      swap6\n      swap5\n      swap4\n      swap3\n      swap2\n      swap1\n      tag_39\n      jump\t// in\n    tag_38:\n      mload(0x40)\n      dup1\n      swap2\n      sub\n      swap1\n      return\n        /* \"@openzeppelin/contracts/access/AccessControl.sol\":3810:3930  function getRoleAdmin(bytes32 role) public view virtual returns (bytes32) {... */\n    tag_6:\n      tag_40\n      0x04\n      dup1\n      calldatasize\n      sub\n      dup2\n      add\n      swap1\n      tag_41\n      swap2\n      swap1\n      tag_42\n      jump\t// in\n    tag_41:\n      tag_43\n      jump\t// in\n    tag_40:\n      mload(0x40)\n      tag_44\n      swap2\n      swap1\n      tag_45\n      jump\t// in\n    tag_44:\n      mload(0x40)\n      dup1\n      swap2\n      sub\n      swap1\n      return\n        /* \"@openzeppelin/contracts/access/AccessControl.sol\":4226:4362  function grantRole(bytes32 role, address account) public virtual onlyRole(getRoleAdmin(role)) {... */\n    tag_7:\n      tag_46\n      0x04\n      dup1\n      calldatasize\n      sub\n      dup2\n      add\n      swap1\n      tag_47\n      swap2\n      swap1\n      tag_48\n      jump\t// in\n    tag_47:\n      tag_49\n      jump\t// in\n    tag_46:\n      stop\n        /* \"@openzeppelin/contracts/access/AccessControl.sol\":5328:5573  function renounceRole(bytes32 role, address callerConfirmation) public virtual {... */\n    tag_8:\n      tag_50\n      0x04\n      dup1\n      calldatasize\n      sub\n      dup2\n      add\n      swap1\n      tag_51\n      swap2\n      swap1\n      tag_48\n      jump\t// in\n    tag_51:\n      tag_52\n      jump\t// in\n    tag_50:\n      stop\n        /* \"contracts/AuditRegistry.sol\":722:747  uint256 public nextId = 1 */\n    tag_9:\n      tag_53\n      tag_54\n      jump\t// in\n    tag_53:\n      mload(0x40)\n      tag_55\n      swap2\n      swap1\n      tag_56\n      jump\t// in\n    tag_55:\n      mload(0x40)\n      dup1\n      swap2\n      sub\n      swap1\n      return\n        /* \"contracts/AuditRegistry.sol\":910:1651  function recordAudit(... */\n    tag_10:\n      tag_57\n      0x04\n      dup1\n      calldatasize\n      sub\n      dup2\n      add\n      swap1\n      tag_58\n      swap2\n      swap1\n      tag_59\n      jump\t// in\n    tag_58:\n      tag_60\n      jump\t// in\n    tag_57:\n      stop\n        /* \"contracts/AuditRegistry.sol\":225:289  bytes32 public constant AUDITOR_ROLE = keccak256(\"AUDITOR_ROLE\") */\n    tag_11:\n      tag_61\n      tag_62\n      jump\t// in\n    tag_61:\n      mload(0x40)\n      tag_63\n      swap2\n      swap1\n      tag_45\n      jump\t// in\n    tag_63:\n      mload(0x40)\n      dup1\n      swap2\n      sub\n      swap1\n      return\n        /* \"@openzeppelin/contracts/access/Ownable.sol\":2293:2394  function renounceOwnership() public virtual onlyOwner {... */\n    tag_12:\n      tag_64\n      tag_65\n      jump\t// in\n    tag_64:\n      stop\n        /* \"contracts/AuditRegistry.sol\":295:355  bytes32 public constant ADMIN_ROLE = keccak256(\"ADMIN_ROLE\") */\n    tag_13:\n      tag_66\n      tag_67\n      jump\t// in\n    tag_66:\n      mload(0x40)\n      tag_68\n      swap2\n      swap1\n      tag_45\n      jump\t// in\n    tag_68:\n      mload(0x40)\n      dup1\n      swap2\n      sub\n      swap1\n      return\n        /* \"@openzeppelin/contracts/access/Ownable.sol\":1638:1723  function owner() public view virtual returns (address) {... */\n    tag_14:\n      tag_69\n      tag_70\n      jump\t// in\n    tag_69:\n      mload(0x40)\n      tag_71\n      swap2\n      swap1\n      tag_72\n      jump\t// in\n    tag_71:\n      mload(0x40)\n      dup1\n      swap2\n      sub\n      swap1\n      return\n        /* \"@openzeppelin/contracts/access/AccessControl.sol\":2854:2990  function hasRole(bytes32 role, address account) public view virtual returns (bool) {... */\n    tag_15:\n      tag_73\n      0x04\n      dup1\n      calldatasize\n      sub\n      dup2\n      add\n      swap1\n      tag_74\n      swap2\n      swap1\n      tag_48\n      jump\t// in\n    tag_74:\n      tag_75\n      jump\t// in\n    tag_73:\n      mload(0x40)\n      tag_76\n      swap2\n      swap1\n      tag_29\n      jump\t// in\n    tag_76:\n      mload(0x40)\n      dup1\n      swap2\n      sub\n      swap1\n      return\n        /* \"@openzeppelin/contracts/access/AccessControl.sol\":2187:2236  bytes32 public constant DEFAULT_ADMIN_ROLE = 0x00 */\n    tag_16:\n      tag_77\n      tag_78\n      jump\t// in\n    tag_77:\n      mload(0x40)\n      tag_79\n      swap2\n      swap1\n      tag_45\n      jump\t// in\n    tag_79:\n      mload(0x40)\n      dup1\n      swap2\n      sub\n      swap1\n      return\n        /* \"contracts/AuditRegistry.sol\":677:716  mapping(uint256 => Audit) public audits */\n    tag_17:\n      tag_80\n      0x04\n      dup1\n      calldatasize\n      sub\n      dup2\n      add\n      swap1\n      tag_81\n      swap2\n      swap1\n      tag_36\n      jump\t// in\n    tag_81:\n      tag_82\n      jump\t// in\n    tag_80:\n      mload(0x40)\n      tag_83\n      swap12\n      swap11\n      swap10\n      swap9\n      swap8\n      swap7\n      swap6\n      swap5\n      swap4\n      swap3\n      swap2\n      swap1\n      tag_39\n      jump\t// in\n    tag_83:\n      mload(0x40)\n      dup1\n      swap2\n      sub\n      swap1\n      return\n        /* \"@openzeppelin/contracts/access/AccessControl.sol\":4642:4780  function revokeRole(bytes32 role, address account) public virtual onlyRole(getRoleAdmin(role)) {... */\n    tag_18:\n      tag_84\n      0x04\n      dup1\n      calldatasize\n      sub\n      dup2\n      add\n      swap1\n      tag_85\n      swap2\n      swap1\n      tag_48\n      jump\t// in\n    tag_85:\n      tag_86\n      jump\t// in\n    tag_84:\n      stop\n        /* \"contracts/AuditRegistry.sol\":801:904  function addAuditor(address auditor) public onlyOwner {... */\n    tag_19:\n      tag_87\n      0x04\n      dup1\n      calldatasize\n      sub\n      dup2\n      add\n      swap1\n      tag_88\n      swap2\n      swap1\n      tag_89\n      jump\t// in\n    tag_88:\n      tag_90\n      jump\t// in\n    tag_87:\n      stop\n        /* \"@openzeppelin/contracts/access/Ownable.sol\":2543:2758  function transferOwnership(address newOwner) public virtual onlyOwner {... */\n    tag_20:\n      tag_91\n      0x04\n      dup1\n      calldatasize\n      sub\n      dup2\n      add\n      swap1\n      tag_92\n      swap2\n      swap1\n      tag_89\n      jump\t// in\n    tag_92:\n      tag_93\n      jump\t// in\n    tag_91:\n      stop\n        /* \"@openzeppelin/contracts/access/AccessControl.sol\":2565:2767  function supportsInterface(bytes4 interfaceId) public view virtual override returns (bool) {... */\n    tag_27:\n        /* \"@openzeppelin/contracts/access/AccessControl.sol\":2650:2654  bool */\n      0x00\n        /* \"@openzeppelin/contracts/access/AccessControl.sol\":2688:2720  type(IAccessControl).interfaceId */\n      0x7965db0b00000000000000000000000000000000000000000000000000000000\n        /* \"@openzeppelin/contracts/access/AccessControl.sol\":2673:2720  interfaceId == type(IAccessControl).interfaceId */\n      not(0xffffffffffffffffffffffffffffffffffffffffffffffffffffffff)\n      and\n        /* \"@openzeppelin/contracts/access/AccessControl.sol\":2673:2684  interfaceId */\n      dup3\n        /* \"@openzeppelin/contracts/access/AccessControl.sol\":2673:2720  interfaceId == type(IAccessControl).interfaceId */\n      not(0xffffffffffffffffffffffffffffffffffffffffffffffffffffffff)\n      and\n      eq\n        /* \"@openzeppelin/contracts/access/AccessControl.sol\":2673:2760  interfaceId == type(IAccessControl).interfaceId || super.supportsInterface(interfaceId) */\n      dup1\n      tag_95\n      jumpi\n      pop\n        /* \"@openzeppelin/contracts/access/AccessControl.sol\":2724:2760  super.supportsInterface(interfaceId) */\n      tag_96\n        /* \"@openzeppelin/contracts/access/AccessControl.sol\":2748:2759  interfaceId */\n      dup3\n        /* \"@openzeppelin/contracts/access/AccessControl.sol\":2724:2747  super.supportsInterface */\n      tag_97\n        /* \"@openzeppelin/contracts/access/AccessControl.sol\":2724:2760  super.supportsInterface(interfaceId) */\n      jump\t// in\n    tag_96:\n        /* \"@openzeppelin/contracts/access/AccessControl.sol\":2673:2760  interfaceId == type(IAccessControl).interfaceId || super.supportsInterface(interfaceId) */\n    tag_95:\n        /* \"@openzeppelin/contracts/access/AccessControl.sol\":2666:2760  return interfaceId == type(IAccessControl).interfaceId || super.supportsInterface(interfaceId) */\n      swap1\n      pop\n        /* \"@openzeppelin/contracts/access/AccessControl.sol\":2565:2767  function supportsInterface(bytes4 interfaceId) public view virtual override returns (bool) {... */\n      swap2\n      swap1\n      pop\n      jump\t// out\n        /* \"contracts/AuditRegistry.sol\":1657:2171  function certifyAudit(... */\n    tag_33:\n        /* \"contracts/AuditRegistry.sol\":1850:1883  hasRole(AUDITOR_ROLE, msg.sender) */\n      tag_99\n        /* \"contracts/AuditRegistry.sol\":264:289  keccak256(\"AUDITOR_ROLE\") */\n      0x59a1c48e5837ad7a7f3dcedcbe129bf3249ec4fbf651fd4f5e2600ead39fe2f5\n        /* \"contracts/AuditRegistry.sol\":1872:1882  msg.sender */\n      caller\n        /* \"contracts/AuditRegistry.sol\":1850:1857  hasRole */\n      tag_75\n        /* \"contracts/AuditRegistry.sol\":1850:1883  hasRole(AUDITOR_ROLE, msg.sender) */\n      jump\t// in\n    tag_99:\n        /* \"contracts/AuditRegistry.sol\":1842:1926  require(hasRole(AUDITOR_ROLE, msg.sender), \"Only the auditor can certify the audit\") */\n      tag_100\n      jumpi\n      mload(0x40)\n      0x08c379a000000000000000000000000000000000000000000000000000000000\n      dup2\n      mstore\n      0x04\n      add\n      tag_101\n      swap1\n      tag_102\n      jump\t// in\n    tag_101:\n      mload(0x40)\n      dup1\n      swap2\n      sub\n      swap1\n      revert\n    tag_100:\n        /* \"contracts/AuditRegistry.sol\":1936:1955  Audit storage audit */\n      0x00\n        /* \"contracts/AuditRegistry.sol\":1958:1964  audits */\n      0x02\n        /* \"contracts/AuditRegistry.sol\":1958:1968  audits[id] */\n      0x00\n        /* \"contracts/AuditRegistry.sol\":1965:1967  id */\n      dup8\n        /* \"contracts/AuditRegistry.sol\":1958:1968  audits[id] */\n      dup2\n      mstore\n      0x20\n      add\n      swap1\n      dup2\n      mstore\n      0x20\n      add\n      0x00\n      keccak256\n        /* \"contracts/AuditRegistry.sol\":1936:1968  Audit storage audit = audits[id] */\n      swap1\n      pop\n        /* \"contracts/AuditRegistry.sol\":1994:2001  endDate */\n      dup5\n        /* \"contracts/AuditRegistry.sol\":1978:1983  audit */\n      dup2\n        /* \"contracts/AuditRegistry.sol\":1978:1991  audit.endDate */\n      0x05\n      add\n        /* \"contracts/AuditRegistry.sol\":1978:2001  audit.endDate = endDate */\n      dup2\n      swap1\n      sstore\n      pop\n        /* \"contracts/AuditRegistry.sol\":2032:2044  highSeverity */\n      dup4\n        /* \"contracts/AuditRegistry.sol\":2011:2016  audit */\n      dup2\n        /* \"contracts/AuditRegistry.sol\":2011:2029  audit.highSeverity */\n      0x07\n      add\n        /* \"contracts/AuditRegistry.sol\":2011:2044  audit.highSeverity = highSeverity */\n      dup2\n      swap1\n      sstore\n      pop\n        /* \"contracts/AuditRegistry.sol\":2077:2091  mediumSeverity */\n      dup3\n        /* \"contracts/AuditRegistry.sol\":2054:2059  audit */\n      dup2\n        /* \"contracts/AuditRegistry.sol\":2054:2074  audit.mediumSeverity */\n      0x08\n      add\n        /* \"contracts/AuditRegistry.sol\":2054:2091  audit.mediumSeverity = mediumSeverity */\n      dup2\n      swap1\n      sstore\n      pop\n        /* \"contracts/AuditRegistry.sol\":2121:2132  lowSeverity */\n      dup2\n        /* \"contracts/AuditRegistry.sol\":2101:2106  audit */\n      dup2\n        /* \"contracts/AuditRegistry.sol\":2101:2118  audit.lowSeverity */\n      0x09\n      add\n        /* \"contracts/AuditRegistry.sol\":2101:2132  audit.lowSeverity = lowSeverity */\n      dup2\n      swap1\n      sstore\n      pop\n        /* \"contracts/AuditRegistry.sol\":2160:2164  true */\n      0x01\n        /* \"contracts/AuditRegistry.sol\":2142:2147  audit */\n      dup2\n        /* \"contracts/AuditRegistry.sol\":2142:2157  audit.certified */\n      0x0a\n      add\n      0x00\n        /* \"contracts/AuditRegistry.sol\":2142:2164  audit.certified = true */\n      0x0100\n      exp\n      dup2\n      sload\n      dup2\n      0xff\n      mul\n      not\n      and\n      swap1\n      dup4\n      iszero\n      iszero\n      mul\n      or\n      swap1\n      sstore\n      pop\n        /* \"contracts/AuditRegistry.sol\":1832:2171  {... */\n      pop\n        /* \"contracts/AuditRegistry.sol\":1657:2171  function certifyAudit(... */\n      pop\n      pop\n      pop\n      pop\n      pop\n      jump\t// out\n        /* \"contracts/AuditRegistry.sol\":2177:2741  function getAudit(uint256 id) public view returns (... */\n    tag_37:\n        /* \"contracts/AuditRegistry.sol\":2233:2240  uint256 */\n      0x00\n        /* \"contracts/AuditRegistry.sol\":2247:2254  address */\n      dup1\n        /* \"contracts/AuditRegistry.sol\":2261:2274  string memory */\n      0x60\n        /* \"contracts/AuditRegistry.sol\":2281:2294  string memory */\n      dup1\n        /* \"contracts/AuditRegistry.sol\":2301:2308  uint256 */\n      0x00\n        /* \"contracts/AuditRegistry.sol\":2315:2322  uint256 */\n      dup1\n        /* \"contracts/AuditRegistry.sol\":2329:2342  string memory */\n      0x60\n        /* \"contracts/AuditRegistry.sol\":2349:2356  uint256 */\n      0x00\n        /* \"contracts/AuditRegistry.sol\":2363:2370  uint256 */\n      dup1\n        /* \"contracts/AuditRegistry.sol\":2377:2384  uint256 */\n      0x00\n        /* \"contracts/AuditRegistry.sol\":2391:2395  bool */\n      dup1\n        /* \"contracts/AuditRegistry.sol\":2404:2423  Audit storage audit */\n      0x00\n        /* \"contracts/AuditRegistry.sol\":2426:2432  audits */\n      0x02\n        /* \"contracts/AuditRegistry.sol\":2426:2436  audits[id] */\n      0x00\n        /* \"contracts/AuditRegistry.sol\":2433:2435  id */\n      dup15\n        /* \"contracts/AuditRegistry.sol\":2426:2436  audits[id] */\n      dup2\n      mstore\n      0x20\n      add\n      swap1\n      dup2\n      mstore\n      0x20\n      add\n      0x00\n      keccak256\n        /* \"contracts/AuditRegistry.sol\":2404:2436  Audit storage audit = audits[id] */\n      swap1\n      pop\n        /* \"contracts/AuditRegistry.sol\":2459:2464  audit */\n      dup1\n        /* \"contracts/AuditRegistry.sol\":2459:2467  audit.id */\n      0x00\n      add\n      sload\n        /* \"contracts/AuditRegistry.sol\":2478:2483  audit */\n      dup2\n        /* \"contracts/AuditRegistry.sol\":2478:2491  audit.auditor */\n      0x01\n      add\n      0x00\n      swap1\n      sload\n      swap1\n      0x0100\n      exp\n      swap1\n      div\n      0xffffffffffffffffffffffffffffffffffffffff\n      and\n        /* \"contracts/AuditRegistry.sol\":2502:2507  audit */\n      dup3\n        /* \"contracts/AuditRegistry.sol\":2502:2515  audit.company */\n      0x02\n      add\n        /* \"contracts/AuditRegistry.sol\":2526:2531  audit */\n      dup4\n        /* \"contracts/AuditRegistry.sol\":2526:2539  audit.project */\n      0x03\n      add\n        /* \"contracts/AuditRegistry.sol\":2550:2555  audit */\n      dup5\n        /* \"contracts/AuditRegistry.sol\":2550:2565  audit.startDate */\n      0x04\n      add\n      sload\n        /* \"contracts/AuditRegistry.sol\":2576:2581  audit */\n      dup6\n        /* \"contracts/AuditRegistry.sol\":2576:2589  audit.endDate */\n      0x05\n      add\n      sload\n        /* \"contracts/AuditRegistry.sol\":2600:2605  audit */\n      dup7\n        /* \"contracts/AuditRegistry.sol\":2600:2618  audit.githubCommit */\n      0x06\n      add\n        /* \"contracts/AuditRegistry.sol\":2629:2634  audit */\n      dup8\n        /* \"contracts/AuditRegistry.sol\":2629:2647  audit.highSeverity */\n      0x07\n      add\n      sload\n        /* \"contracts/AuditRegistry.sol\":2658:2663  audit */\n      dup9\n        /* \"contracts/AuditRegistry.sol\":2658:2678  audit.mediumSeverity */\n      0x08\n      add\n      sload\n        /* \"contracts/AuditRegistry.sol\":2689:2694  audit */\n      dup10\n        /* \"contracts/AuditRegistry.sol\":2689:2706  audit.lowSeverity */\n      0x09\n      add\n      sload\n        /* \"contracts/AuditRegistry.sol\":2717:2722  audit */\n      dup11\n        /* \"contracts/AuditRegistry.sol\":2717:2732  audit.certified */\n      0x0a\n      add\n      0x00\n      swap1\n      sload\n      swap1\n      0x0100\n      exp\n      swap1\n      div\n      0xff\n      and\n        /* \"contracts/AuditRegistry.sol\":2442:2738  return (... */\n      dup9\n      dup1\n      sload\n      tag_104\n      swap1\n      tag_105\n      jump\t// in\n    tag_104:\n      dup1\n      0x1f\n      add\n      0x20\n      dup1\n      swap2\n      div\n      mul\n      0x20\n      add\n      mload(0x40)\n      swap1\n      dup2\n      add\n      0x40\n      mstore\n      dup1\n      swap3\n      swap2\n      swap1\n      dup2\n      dup2\n      mstore\n      0x20\n      add\n      dup3\n      dup1\n      sload\n      tag_106\n      swap1\n      tag_105\n      jump\t// in\n    tag_106:\n      dup1\n      iszero\n      tag_107\n      jumpi\n      dup1\n      0x1f\n      lt\n      tag_108\n      jumpi\n      0x0100\n      dup1\n      dup4\n      sload\n      div\n      mul\n      dup4\n      mstore\n      swap2\n      0x20\n      add\n      swap2\n      jump(tag_107)\n    tag_108:\n      dup3\n      add\n      swap2\n      swap1\n      0x00\n      mstore\n      keccak256(0x00, 0x20)\n      swap1\n    tag_109:\n      dup2\n      sload\n      dup2\n      mstore\n      swap1\n      0x01\n      add\n      swap1\n      0x20\n      add\n      dup1\n      dup4\n      gt\n      tag_109\n      jumpi\n      dup3\n      swap1\n      sub\n      0x1f\n      and\n      dup3\n      add\n      swap2\n    tag_107:\n      pop\n      pop\n      pop\n      pop\n      pop\n      swap9\n      pop\n      dup8\n      dup1\n      sload\n      tag_110\n      swap1\n      tag_105\n      jump\t// in\n    tag_110:\n      dup1\n      0x1f\n      add\n      0x20\n      dup1\n      swap2\n      div\n      mul\n      0x20\n      add\n      mload(0x40)\n      swap1\n      dup2\n      add\n      0x40\n      mstore\n      dup1\n      swap3\n      swap2\n      swap1\n      dup2\n      dup2\n      mstore\n      0x20\n      add\n      dup3\n      dup1\n      sload\n      tag_111\n      swap1\n      tag_105\n      jump\t// in\n    tag_111:\n      dup1\n      iszero\n      tag_112\n      jumpi\n      dup1\n      0x1f\n      lt\n      tag_113\n      jumpi\n      0x0100\n      dup1\n      dup4\n      sload\n      div\n      mul\n      dup4\n      mstore\n      swap2\n      0x20\n      add\n      swap2\n      jump(tag_112)\n    tag_113:\n      dup3\n      add\n      swap2\n      swap1\n      0x00\n      mstore\n      keccak256(0x00, 0x20)\n      swap1\n    tag_114:\n      dup2\n      sload\n      dup2\n      mstore\n      swap1\n      0x01\n      add\n      swap1\n      0x20\n      add\n      dup1\n      dup4\n      gt\n      tag_114\n      jumpi\n      dup3\n      swap1\n      sub\n      0x1f\n      and\n      dup3\n      add\n      swap2\n    tag_112:\n      pop\n      pop\n      pop\n      pop\n      pop\n      swap8\n      pop\n      dup5\n      dup1\n      sload\n      tag_115\n      swap1\n      tag_105\n      jump\t// in\n    tag_115:\n      dup1\n      0x1f\n      add\n      0x20\n      dup1\n      swap2\n      div\n      mul\n      0x20\n      add\n      mload(0x40)\n      swap1\n      dup2\n      add\n      0x40\n      mstore\n      dup1\n      swap3\n      swap2\n      swap1\n      dup2\n      dup2\n      mstore\n      0x20\n      add\n      dup3\n      dup1\n      sload\n      tag_116\n      swap1\n      tag_105\n      jump\t// in\n    tag_116:\n      dup1\n      iszero\n      tag_117\n      jumpi\n      dup1\n      0x1f\n      lt\n      tag_118\n      jumpi\n      0x0100\n      dup1\n      dup4\n      sload\n      div\n      mul\n      dup4\n      mstore\n      swap2\n      0x20\n      add\n      swap2\n      jump(tag_117)\n    tag_118:\n      dup3\n      add\n      swap2\n      swap1\n      0x00\n      mstore\n      keccak256(0x00, 0x20)\n      swap1\n    tag_119:\n      dup2\n      sload\n      dup2\n      mstore\n      swap1\n      0x01\n      add\n      swap1\n      0x20\n      add\n      dup1\n      dup4\n      gt\n      tag_119\n      jumpi\n      dup3\n      swap1\n      sub\n      0x1f\n      and\n      dup3\n      add\n      swap2\n    tag_117:\n      pop\n      pop\n      pop\n      pop\n      pop\n      swap5\n      pop\n      swap12\n      pop\n      swap12\n      pop\n      swap12\n      pop\n      swap12\n      pop\n      swap12\n      pop\n      swap12\n      pop\n      swap12\n      pop\n      swap12\n      pop\n      swap12\n      pop\n      swap12\n      pop\n      swap12\n      pop\n      pop\n        /* \"contracts/AuditRegistry.sol\":2177:2741  function getAudit(uint256 id) public view returns (... */\n      swap2\n      swap4\n      swap6\n      swap8\n      swap10\n      swap12\n      swap1\n      swap3\n      swap5\n      swap7\n      swap9\n      swap11\n      pop\n      jump\t// out\n        /* \"@openzeppelin/contracts/access/AccessControl.sol\":3810:3930  function getRoleAdmin(bytes32 role) public view virtual returns (bytes32) {... */\n    tag_43:\n        /* \"@openzeppelin/contracts/access/AccessControl.sol\":3875:3882  bytes32 */\n      0x00\n        /* \"@openzeppelin/contracts/access/AccessControl.sol\":3901:3907  _roles */\n      dup1\n        /* \"@openzeppelin/contracts/access/AccessControl.sol\":3901:3913  _roles[role] */\n      0x00\n        /* \"@openzeppelin/contracts/access/AccessControl.sol\":3908:3912  role */\n      dup4\n        /* \"@openzeppelin/contracts/access/AccessControl.sol\":3901:3913  _roles[role] */\n      dup2\n      mstore\n      0x20\n      add\n      swap1\n      dup2\n      mstore\n      0x20\n      add\n      0x00\n      keccak256\n        /* \"@openzeppelin/contracts/access/AccessControl.sol\":3901:3923  _roles[role].adminRole */\n      0x01\n      add\n      sload\n        /* \"@openzeppelin/contracts/access/AccessControl.sol\":3894:3923  return _roles[role].adminRole */\n      swap1\n      pop\n        /* \"@openzeppelin/contracts/access/AccessControl.sol\":3810:3930  function getRoleAdmin(bytes32 role) public view virtual returns (bytes32) {... */\n      swap2\n      swap1\n      pop\n      jump\t// out\n        /* \"@openzeppelin/contracts/access/AccessControl.sol\":4226:4362  function grantRole(bytes32 role, address account) public virtual onlyRole(getRoleAdmin(role)) {... */\n    tag_49:\n        /* \"@openzeppelin/contracts/access/AccessControl.sol\":4300:4318  getRoleAdmin(role) */\n      tag_121\n        /* \"@openzeppelin/contracts/access/AccessControl.sol\":4313:4317  role */\n      dup3\n        /* \"@openzeppelin/contracts/access/AccessControl.sol\":4300:4312  getRoleAdmin */\n      tag_43\n        /* \"@openzeppelin/contracts/access/AccessControl.sol\":4300:4318  getRoleAdmin(role) */\n      jump\t// in\n    tag_121:\n        /* \"@openzeppelin/contracts/access/AccessControl.sol\":2464:2480  _checkRole(role) */\n      tag_123\n        /* \"@openzeppelin/contracts/access/AccessControl.sol\":2475:2479  role */\n      dup2\n        /* \"@openzeppelin/contracts/access/AccessControl.sol\":2464:2474  _checkRole */\n      tag_124\n        /* \"@openzeppelin/contracts/access/AccessControl.sol\":2464:2480  _checkRole(role) */\n      jump\t// in\n    tag_123:\n        /* \"@openzeppelin/contracts/access/AccessControl.sol\":4330:4355  _grantRole(role, account) */\n      tag_126\n        /* \"@openzeppelin/contracts/access/AccessControl.sol\":4341:4345  role */\n      dup4\n        /* \"@openzeppelin/contracts/access/AccessControl.sol\":4347:4354  account */\n      dup4\n        /* \"@openzeppelin/contracts/access/AccessControl.sol\":4330:4340  _grantRole */\n      tag_127\n        /* \"@openzeppelin/contracts/access/AccessControl.sol\":4330:4355  _grantRole(role, account) */\n      jump\t// in\n    tag_126:\n      pop\n        /* \"@openzeppelin/contracts/access/AccessControl.sol\":4226:4362  function grantRole(bytes32 role, address account) public virtual onlyRole(getRoleAdmin(role)) {... */\n      pop\n      pop\n      pop\n      jump\t// out\n        /* \"@openzeppelin/contracts/access/AccessControl.sol\":5328:5573  function renounceRole(bytes32 role, address callerConfirmation) public virtual {... */\n    tag_52:\n        /* \"@openzeppelin/contracts/access/AccessControl.sol\":5443:5455  _msgSender() */\n      tag_129\n        /* \"@openzeppelin/contracts/access/AccessControl.sol\":5443:5453  _msgSender */\n      tag_130\n        /* \"@openzeppelin/contracts/access/AccessControl.sol\":5443:5455  _msgSender() */\n      jump\t// in\n    tag_129:\n        /* \"@openzeppelin/contracts/access/AccessControl.sol\":5421:5455  callerConfirmation != _msgSender() */\n      0xffffffffffffffffffffffffffffffffffffffff\n      and\n        /* \"@openzeppelin/contracts/access/AccessControl.sol\":5421:5439  callerConfirmation */\n      dup2\n        /* \"@openzeppelin/contracts/access/AccessControl.sol\":5421:5455  callerConfirmation != _msgSender() */\n      0xffffffffffffffffffffffffffffffffffffffff\n      and\n      eq\n        /* \"@openzeppelin/contracts/access/AccessControl.sol\":5417:5519  if (callerConfirmation != _msgSender()) {... */\n      tag_131\n      jumpi\n        /* \"@openzeppelin/contracts/access/AccessControl.sol\":5478:5508  AccessControlBadConfirmation() */\n      mload(0x40)\n      0x6697b23200000000000000000000000000000000000000000000000000000000\n      dup2\n      mstore\n      0x04\n      add\n      mload(0x40)\n      dup1\n      swap2\n      sub\n      swap1\n      revert\n        /* \"@openzeppelin/contracts/access/AccessControl.sol\":5417:5519  if (callerConfirmation != _msgSender()) {... */\n    tag_131:\n        /* \"@openzeppelin/contracts/access/AccessControl.sol\":5529:5566  _revokeRole(role, callerConfirmation) */\n      tag_132\n        /* \"@openzeppelin/contracts/access/AccessControl.sol\":5541:5545  role */\n      dup3\n        /* \"@openzeppelin/contracts/access/AccessControl.sol\":5547:5565  callerConfirmation */\n      dup3\n        /* \"@openzeppelin/contracts/access/AccessControl.sol\":5529:5540  _revokeRole */\n      tag_133\n        /* \"@openzeppelin/contracts/access/AccessControl.sol\":5529:5566  _revokeRole(role, callerConfirmation) */\n      jump\t// in\n    tag_132:\n      pop\n        /* \"@openzeppelin/contracts/access/AccessControl.sol\":5328:5573  function renounceRole(bytes32 role, address callerConfirmation) public virtual {... */\n      pop\n      pop\n      jump\t// out\n        /* \"contracts/AuditRegistry.sol\":722:747  uint256 public nextId = 1 */\n    tag_54:\n      sload(0x03)\n      dup2\n      jump\t// out\n        /* \"contracts/AuditRegistry.sol\":910:1651  function recordAudit(... */\n    tag_60:\n        /* \"contracts/AuditRegistry.sol\":264:289  keccak256(\"AUDITOR_ROLE\") */\n      0x59a1c48e5837ad7a7f3dcedcbe129bf3249ec4fbf651fd4f5e2600ead39fe2f5\n        /* \"@openzeppelin/contracts/access/AccessControl.sol\":2464:2480  _checkRole(role) */\n      tag_135\n        /* \"@openzeppelin/contracts/access/AccessControl.sol\":2475:2479  role */\n      dup2\n        /* \"@openzeppelin/contracts/access/AccessControl.sol\":2464:2474  _checkRole */\n      tag_124\n        /* \"@openzeppelin/contracts/access/AccessControl.sol\":2464:2480  _checkRole(role) */\n      jump\t// in\n    tag_135:\n        /* \"contracts/AuditRegistry.sol\":1235:1625  Audit({... */\n      mload(0x40)\n      dup1\n      0x0160\n      add\n      0x40\n      mstore\n      dup1\n        /* \"contracts/AuditRegistry.sol\":1259:1265  nextId */\n      sload(0x03)\n        /* \"contracts/AuditRegistry.sol\":1235:1625  Audit({... */\n      dup2\n      mstore\n      0x20\n      add\n        /* \"contracts/AuditRegistry.sol\":1288:1298  msg.sender */\n      caller\n        /* \"contracts/AuditRegistry.sol\":1235:1625  Audit({... */\n      0xffffffffffffffffffffffffffffffffffffffff\n      and\n      dup2\n      mstore\n      0x20\n      add\n        /* \"contracts/AuditRegistry.sol\":1321:1328  company */\n      dup11\n        /* \"contracts/AuditRegistry.sol\":1235:1625  Audit({... */\n      dup2\n      mstore\n      0x20\n      add\n        /* \"contracts/AuditRegistry.sol\":1351:1358  project */\n      dup10\n        /* \"contracts/AuditRegistry.sol\":1235:1625  Audit({... */\n      dup2\n      mstore\n      0x20\n      add\n        /* \"contracts/AuditRegistry.sol\":1383:1392  startDate */\n      dup9\n        /* \"contracts/AuditRegistry.sol\":1235:1625  Audit({... */\n      dup2\n      mstore\n      0x20\n      add\n        /* \"contracts/AuditRegistry.sol\":1415:1422  endDate */\n      dup8\n        /* \"contracts/AuditRegistry.sol\":1235:1625  Audit({... */\n      dup2\n      mstore\n      0x20\n      add\n        /* \"contracts/AuditRegistry.sol\":1450:1462  githubCommit */\n      dup7\n        /* \"contracts/AuditRegistry.sol\":1235:1625  Audit({... */\n      dup2\n      mstore\n      0x20\n      add\n        /* \"contracts/AuditRegistry.sol\":1490:1502  highSeverity */\n      dup6\n        /* \"contracts/AuditRegistry.sol\":1235:1625  Audit({... */\n      dup2\n      mstore\n      0x20\n      add\n        /* \"contracts/AuditRegistry.sol\":1532:1546  mediumSeverity */\n      dup5\n        /* \"contracts/AuditRegistry.sol\":1235:1625  Audit({... */\n      dup2\n      mstore\n      0x20\n      add\n        /* \"contracts/AuditRegistry.sol\":1573:1584  lowSeverity */\n      dup4\n        /* \"contracts/AuditRegistry.sol\":1235:1625  Audit({... */\n      dup2\n      mstore\n      0x20\n      add\n        /* \"contracts/AuditRegistry.sol\":1609:1614  false */\n      0x00\n        /* \"contracts/AuditRegistry.sol\":1235:1625  Audit({... */\n      iszero\n      iszero\n      dup2\n      mstore\n      pop\n        /* \"contracts/AuditRegistry.sol\":1218:1224  audits */\n      0x02\n        /* \"contracts/AuditRegistry.sol\":1218:1232  audits[nextId] */\n      0x00\n        /* \"contracts/AuditRegistry.sol\":1225:1231  nextId */\n      sload(0x03)\n        /* \"contracts/AuditRegistry.sol\":1218:1232  audits[nextId] */\n      dup2\n      mstore\n      0x20\n      add\n      swap1\n      dup2\n      mstore\n      0x20\n      add\n      0x00\n      keccak256\n        /* \"contracts/AuditRegistry.sol\":1218:1625  audits[nextId] = Audit({... */\n      0x00\n      dup3\n      add\n      mload\n      dup2\n      0x00\n      add\n      sstore\n      0x20\n      dup3\n      add\n      mload\n      dup2\n      0x01\n      add\n      exp(0x0100, 0x00)\n      dup2\n      sload\n      dup2\n      0xffffffffffffffffffffffffffffffffffffffff\n      mul\n      not\n      and\n      swap1\n      dup4\n      0xffffffffffffffffffffffffffffffffffffffff\n      and\n      mul\n      or\n      swap1\n      sstore\n      pop\n      0x40\n      dup3\n      add\n      mload\n      dup2\n      0x02\n      add\n      swap1\n      dup2\n      tag_137\n      swap2\n      swap1\n      tag_138\n      jump\t// in\n    tag_137:\n      pop\n      0x60\n      dup3\n      add\n      mload\n      dup2\n      0x03\n      add\n      swap1\n      dup2\n      tag_139\n      swap2\n      swap1\n      tag_138\n      jump\t// in\n    tag_139:\n      pop\n      0x80\n      dup3\n      add\n      mload\n      dup2\n      0x04\n      add\n      sstore\n      0xa0\n      dup3\n      add\n      mload\n      dup2\n      0x05\n      add\n      sstore\n      0xc0\n      dup3\n      add\n      mload\n      dup2\n      0x06\n      add\n      swap1\n      dup2\n      tag_140\n      swap2\n      swap1\n      tag_138\n      jump\t// in\n    tag_140:\n      pop\n      0xe0\n      dup3\n      add\n      mload\n      dup2\n      0x07\n      add\n      sstore\n      0x0100\n      dup3\n      add\n      mload\n      dup2\n      0x08\n      add\n      sstore\n      0x0120\n      dup3\n      add\n      mload\n      dup2\n      0x09\n      add\n      sstore\n      0x0140\n      dup3\n      add\n      mload\n      dup2\n      0x0a\n      add\n      exp(0x0100, 0x00)\n      dup2\n      sload\n      dup2\n      0xff\n      mul\n      not\n      and\n      swap1\n      dup4\n      iszero\n      iszero\n      mul\n      or\n      swap1\n      sstore\n      pop\n      swap1\n      pop\n      pop\n        /* \"contracts/AuditRegistry.sol\":1636:1642  nextId */\n      0x03\n      0x00\n        /* \"contracts/AuditRegistry.sol\":1636:1644  nextId++ */\n      dup2\n      sload\n      dup1\n      swap3\n      swap2\n      swap1\n      tag_141\n      swap1\n      tag_142\n      jump\t// in\n    tag_141:\n      swap2\n      swap1\n      pop\n      sstore\n      pop\n        /* \"contracts/AuditRegistry.sol\":910:1651  function recordAudit(... */\n      pop\n      pop\n      pop\n      pop\n      pop\n      pop\n      pop\n      pop\n      pop\n      jump\t// out\n        /* \"contracts/AuditRegistry.sol\":225:289  bytes32 public constant AUDITOR_ROLE = keccak256(\"AUDITOR_ROLE\") */\n    tag_62:\n        /* \"contracts/AuditRegistry.sol\":264:289  keccak256(\"AUDITOR_ROLE\") */\n      0x59a1c48e5837ad7a7f3dcedcbe129bf3249ec4fbf651fd4f5e2600ead39fe2f5\n        /* \"contracts/AuditRegistry.sol\":225:289  bytes32 public constant AUDITOR_ROLE = keccak256(\"AUDITOR_ROLE\") */\n      dup2\n      jump\t// out\n        /* \"@openzeppelin/contracts/access/Ownable.sol\":2293:2394  function renounceOwnership() public virtual onlyOwner {... */\n    tag_65:\n        /* \"@openzeppelin/contracts/access/Ownable.sol\":1531:1544  _checkOwner() */\n      tag_144\n        /* \"@openzeppelin/contracts/access/Ownable.sol\":1531:1542  _checkOwner */\n      tag_145\n        /* \"@openzeppelin/contracts/access/Ownable.sol\":1531:1544  _checkOwner() */\n      jump\t// in\n    tag_144:\n        /* \"@openzeppelin/contracts/access/Ownable.sol\":2357:2387  _transferOwnership(address(0)) */\n      tag_147\n        /* \"@openzeppelin/contracts/access/Ownable.sol\":2384:2385  0 */\n      0x00\n        /* \"@openzeppelin/contracts/access/Ownable.sol\":2357:2375  _transferOwnership */\n      tag_148\n        /* \"@openzeppelin/contracts/access/Ownable.sol\":2357:2387  _transferOwnership(address(0)) */\n      jump\t// in\n    tag_147:\n        /* \"@openzeppelin/contracts/access/Ownable.sol\":2293:2394  function renounceOwnership() public virtual onlyOwner {... */\n      jump\t// out\n        /* \"contracts/AuditRegistry.sol\":295:355  bytes32 public constant ADMIN_ROLE = keccak256(\"ADMIN_ROLE\") */\n    tag_67:\n        /* \"contracts/AuditRegistry.sol\":332:355  keccak256(\"ADMIN_ROLE\") */\n      0xa49807205ce4d355092ef5a8a18f56e8913cf4a201fbe287825b095693c21775\n        /* \"contracts/AuditRegistry.sol\":295:355  bytes32 public constant ADMIN_ROLE = keccak256(\"ADMIN_ROLE\") */\n      dup2\n      jump\t// out\n        /* \"@openzeppelin/contracts/access/Ownable.sol\":1638:1723  function owner() public view virtual returns (address) {... */\n    tag_70:\n        /* \"@openzeppelin/contracts/access/Ownable.sol\":1684:1691  address */\n      0x00\n        /* \"@openzeppelin/contracts/access/Ownable.sol\":1710:1716  _owner */\n      0x01\n      0x00\n      swap1\n      sload\n      swap1\n      0x0100\n      exp\n      swap1\n      div\n      0xffffffffffffffffffffffffffffffffffffffff\n      and\n        /* \"@openzeppelin/contracts/access/Ownable.sol\":1703:1716  return _owner */\n      swap1\n      pop\n        /* \"@openzeppelin/contracts/access/Ownable.sol\":1638:1723  function owner() public view virtual returns (address) {... */\n      swap1\n      jump\t// out\n        /* \"@openzeppelin/contracts/access/AccessControl.sol\":2854:2990  function hasRole(bytes32 role, address account) public view virtual returns (bool) {... */\n    tag_75:\n        /* \"@openzeppelin/contracts/access/AccessControl.sol\":2931:2935  bool */\n      0x00\n        /* \"@openzeppelin/contracts/access/AccessControl.sol\":2954:2960  _roles */\n      dup1\n        /* \"@openzeppelin/contracts/access/AccessControl.sol\":2954:2966  _roles[role] */\n      0x00\n        /* \"@openzeppelin/contracts/access/AccessControl.sol\":2961:2965  role */\n      dup5\n        /* \"@openzeppelin/contracts/access/AccessControl.sol\":2954:2966  _roles[role] */\n      dup2\n      mstore\n      0x20\n      add\n      swap1\n      dup2\n      mstore\n      0x20\n      add\n      0x00\n      keccak256\n        /* \"@openzeppelin/contracts/access/AccessControl.sol\":2954:2974  _roles[role].hasRole */\n      0x00\n      add\n        /* \"@openzeppelin/contracts/access/AccessControl.sol\":2954:2983  _roles[role].hasRole[account] */\n      0x00\n        /* \"@openzeppelin/contracts/access/AccessControl.sol\":2975:2982  account */\n      dup4\n        /* \"@openzeppelin/contracts/access/AccessControl.sol\":2954:2983  _roles[role].hasRole[account] */\n      0xffffffffffffffffffffffffffffffffffffffff\n      and\n      0xffffffffffffffffffffffffffffffffffffffff\n      and\n      dup2\n      mstore\n      0x20\n      add\n      swap1\n      dup2\n      mstore\n      0x20\n      add\n      0x00\n      keccak256\n      0x00\n      swap1\n      sload\n      swap1\n      0x0100\n      exp\n      swap1\n      div\n      0xff\n      and\n        /* \"@openzeppelin/contracts/access/AccessControl.sol\":2947:2983  return _roles[role].hasRole[account] */\n      swap1\n      pop\n        /* \"@openzeppelin/contracts/access/AccessControl.sol\":2854:2990  function hasRole(bytes32 role, address account) public view virtual returns (bool) {... */\n      swap3\n      swap2\n      pop\n      pop\n      jump\t// out\n        /* \"@openzeppelin/contracts/access/AccessControl.sol\":2187:2236  bytes32 public constant DEFAULT_ADMIN_ROLE = 0x00 */\n    tag_78:\n        /* \"@openzeppelin/contracts/access/AccessControl.sol\":2232:2236  0x00 */\n      0x00\n        /* \"@openzeppelin/contracts/access/AccessControl.sol\":2187:2236  bytes32 public constant DEFAULT_ADMIN_ROLE = 0x00 */\n      dup1\n      shl\n      dup2\n      jump\t// out\n        /* \"contracts/AuditRegistry.sol\":677:716  mapping(uint256 => Audit) public audits */\n    tag_82:\n      mstore(0x20, 0x02)\n      dup1\n      0x00\n      mstore\n      keccak256(0x00, 0x40)\n      0x00\n      swap2\n      pop\n      swap1\n      pop\n      dup1\n      0x00\n      add\n      sload\n      swap1\n      dup1\n      0x01\n      add\n      0x00\n      swap1\n      sload\n      swap1\n      0x0100\n      exp\n      swap1\n      div\n      0xffffffffffffffffffffffffffffffffffffffff\n      and\n      swap1\n      dup1\n      0x02\n      add\n      dup1\n      sload\n      tag_151\n      swap1\n      tag_105\n      jump\t// in\n    tag_151:\n      dup1\n      0x1f\n      add\n      0x20\n      dup1\n      swap2\n      div\n      mul\n      0x20\n      add\n      mload(0x40)\n      swap1\n      dup2\n      add\n      0x40\n      mstore\n      dup1\n      swap3\n      swap2\n      swap1\n      dup2\n      dup2\n      mstore\n      0x20\n      add\n      dup3\n      dup1\n      sload\n      tag_152\n      swap1\n      tag_105\n      jump\t// in\n    tag_152:\n      dup1\n      iszero\n      tag_153\n      jumpi\n      dup1\n      0x1f\n      lt\n      tag_154\n      jumpi\n      0x0100\n      dup1\n      dup4\n      sload\n      div\n      mul\n      dup4\n      mstore\n      swap2\n      0x20\n      add\n      swap2\n      jump(tag_153)\n    tag_154:\n      dup3\n      add\n      swap2\n      swap1\n      0x00\n      mstore\n      keccak256(0x00, 0x20)\n      swap1\n    tag_155:\n      dup2\n      sload\n      dup2\n      mstore\n      swap1\n      0x01\n      add\n      swap1\n      0x20\n      add\n      dup1\n      dup4\n      gt\n      tag_155\n      jumpi\n      dup3\n      swap1\n      sub\n      0x1f\n      and\n      dup3\n      add\n      swap2\n    tag_153:\n      pop\n      pop\n      pop\n      pop\n      pop\n      swap1\n      dup1\n      0x03\n      add\n      dup1\n      sload\n      tag_156\n      swap1\n      tag_105\n      jump\t// in\n    tag_156:\n      dup1\n      0x1f\n      add\n      0x20\n      dup1\n      swap2\n      div\n      mul\n      0x20\n      add\n      mload(0x40)\n      swap1\n      dup2\n      add\n      0x40\n      mstore\n      dup1\n      swap3\n      swap2\n      swap1\n      dup2\n      dup2\n      mstore\n      0x20\n      add\n      dup3\n      dup1\n      sload\n      tag_157\n      swap1\n      tag_105\n      jump\t// in\n    tag_157:\n      dup1\n      iszero\n      tag_158\n      jumpi\n      dup1\n      0x1f\n      lt\n      tag_159\n      jumpi\n      0x0100\n      dup1\n      dup4\n      sload\n      div\n      mul\n      dup4\n      mstore\n      swap2\n      0x20\n      add\n      swap2\n      jump(tag_158)\n    tag_159:\n      dup3\n      add\n      swap2\n      swap1\n      0x00\n      mstore\n      keccak256(0x00, 0x20)\n      swap1\n    tag_160:\n      dup2\n      sload\n      dup2\n      mstore\n      swap1\n      0x01\n      add\n      swap1\n      0x20\n      add\n      dup1\n      dup4\n      gt\n      tag_160\n      jumpi\n      dup3\n      swap1\n      sub\n      0x1f\n      and\n      dup3\n      add\n      swap2\n    tag_158:\n      pop\n      pop\n      pop\n      pop\n      pop\n      swap1\n      dup1\n      0x04\n      add\n      sload\n      swap1\n      dup1\n      0x05\n      add\n      sload\n      swap1\n      dup1\n      0x06\n      add\n      dup1\n      sload\n      tag_161\n      swap1\n      tag_105\n      jump\t// in\n    tag_161:\n      dup1\n      0x1f\n      add\n      0x20\n      dup1\n      swap2\n      div\n      mul\n      0x20\n      add\n      mload(0x40)\n      swap1\n      dup2\n      add\n      0x40\n      mstore\n      dup1\n      swap3\n      swap2\n      swap1\n      dup2\n      dup2\n      mstore\n      0x20\n      add\n      dup3\n      dup1\n      sload\n      tag_162\n      swap1\n      tag_105\n      jump\t// in\n    tag_162:\n      dup1\n      iszero\n      tag_163\n      jumpi\n      dup1\n      0x1f\n      lt\n      tag_164\n      jumpi\n      0x0100\n      dup1\n      dup4\n      sload\n      div\n      mul\n      dup4\n      mstore\n      swap2\n      0x20\n      add\n      swap2\n      jump(tag_163)\n    tag_164:\n      dup3\n      add\n      swap2\n      swap1\n      0x00\n      mstore\n      keccak256(0x00, 0x20)\n      swap1\n    tag_165:\n      dup2\n      sload\n      dup2\n      mstore\n      swap1\n      0x01\n      add\n      swap1\n      0x20\n      add\n      dup1\n      dup4\n      gt\n      tag_165\n      jumpi\n      dup3\n      swap1\n      sub\n      0x1f\n      and\n      dup3\n      add\n      swap2\n    tag_163:\n      pop\n      pop\n      pop\n      pop\n      pop\n      swap1\n      dup1\n      0x07\n      add\n      sload\n      swap1\n      dup1\n      0x08\n      add\n      sload\n      swap1\n      dup1\n      0x09\n      add\n      sload\n      swap1\n      dup1\n      0x0a\n      add\n      0x00\n      swap1\n      sload\n      swap1\n      0x0100\n      exp\n      swap1\n      div\n      0xff\n      and\n      swap1\n      pop\n      dup12\n      jump\t// out\n        /* \"@openzeppelin/contracts/access/AccessControl.sol\":4642:4780  function revokeRole(bytes32 role, address account) public virtual onlyRole(getRoleAdmin(role)) {... */\n    tag_86:\n        /* \"@openzeppelin/contracts/access/AccessControl.sol\":4717:4735  getRoleAdmin(role) */\n      tag_166\n        /* \"@openzeppelin/contracts/access/AccessControl.sol\":4730:4734  role */\n      dup3\n        /* \"@openzeppelin/contracts/access/AccessControl.sol\":4717:4729  getRoleAdmin */\n      tag_43\n        /* \"@openzeppelin/contracts/access/AccessControl.sol\":4717:4735  getRoleAdmin(role) */\n      jump\t// in\n    tag_166:\n        /* \"@openzeppelin/contracts/access/AccessControl.sol\":2464:2480  _checkRole(role) */\n      tag_168\n        /* \"@openzeppelin/contracts/access/AccessControl.sol\":2475:2479  role */\n      dup2\n        /* \"@openzeppelin/contracts/access/AccessControl.sol\":2464:2474  _checkRole */\n      tag_124\n        /* \"@openzeppelin/contracts/access/AccessControl.sol\":2464:2480  _checkRole(role) */\n      jump\t// in\n    tag_168:\n        /* \"@openzeppelin/contracts/access/AccessControl.sol\":4747:4773  _revokeRole(role, account) */\n      tag_170\n        /* \"@openzeppelin/contracts/access/AccessControl.sol\":4759:4763  role */\n      dup4\n        /* \"@openzeppelin/contracts/access/AccessControl.sol\":4765:4772  account */\n      dup4\n        /* \"@openzeppelin/contracts/access/AccessControl.sol\":4747:4758  _revokeRole */\n      tag_133\n        /* \"@openzeppelin/contracts/access/AccessControl.sol\":4747:4773  _revokeRole(role, account) */\n      jump\t// in\n    tag_170:\n      pop\n        /* \"@openzeppelin/contracts/access/AccessControl.sol\":4642:4780  function revokeRole(bytes32 role, address account) public virtual onlyRole(getRoleAdmin(role)) {... */\n      pop\n      pop\n      pop\n      jump\t// out\n        /* \"contracts/AuditRegistry.sol\":801:904  function addAuditor(address auditor) public onlyOwner {... */\n    tag_90:\n        /* \"@openzeppelin/contracts/access/Ownable.sol\":1531:1544  _checkOwner() */\n      tag_172\n        /* \"@openzeppelin/contracts/access/Ownable.sol\":1531:1542  _checkOwner */\n      tag_145\n        /* \"@openzeppelin/contracts/access/Ownable.sol\":1531:1544  _checkOwner() */\n      jump\t// in\n    tag_172:\n        /* \"contracts/AuditRegistry.sol\":865:897  grantRole(AUDITOR_ROLE, auditor) */\n      tag_174\n        /* \"contracts/AuditRegistry.sol\":264:289  keccak256(\"AUDITOR_ROLE\") */\n      0x59a1c48e5837ad7a7f3dcedcbe129bf3249ec4fbf651fd4f5e2600ead39fe2f5\n        /* \"contracts/AuditRegistry.sol\":889:896  auditor */\n      dup3\n        /* \"contracts/AuditRegistry.sol\":865:874  grantRole */\n      tag_49\n        /* \"contracts/AuditRegistry.sol\":865:897  grantRole(AUDITOR_ROLE, auditor) */\n      jump\t// in\n    tag_174:\n        /* \"contracts/AuditRegistry.sol\":801:904  function addAuditor(address auditor) public onlyOwner {... */\n      pop\n      jump\t// out\n        /* \"@openzeppelin/contracts/access/Ownable.sol\":2543:2758  function transferOwnership(address newOwner) public virtual onlyOwner {... */\n    tag_93:\n        /* \"@openzeppelin/contracts/access/Ownable.sol\":1531:1544  _checkOwner() */\n      tag_176\n        /* \"@openzeppelin/contracts/access/Ownable.sol\":1531:1542  _checkOwner */\n      tag_145\n        /* \"@openzeppelin/contracts/access/Ownable.sol\":1531:1544  _checkOwner() */\n      jump\t// in\n    tag_176:\n        /* \"@openzeppelin/contracts/access/Ownable.sol\":2647:2648  0 */\n      0x00\n        /* \"@openzeppelin/contracts/access/Ownable.sol\":2627:2649  newOwner == address(0) */\n      0xffffffffffffffffffffffffffffffffffffffff\n      and\n        /* \"@openzeppelin/contracts/access/Ownable.sol\":2627:2635  newOwner */\n      dup2\n        /* \"@openzeppelin/contracts/access/Ownable.sol\":2627:2649  newOwner == address(0) */\n      0xffffffffffffffffffffffffffffffffffffffff\n      and\n      sub\n        /* \"@openzeppelin/contracts/access/Ownable.sol\":2623:2714  if (newOwner == address(0)) {... */\n      tag_178\n      jumpi\n        /* \"@openzeppelin/contracts/access/Ownable.sol\":2700:2701  0 */\n      0x00\n        /* \"@openzeppelin/contracts/access/Ownable.sol\":2672:2703  OwnableInvalidOwner(address(0)) */\n      mload(0x40)\n      0x1e4fbdf700000000000000000000000000000000000000000000000000000000\n      dup2\n      mstore\n      0x04\n      add\n      tag_179\n      swap2\n      swap1\n      tag_72\n      jump\t// in\n    tag_179:\n      mload(0x40)\n      dup1\n      swap2\n      sub\n      swap1\n      revert\n        /* \"@openzeppelin/contracts/access/Ownable.sol\":2623:2714  if (newOwner == address(0)) {... */\n    tag_178:\n        /* \"@openzeppelin/contracts/access/Ownable.sol\":2723:2751  _transferOwnership(newOwner) */\n      tag_180\n        /* \"@openzeppelin/contracts/access/Ownable.sol\":2742:2750  newOwner */\n      dup2\n        /* \"@openzeppelin/contracts/access/Ownable.sol\":2723:2741  _transferOwnership */\n      tag_148\n        /* \"@openzeppelin/contracts/access/Ownable.sol\":2723:2751  _transferOwnership(newOwner) */\n      jump\t// in\n    tag_180:\n        /* \"@openzeppelin/contracts/access/Ownable.sol\":2543:2758  function transferOwnership(address newOwner) public virtual onlyOwner {... */\n      pop\n      jump\t// out\n        /* \"@openzeppelin/contracts/utils/introspection/ERC165.sol\":762:908  function supportsInterface(bytes4 interfaceId) public view virtual returns (bool) {... */\n    tag_97:\n        /* \"@openzeppelin/contracts/utils/introspection/ERC165.sol\":838:842  bool */\n      0x00\n        /* \"@openzeppelin/contracts/utils/introspection/ERC165.sol\":876:901  type(IERC165).interfaceId */\n      0x01ffc9a700000000000000000000000000000000000000000000000000000000\n        /* \"@openzeppelin/contracts/utils/introspection/ERC165.sol\":861:901  interfaceId == type(IERC165).interfaceId */\n      not(0xffffffffffffffffffffffffffffffffffffffffffffffffffffffff)\n      and\n        /* \"@openzeppelin/contracts/utils/introspection/ERC165.sol\":861:872  interfaceId */\n      dup3\n        /* \"@openzeppelin/contracts/utils/introspection/ERC165.sol\":861:901  interfaceId == type(IERC165).interfaceId */\n      not(0xffffffffffffffffffffffffffffffffffffffffffffffffffffffff)\n      and\n      eq\n        /* \"@openzeppelin/contracts/utils/introspection/ERC165.sol\":854:901  return interfaceId == type(IERC165).interfaceId */\n      swap1\n      pop\n        /* \"@openzeppelin/contracts/utils/introspection/ERC165.sol\":762:908  function supportsInterface(bytes4 interfaceId) public view virtual returns (bool) {... */\n      swap2\n      swap1\n      pop\n      jump\t// out\n        /* \"@openzeppelin/contracts/access/AccessControl.sol\":3199:3302  function _checkRole(bytes32 role) internal view virtual {... */\n    tag_124:\n        /* \"@openzeppelin/contracts/access/AccessControl.sol\":3265:3295  _checkRole(role, _msgSender()) */\n      tag_183\n        /* \"@openzeppelin/contracts/access/AccessControl.sol\":3276:3280  role */\n      dup2\n        /* \"@openzeppelin/contracts/access/AccessControl.sol\":3282:3294  _msgSender() */\n      tag_184\n        /* \"@openzeppelin/contracts/access/AccessControl.sol\":3282:3292  _msgSender */\n      tag_130\n        /* \"@openzeppelin/contracts/access/AccessControl.sol\":3282:3294  _msgSender() */\n      jump\t// in\n    tag_184:\n        /* \"@openzeppelin/contracts/access/AccessControl.sol\":3265:3275  _checkRole */\n      tag_185\n        /* \"@openzeppelin/contracts/access/AccessControl.sol\":3265:3295  _checkRole(role, _msgSender()) */\n      jump\t// in\n    tag_183:\n        /* \"@openzeppelin/contracts/access/AccessControl.sol\":3199:3302  function _checkRole(bytes32 role) internal view virtual {... */\n      pop\n      jump\t// out\n        /* \"@openzeppelin/contracts/access/AccessControl.sol\":6179:6495  function _grantRole(bytes32 role, address account) internal virtual returns (bool) {... */\n    tag_127:\n        /* \"@openzeppelin/contracts/access/AccessControl.sol\":6256:6260  bool */\n      0x00\n        /* \"@openzeppelin/contracts/access/AccessControl.sol\":6277:6299  hasRole(role, account) */\n      tag_187\n        /* \"@openzeppelin/contracts/access/AccessControl.sol\":6285:6289  role */\n      dup4\n        /* \"@openzeppelin/contracts/access/AccessControl.sol\":6291:6298  account */\n      dup4\n        /* \"@openzeppelin/contracts/access/AccessControl.sol\":6277:6284  hasRole */\n      tag_75\n        /* \"@openzeppelin/contracts/access/AccessControl.sol\":6277:6299  hasRole(role, account) */\n      jump\t// in\n    tag_187:\n        /* \"@openzeppelin/contracts/access/AccessControl.sol\":6272:6489  if (!hasRole(role, account)) {... */\n      tag_188\n      jumpi\n        /* \"@openzeppelin/contracts/access/AccessControl.sol\":6347:6351  true */\n      0x01\n        /* \"@openzeppelin/contracts/access/AccessControl.sol\":6315:6321  _roles */\n      0x00\n        /* \"@openzeppelin/contracts/access/AccessControl.sol\":6315:6327  _roles[role] */\n      dup1\n        /* \"@openzeppelin/contracts/access/AccessControl.sol\":6322:6326  role */\n      dup6\n        /* \"@openzeppelin/contracts/access/AccessControl.sol\":6315:6327  _roles[role] */\n      dup2\n      mstore\n      0x20\n      add\n      swap1\n      dup2\n      mstore\n      0x20\n      add\n      0x00\n      keccak256\n        /* \"@openzeppelin/contracts/access/AccessControl.sol\":6315:6335  _roles[role].hasRole */\n      0x00\n      add\n        /* \"@openzeppelin/contracts/access/AccessControl.sol\":6315:6344  _roles[role].hasRole[account] */\n      0x00\n        /* \"@openzeppelin/contracts/access/AccessControl.sol\":6336:6343  account */\n      dup5\n        /* \"@openzeppelin/contracts/access/AccessControl.sol\":6315:6344  _roles[role].hasRole[account] */\n      0xffffffffffffffffffffffffffffffffffffffff\n      and\n      0xffffffffffffffffffffffffffffffffffffffff\n      and\n      dup2\n      mstore\n      0x20\n      add\n      swap1\n      dup2\n      mstore\n      0x20\n      add\n      0x00\n      keccak256\n      0x00\n        /* \"@openzeppelin/contracts/access/AccessControl.sol\":6315:6351  _roles[role].hasRole[account] = true */\n      0x0100\n      exp\n      dup2\n      sload\n      dup2\n      0xff\n      mul\n      not\n      and\n      swap1\n      dup4\n      iszero\n      iszero\n      mul\n      or\n      swap1\n      sstore\n      pop\n        /* \"@openzeppelin/contracts/access/AccessControl.sol\":6397:6409  _msgSender() */\n      tag_189\n        /* \"@openzeppelin/contracts/access/AccessControl.sol\":6397:6407  _msgSender */\n      tag_130\n        /* \"@openzeppelin/contracts/access/AccessControl.sol\":6397:6409  _msgSender() */\n      jump\t// in\n    tag_189:\n        /* \"@openzeppelin/contracts/access/AccessControl.sol\":6370:6410  RoleGranted(role, account, _msgSender()) */\n      0xffffffffffffffffffffffffffffffffffffffff\n      and\n        /* \"@openzeppelin/contracts/access/AccessControl.sol\":6388:6395  account */\n      dup3\n        /* \"@openzeppelin/contracts/access/AccessControl.sol\":6370:6410  RoleGranted(role, account, _msgSender()) */\n      0xffffffffffffffffffffffffffffffffffffffff\n      and\n        /* \"@openzeppelin/contracts/access/AccessControl.sol\":6382:6386  role */\n      dup5\n        /* \"@openzeppelin/contracts/access/AccessControl.sol\":6370:6410  RoleGranted(role, account, _msgSender()) */\n      0x2f8788117e7eff1d82e926ec794901d17c78024a50270940304540a733656f0d\n      mload(0x40)\n      mload(0x40)\n      dup1\n      swap2\n      sub\n      swap1\n      log4\n        /* \"@openzeppelin/contracts/access/AccessControl.sol\":6431:6435  true */\n      0x01\n        /* \"@openzeppelin/contracts/access/AccessControl.sol\":6424:6435  return true */\n      swap1\n      pop\n      jump(tag_186)\n        /* \"@openzeppelin/contracts/access/AccessControl.sol\":6272:6489  if (!hasRole(role, account)) {... */\n    tag_188:\n        /* \"@openzeppelin/contracts/access/AccessControl.sol\":6473:6478  false */\n      0x00\n        /* \"@openzeppelin/contracts/access/AccessControl.sol\":6466:6478  return false */\n      swap1\n      pop\n        /* \"@openzeppelin/contracts/access/AccessControl.sol\":6179:6495  function _grantRole(bytes32 role, address account) internal virtual returns (bool) {... */\n    tag_186:\n      swap3\n      swap2\n      pop\n      pop\n      jump\t// out\n        /* \"@openzeppelin/contracts/utils/Context.sol\":656:752  function _msgSender() internal view virtual returns (address) {... */\n    tag_130:\n        /* \"@openzeppelin/contracts/utils/Context.sol\":709:716  address */\n      0x00\n        /* \"@openzeppelin/contracts/utils/Context.sol\":735:745  msg.sender */\n      caller\n        /* \"@openzeppelin/contracts/utils/Context.sol\":728:745  return msg.sender */\n      swap1\n      pop\n        /* \"@openzeppelin/contracts/utils/Context.sol\":656:752  function _msgSender() internal view virtual returns (address) {... */\n      swap1\n      jump\t// out\n        /* \"@openzeppelin/contracts/access/AccessControl.sol\":6730:7047  function _revokeRole(bytes32 role, address account) internal virtual returns (bool) {... */\n    tag_133:\n        /* \"@openzeppelin/contracts/access/AccessControl.sol\":6808:6812  bool */\n      0x00\n        /* \"@openzeppelin/contracts/access/AccessControl.sol\":6828:6850  hasRole(role, account) */\n      tag_193\n        /* \"@openzeppelin/contracts/access/AccessControl.sol\":6836:6840  role */\n      dup4\n        /* \"@openzeppelin/contracts/access/AccessControl.sol\":6842:6849  account */\n      dup4\n        /* \"@openzeppelin/contracts/access/AccessControl.sol\":6828:6835  hasRole */\n      tag_75\n        /* \"@openzeppelin/contracts/access/AccessControl.sol\":6828:6850  hasRole(role, account) */\n      jump\t// in\n    tag_193:\n        /* \"@openzeppelin/contracts/access/AccessControl.sol\":6824:7041  if (hasRole(role, account)) {... */\n      iszero\n      tag_194\n      jumpi\n        /* \"@openzeppelin/contracts/access/AccessControl.sol\":6898:6903  false */\n      0x00\n        /* \"@openzeppelin/contracts/access/AccessControl.sol\":6866:6872  _roles */\n      dup1\n        /* \"@openzeppelin/contracts/access/AccessControl.sol\":6866:6878  _roles[role] */\n      0x00\n        /* \"@openzeppelin/contracts/access/AccessControl.sol\":6873:6877  role */\n      dup6\n        /* \"@openzeppelin/contracts/access/AccessControl.sol\":6866:6878  _roles[role] */\n      dup2\n      mstore\n      0x20\n      add\n      swap1\n      dup2\n      mstore\n      0x20\n      add\n      0x00\n      keccak256\n        /* \"@openzeppelin/contracts/access/AccessControl.sol\":6866:6886  _roles[role].hasRole */\n      0x00\n      add\n        /* \"@openzeppelin/contracts/access/AccessControl.sol\":6866:6895  _roles[role].hasRole[account] */\n      0x00\n        /* \"@openzeppelin/contracts/access/AccessControl.sol\":6887:6894  account */\n      dup5\n        /* \"@openzeppelin/contracts/access/AccessControl.sol\":6866:6895  _roles[role].hasRole[account] */\n      0xffffffffffffffffffffffffffffffffffffffff\n      and\n      0xffffffffffffffffffffffffffffffffffffffff\n      and\n      dup2\n      mstore\n      0x20\n      add\n      swap1\n      dup2\n      mstore\n      0x20\n      add\n      0x00\n      keccak256\n      0x00\n        /* \"@openzeppelin/contracts/access/AccessControl.sol\":6866:6903  _roles[role].hasRole[account] = false */\n      0x0100\n      exp\n      dup2\n      sload\n      dup2\n      0xff\n      mul\n      not\n      and\n      swap1\n      dup4\n      iszero\n      iszero\n      mul\n      or\n      swap1\n      sstore\n      pop\n        /* \"@openzeppelin/contracts/access/AccessControl.sol\":6949:6961  _msgSender() */\n      tag_195\n        /* \"@openzeppelin/contracts/access/AccessControl.sol\":6949:6959  _msgSender */\n      tag_130\n        /* \"@openzeppelin/contracts/access/AccessControl.sol\":6949:6961  _msgSender() */\n      jump\t// in\n    tag_195:\n        /* \"@openzeppelin/contracts/access/AccessControl.sol\":6922:6962  RoleRevoked(role, account, _msgSender()) */\n      0xffffffffffffffffffffffffffffffffffffffff\n      and\n        /* \"@openzeppelin/contracts/access/AccessControl.sol\":6940:6947  account */\n      dup3\n        /* \"@openzeppelin/contracts/access/AccessControl.sol\":6922:6962  RoleRevoked(role, account, _msgSender()) */\n      0xffffffffffffffffffffffffffffffffffffffff\n      and\n        /* \"@openzeppelin/contracts/access/AccessControl.sol\":6934:6938  role */\n      dup5\n        /* \"@openzeppelin/contracts/access/AccessControl.sol\":6922:6962  RoleRevoked(role, account, _msgSender()) */\n      0xf6391f5c32d9c69d2a47ea670b442974b53935d1edc7fd64eb21e047a839171b\n      mload(0x40)\n      mload(0x40)\n      dup1\n      swap2\n      sub\n      swap1\n      log4\n        /* \"@openzeppelin/contracts/access/AccessControl.sol\":6983:6987  true */\n      0x01\n        /* \"@openzeppelin/contracts/access/AccessControl.sol\":6976:6987  return true */\n      swap1\n      pop\n      jump(tag_192)\n        /* \"@openzeppelin/contracts/access/AccessControl.sol\":6824:7041  if (hasRole(role, account)) {... */\n    tag_194:\n        /* \"@openzeppelin/contracts/access/AccessControl.sol\":7025:7030  false */\n      0x00\n        /* \"@openzeppelin/contracts/access/AccessControl.sol\":7018:7030  return false */\n      swap1\n      pop\n        /* \"@openzeppelin/contracts/access/AccessControl.sol\":6730:7047  function _revokeRole(bytes32 role, address account) internal virtual returns (bool) {... */\n    tag_192:\n      swap3\n      swap2\n      pop\n      pop\n      jump\t// out\n        /* \"@openzeppelin/contracts/access/Ownable.sol\":1796:1958  function _checkOwner() internal view virtual {... */\n    tag_145:\n        /* \"@openzeppelin/contracts/access/Ownable.sol\":1866:1878  _msgSender() */\n      tag_198\n        /* \"@openzeppelin/contracts/access/Ownable.sol\":1866:1876  _msgSender */\n      tag_130\n        /* \"@openzeppelin/contracts/access/Ownable.sol\":1866:1878  _msgSender() */\n      jump\t// in\n    tag_198:\n        /* \"@openzeppelin/contracts/access/Ownable.sol\":1855:1878  owner() != _msgSender() */\n      0xffffffffffffffffffffffffffffffffffffffff\n      and\n        /* \"@openzeppelin/contracts/access/Ownable.sol\":1855:1862  owner() */\n      tag_199\n        /* \"@openzeppelin/contracts/access/Ownable.sol\":1855:1860  owner */\n      tag_70\n        /* \"@openzeppelin/contracts/access/Ownable.sol\":1855:1862  owner() */\n      jump\t// in\n    tag_199:\n        /* \"@openzeppelin/contracts/access/Ownable.sol\":1855:1878  owner() != _msgSender() */\n      0xffffffffffffffffffffffffffffffffffffffff\n      and\n      eq\n        /* \"@openzeppelin/contracts/access/Ownable.sol\":1851:1952  if (owner() != _msgSender()) {... */\n      tag_200\n      jumpi\n        /* \"@openzeppelin/contracts/access/Ownable.sol\":1928:1940  _msgSender() */\n      tag_201\n        /* \"@openzeppelin/contracts/access/Ownable.sol\":1928:1938  _msgSender */\n      tag_130\n        /* \"@openzeppelin/contracts/access/Ownable.sol\":1928:1940  _msgSender() */\n      jump\t// in\n    tag_201:\n        /* \"@openzeppelin/contracts/access/Ownable.sol\":1901:1941  OwnableUnauthorizedAccount(_msgSender()) */\n      mload(0x40)\n      0x118cdaa700000000000000000000000000000000000000000000000000000000\n      dup2\n      mstore\n      0x04\n      add\n      tag_202\n      swap2\n      swap1\n      tag_72\n      jump\t// in\n    tag_202:\n      mload(0x40)\n      dup1\n      swap2\n      sub\n      swap1\n      revert\n        /* \"@openzeppelin/contracts/access/Ownable.sol\":1851:1952  if (owner() != _msgSender()) {... */\n    tag_200:\n        /* \"@openzeppelin/contracts/access/Ownable.sol\":1796:1958  function _checkOwner() internal view virtual {... */\n      jump\t// out\n        /* \"@openzeppelin/contracts/access/Ownable.sol\":2912:3099  function _transferOwnership(address newOwner) internal virtual {... */\n    tag_148:\n        /* \"@openzeppelin/contracts/access/Ownable.sol\":2985:3001  address oldOwner */\n      0x00\n        /* \"@openzeppelin/contracts/access/Ownable.sol\":3004:3010  _owner */\n      0x01\n      0x00\n      swap1\n      sload\n      swap1\n      0x0100\n      exp\n      swap1\n      div\n      0xffffffffffffffffffffffffffffffffffffffff\n      and\n        /* \"@openzeppelin/contracts/access/Ownable.sol\":2985:3010  address oldOwner = _owner */\n      swap1\n      pop\n        /* \"@openzeppelin/contracts/access/Ownable.sol\":3029:3037  newOwner */\n      dup2\n        /* \"@openzeppelin/contracts/access/Ownable.sol\":3020:3026  _owner */\n      0x01\n      0x00\n        /* \"@openzeppelin/contracts/access/Ownable.sol\":3020:3037  _owner = newOwner */\n      0x0100\n      exp\n      dup2\n      sload\n      dup2\n      0xffffffffffffffffffffffffffffffffffffffff\n      mul\n      not\n      and\n      swap1\n      dup4\n      0xffffffffffffffffffffffffffffffffffffffff\n      and\n      mul\n      or\n      swap1\n      sstore\n      pop\n        /* \"@openzeppelin/contracts/access/Ownable.sol\":3083:3091  newOwner */\n      dup2\n        /* \"@openzeppelin/contracts/access/Ownable.sol\":3052:3092  OwnershipTransferred(oldOwner, newOwner) */\n      0xffffffffffffffffffffffffffffffffffffffff\n      and\n        /* \"@openzeppelin/contracts/access/Ownable.sol\":3073:3081  oldOwner */\n      dup2\n        /* \"@openzeppelin/contracts/access/Ownable.sol\":3052:3092  OwnershipTransferred(oldOwner, newOwner) */\n      0xffffffffffffffffffffffffffffffffffffffff\n      and\n      0x8be0079c531659141344cd1fd0a4f28419497f9722a3daafe3b4186f6b6457e0\n      mload(0x40)\n      mload(0x40)\n      dup1\n      swap2\n      sub\n      swap1\n      log3\n        /* \"@openzeppelin/contracts/access/Ownable.sol\":2975:3099  {... */\n      pop\n        /* \"@openzeppelin/contracts/access/Ownable.sol\":2912:3099  function _transferOwnership(address newOwner) internal virtual {... */\n      pop\n      jump\t// out\n        /* \"@openzeppelin/contracts/access/AccessControl.sol\":3432:3629  function _checkRole(bytes32 role, address account) internal view virtual {... */\n    tag_185:\n        /* \"@openzeppelin/contracts/access/AccessControl.sol\":3520:3542  hasRole(role, account) */\n      tag_205\n        /* \"@openzeppelin/contracts/access/AccessControl.sol\":3528:3532  role */\n      dup3\n        /* \"@openzeppelin/contracts/access/AccessControl.sol\":3534:3541  account */\n      dup3\n        /* \"@openzeppelin/contracts/access/AccessControl.sol\":3520:3527  hasRole */\n      tag_75\n        /* \"@openzeppelin/contracts/access/AccessControl.sol\":3520:3542  hasRole(role, account) */\n      jump\t// in\n    tag_205:\n        /* \"@openzeppelin/contracts/access/AccessControl.sol\":3515:3623  if (!hasRole(role, account)) {... */\n      tag_206\n      jumpi\n        /* \"@openzeppelin/contracts/access/AccessControl.sol\":3598:3605  account */\n      dup1\n        /* \"@openzeppelin/contracts/access/AccessControl.sol\":3607:3611  role */\n      dup3\n        /* \"@openzeppelin/contracts/access/AccessControl.sol\":3565:3612  AccessControlUnauthorizedAccount(account, role) */\n      mload(0x40)\n      0xe2517d3f00000000000000000000000000000000000000000000000000000000\n      dup2\n      mstore\n      0x04\n      add\n      tag_207\n      swap3\n      swap2\n      swap1\n      tag_208\n      jump\t// in\n    tag_207:\n      mload(0x40)\n      dup1\n      swap2\n      sub\n      swap1\n      revert\n        /* \"@openzeppelin/contracts/access/AccessControl.sol\":3515:3623  if (!hasRole(role, account)) {... */\n    tag_206:\n        /* \"@openzeppelin/contracts/access/AccessControl.sol\":3432:3629  function _checkRole(bytes32 role, address account) internal view virtual {... */\n      pop\n      pop\n      jump\t// out\n        /* \"#utility.yul\":7:82   */\n    tag_209:\n        /* \"#utility.yul\":40:46   */\n      0x00\n        /* \"#utility.yul\":73:75   */\n      0x40\n        /* \"#utility.yul\":67:76   */\n      mload\n        /* \"#utility.yul\":57:76   */\n      swap1\n      pop\n        /* \"#utility.yul\":7:82   */\n      swap1\n      jump\t// out\n        /* \"#utility.yul\":88:205   */\n    tag_210:\n        /* \"#utility.yul\":197:198   */\n      0x00\n        /* \"#utility.yul\":194:195   */\n      dup1\n        /* \"#utility.yul\":187:199   */\n      revert\n        /* \"#utility.yul\":211:328   */\n    tag_211:\n        /* \"#utility.yul\":320:321   */\n      0x00\n        /* \"#utility.yul\":317:318   */\n      dup1\n        /* \"#utility.yul\":310:322   */\n      revert\n        /* \"#utility.yul\":334:483   */\n    tag_212:\n        /* \"#utility.yul\":370:377   */\n      0x00\n        /* \"#utility.yul\":410:476   */\n      0xffffffff00000000000000000000000000000000000000000000000000000000\n        /* \"#utility.yul\":403:408   */\n      dup3\n        /* \"#utility.yul\":399:477   */\n      and\n        /* \"#utility.yul\":388:477   */\n      swap1\n      pop\n        /* \"#utility.yul\":334:483   */\n      swap2\n      swap1\n      pop\n      jump\t// out\n        /* \"#utility.yul\":489:609   */\n    tag_213:\n        /* \"#utility.yul\":561:584   */\n      tag_269\n        /* \"#utility.yul\":578:583   */\n      dup2\n        /* \"#utility.yul\":561:584   */\n      tag_212\n      jump\t// in\n    tag_269:\n        /* \"#utility.yul\":554:559   */\n      dup2\n        /* \"#utility.yul\":551:585   */\n      eq\n        /* \"#utility.yul\":541:603   */\n      tag_270\n      jumpi\n        /* \"#utility.yul\":599:600   */\n      0x00\n        /* \"#utility.yul\":596:597   */\n      dup1\n        /* \"#utility.yul\":589:601   */\n      revert\n        /* \"#utility.yul\":541:603   */\n    tag_270:\n        /* \"#utility.yul\":489:609   */\n      pop\n      jump\t// out\n        /* \"#utility.yul\":615:752   */\n    tag_214:\n        /* \"#utility.yul\":660:665   */\n      0x00\n        /* \"#utility.yul\":698:704   */\n      dup2\n        /* \"#utility.yul\":685:705   */\n      calldataload\n        /* \"#utility.yul\":676:705   */\n      swap1\n      pop\n        /* \"#utility.yul\":714:746   */\n      tag_272\n        /* \"#utility.yul\":740:745   */\n      dup2\n        /* \"#utility.yul\":714:746   */\n      tag_213\n      jump\t// in\n    tag_272:\n        /* \"#utility.yul\":615:752   */\n      swap3\n      swap2\n      pop\n      pop\n      jump\t// out\n        /* \"#utility.yul\":758:1085   */\n    tag_26:\n        /* \"#utility.yul\":816:822   */\n      0x00\n        /* \"#utility.yul\":865:867   */\n      0x20\n        /* \"#utility.yul\":853:862   */\n      dup3\n        /* \"#utility.yul\":844:851   */\n      dup5\n        /* \"#utility.yul\":840:863   */\n      sub\n        /* \"#utility.yul\":836:868   */\n      slt\n        /* \"#utility.yul\":833:952   */\n      iszero\n      tag_274\n      jumpi\n        /* \"#utility.yul\":871:950   */\n      tag_275\n      tag_210\n      jump\t// in\n    tag_275:\n        /* \"#utility.yul\":833:952   */\n    tag_274:\n        /* \"#utility.yul\":991:992   */\n      0x00\n        /* \"#utility.yul\":1016:1068   */\n      tag_276\n        /* \"#utility.yul\":1060:1067   */\n      dup5\n        /* \"#utility.yul\":1051:1057   */\n      dup3\n        /* \"#utility.yul\":1040:1049   */\n      dup6\n        /* \"#utility.yul\":1036:1058   */\n      add\n        /* \"#utility.yul\":1016:1068   */\n      tag_214\n      jump\t// in\n    tag_276:\n        /* \"#utility.yul\":1006:1068   */\n      swap2\n      pop\n        /* \"#utility.yul\":962:1078   */\n      pop\n        /* \"#utility.yul\":758:1085   */\n      swap3\n      swap2\n      pop\n      pop\n      jump\t// out\n        /* \"#utility.yul\":1091:1181   */\n    tag_215:\n        /* \"#utility.yul\":1125:1132   */\n      0x00\n        /* \"#utility.yul\":1168:1173   */\n      dup2\n        /* \"#utility.yul\":1161:1174   */\n      iszero\n        /* \"#utility.yul\":1154:1175   */\n      iszero\n        /* \"#utility.yul\":1143:1175   */\n      swap1\n      pop\n        /* \"#utility.yul\":1091:1181   */\n      swap2\n      swap1\n      pop\n      jump\t// out\n        /* \"#utility.yul\":1187:1296   */\n    tag_216:\n        /* \"#utility.yul\":1268:1289   */\n      tag_279\n        /* \"#utility.yul\":1283:1288   */\n      dup2\n        /* \"#utility.yul\":1268:1289   */\n      tag_215\n      jump\t// in\n    tag_279:\n        /* \"#utility.yul\":1263:1266   */\n      dup3\n        /* \"#utility.yul\":1256:1290   */\n      mstore\n        /* \"#utility.yul\":1187:1296   */\n      pop\n      pop\n      jump\t// out\n        /* \"#utility.yul\":1302:1512   */\n    tag_29:\n        /* \"#utility.yul\":1389:1393   */\n      0x00\n        /* \"#utility.yul\":1427:1429   */\n      0x20\n        /* \"#utility.yul\":1416:1425   */\n      dup3\n        /* \"#utility.yul\":1412:1430   */\n      add\n        /* \"#utility.yul\":1404:1430   */\n      swap1\n      pop\n        /* \"#utility.yul\":1440:1505   */\n      tag_281\n        /* \"#utility.yul\":1502:1503   */\n      0x00\n        /* \"#utility.yul\":1491:1500   */\n      dup4\n        /* \"#utility.yul\":1487:1504   */\n      add\n        /* \"#utility.yul\":1478:1484   */\n      dup5\n        /* \"#utility.yul\":1440:1505   */\n      tag_216\n      jump\t// in\n    tag_281:\n        /* \"#utility.yul\":1302:1512   */\n      swap3\n      swap2\n      pop\n      pop\n      jump\t// out\n        /* \"#utility.yul\":1518:1595   */\n    tag_217:\n        /* \"#utility.yul\":1555:1562   */\n      0x00\n        /* \"#utility.yul\":1584:1589   */\n      dup2\n        /* \"#utility.yul\":1573:1589   */\n      swap1\n      pop\n        /* \"#utility.yul\":1518:1595   */\n      swap2\n      swap1\n      pop\n      jump\t// out\n        /* \"#utility.yul\":1601:1723   */\n    tag_218:\n        /* \"#utility.yul\":1674:1698   */\n      tag_284\n        /* \"#utility.yul\":1692:1697   */\n      dup2\n        /* \"#utility.yul\":1674:1698   */\n      tag_217\n      jump\t// in\n    tag_284:\n        /* \"#utility.yul\":1667:1672   */\n      dup2\n        /* \"#utility.yul\":1664:1699   */\n      eq\n        /* \"#utility.yul\":1654:1717   */\n      tag_285\n      jumpi\n        /* \"#utility.yul\":1713:1714   */\n      0x00\n        /* \"#utility.yul\":1710:1711   */\n      dup1\n        /* \"#utility.yul\":1703:1715   */\n      revert\n        /* \"#utility.yul\":1654:1717   */\n    tag_285:\n        /* \"#utility.yul\":1601:1723   */\n      pop\n      jump\t// out\n        /* \"#utility.yul\":1729:1868   */\n    tag_219:\n        /* \"#utility.yul\":1775:1780   */\n      0x00\n        /* \"#utility.yul\":1813:1819   */\n      dup2\n        /* \"#utility.yul\":1800:1820   */\n      calldataload\n        /* \"#utility.yul\":1791:1820   */\n      swap1\n      pop\n        /* \"#utility.yul\":1829:1862   */\n      tag_287\n        /* \"#utility.yul\":1856:1861   */\n      dup2\n        /* \"#utility.yul\":1829:1862   */\n      tag_218\n      jump\t// in\n    tag_287:\n        /* \"#utility.yul\":1729:1868   */\n      swap3\n      swap2\n      pop\n      pop\n      jump\t// out\n        /* \"#utility.yul\":1874:2785   */\n    tag_32:\n        /* \"#utility.yul\":1969:1975   */\n      0x00\n        /* \"#utility.yul\":1977:1983   */\n      dup1\n        /* \"#utility.yul\":1985:1991   */\n      0x00\n        /* \"#utility.yul\":1993:1999   */\n      dup1\n        /* \"#utility.yul\":2001:2007   */\n      0x00\n        /* \"#utility.yul\":2050:2053   */\n      0xa0\n        /* \"#utility.yul\":2038:2047   */\n      dup7\n        /* \"#utility.yul\":2029:2036   */\n      dup9\n        /* \"#utility.yul\":2025:2048   */\n      sub\n        /* \"#utility.yul\":2021:2054   */\n      slt\n        /* \"#utility.yul\":2018:2138   */\n      iszero\n      tag_289\n      jumpi\n        /* \"#utility.yul\":2057:2136   */\n      tag_290\n      tag_210\n      jump\t// in\n    tag_290:\n        /* \"#utility.yul\":2018:2138   */\n    tag_289:\n        /* \"#utility.yul\":2177:2178   */\n      0x00\n        /* \"#utility.yul\":2202:2255   */\n      tag_291\n        /* \"#utility.yul\":2247:2254   */\n      dup9\n        /* \"#utility.yul\":2238:2244   */\n      dup3\n        /* \"#utility.yul\":2227:2236   */\n      dup10\n        /* \"#utility.yul\":2223:2245   */\n      add\n        /* \"#utility.yul\":2202:2255   */\n      tag_219\n      jump\t// in\n    tag_291:\n        /* \"#utility.yul\":2192:2255   */\n      swap6\n      pop\n        /* \"#utility.yul\":2148:2265   */\n      pop\n        /* \"#utility.yul\":2304:2306   */\n      0x20\n        /* \"#utility.yul\":2330:2383   */\n      tag_292\n        /* \"#utility.yul\":2375:2382   */\n      dup9\n        /* \"#utility.yul\":2366:2372   */\n      dup3\n        /* \"#utility.yul\":2355:2364   */\n      dup10\n        /* \"#utility.yul\":2351:2373   */\n      add\n        /* \"#utility.yul\":2330:2383   */\n      tag_219\n      jump\t// in\n    tag_292:\n        /* \"#utility.yul\":2320:2383   */\n      swap5\n      pop\n        /* \"#utility.yul\":2275:2393   */\n      pop\n        /* \"#utility.yul\":2432:2434   */\n      0x40\n        /* \"#utility.yul\":2458:2511   */\n      tag_293\n        /* \"#utility.yul\":2503:2510   */\n      dup9\n        /* \"#utility.yul\":2494:2500   */\n      dup3\n        /* \"#utility.yul\":2483:2492   */\n      dup10\n        /* \"#utility.yul\":2479:2501   */\n      add\n        /* \"#utility.yul\":2458:2511   */\n      tag_219\n      jump\t// in\n    tag_293:\n        /* \"#utility.yul\":2448:2511   */\n      swap4\n      pop\n        /* \"#utility.yul\":2403:2521   */\n      pop\n        /* \"#utility.yul\":2560:2562   */\n      0x60\n        /* \"#utility.yul\":2586:2639   */\n      tag_294\n        /* \"#utility.yul\":2631:2638   */\n      dup9\n        /* \"#utility.yul\":2622:2628   */\n      dup3\n        /* \"#utility.yul\":2611:2620   */\n      dup10\n        /* \"#utility.yul\":2607:2629   */\n      add\n        /* \"#utility.yul\":2586:2639   */\n      tag_219\n      jump\t// in\n    tag_294:\n        /* \"#utility.yul\":2576:2639   */\n      swap3\n      pop\n        /* \"#utility.yul\":2531:2649   */\n      pop\n        /* \"#utility.yul\":2688:2691   */\n      0x80\n        /* \"#utility.yul\":2715:2768   */\n      tag_295\n        /* \"#utility.yul\":2760:2767   */\n      dup9\n        /* \"#utility.yul\":2751:2757   */\n      dup3\n        /* \"#utility.yul\":2740:2749   */\n      dup10\n        /* \"#utility.yul\":2736:2758   */\n      add\n        /* \"#utility.yul\":2715:2768   */\n      tag_219\n      jump\t// in\n    tag_295:\n        /* \"#utility.yul\":2705:2768   */\n      swap2\n      pop\n        /* \"#utility.yul\":2659:2778   */\n      pop\n        /* \"#utility.yul\":1874:2785   */\n      swap3\n      swap6\n      pop\n      swap3\n      swap6\n      swap1\n      swap4\n      pop\n      jump\t// out\n        /* \"#utility.yul\":2791:3120   */\n    tag_36:\n        /* \"#utility.yul\":2850:2856   */\n      0x00\n        /* \"#utility.yul\":2899:2901   */\n      0x20\n        /* \"#utility.yul\":2887:2896   */\n      dup3\n        /* \"#utility.yul\":2878:2885   */\n      dup5\n        /* \"#utility.yul\":2874:2897   */\n      sub\n        /* \"#utility.yul\":2870:2902   */\n      slt\n        /* \"#utility.yul\":2867:2986   */\n      iszero\n      tag_297\n      jumpi\n        /* \"#utility.yul\":2905:2984   */\n      tag_298\n      tag_210\n      jump\t// in\n    tag_298:\n        /* \"#utility.yul\":2867:2986   */\n    tag_297:\n        /* \"#utility.yul\":3025:3026   */\n      0x00\n        /* \"#utility.yul\":3050:3103   */\n      tag_299\n        /* \"#utility.yul\":3095:3102   */\n      dup5\n        /* \"#utility.yul\":3086:3092   */\n      dup3\n        /* \"#utility.yul\":3075:3084   */\n      dup6\n        /* \"#utility.yul\":3071:3093   */\n      add\n        /* \"#utility.yul\":3050:3103   */\n      tag_219\n      jump\t// in\n    tag_299:\n        /* \"#utility.yul\":3040:3103   */\n      swap2\n      pop\n        /* \"#utility.yul\":2996:3113   */\n      pop\n        /* \"#utility.yul\":2791:3120   */\n      swap3\n      swap2\n      pop\n      pop\n      jump\t// out\n        /* \"#utility.yul\":3126:3244   */\n    tag_220:\n        /* \"#utility.yul\":3213:3237   */\n      tag_301\n        /* \"#utility.yul\":3231:3236   */\n      dup2\n        /* \"#utility.yul\":3213:3237   */\n      tag_217\n      jump\t// in\n    tag_301:\n        /* \"#utility.yul\":3208:3211   */\n      dup3\n        /* \"#utility.yul\":3201:3238   */\n      mstore\n        /* \"#utility.yul\":3126:3244   */\n      pop\n      pop\n      jump\t// out\n        /* \"#utility.yul\":3250:3376   */\n    tag_221:\n        /* \"#utility.yul\":3287:3294   */\n      0x00\n        /* \"#utility.yul\":3327:3369   */\n      0xffffffffffffffffffffffffffffffffffffffff\n        /* \"#utility.yul\":3320:3325   */\n      dup3\n        /* \"#utility.yul\":3316:3370   */\n      and\n        /* \"#utility.yul\":3305:3370   */\n      swap1\n      pop\n        /* \"#utility.yul\":3250:3376   */\n      swap2\n      swap1\n      pop\n      jump\t// out\n        /* \"#utility.yul\":3382:3478   */\n    tag_222:\n        /* \"#utility.yul\":3419:3426   */\n      0x00\n        /* \"#utility.yul\":3448:3472   */\n      tag_304\n        /* \"#utility.yul\":3466:3471   */\n      dup3\n        /* \"#utility.yul\":3448:3472   */\n      tag_221\n      jump\t// in\n    tag_304:\n        /* \"#utility.yul\":3437:3472   */\n      swap1\n      pop\n        /* \"#utility.yul\":3382:3478   */\n      swap2\n      swap1\n      pop\n      jump\t// out\n        /* \"#utility.yul\":3484:3602   */\n    tag_223:\n        /* \"#utility.yul\":3571:3595   */\n      tag_306\n        /* \"#utility.yul\":3589:3594   */\n      dup2\n        /* \"#utility.yul\":3571:3595   */\n      tag_222\n      jump\t// in\n    tag_306:\n        /* \"#utility.yul\":3566:3569   */\n      dup3\n        /* \"#utility.yul\":3559:3596   */\n      mstore\n        /* \"#utility.yul\":3484:3602   */\n      pop\n      pop\n      jump\t// out\n        /* \"#utility.yul\":3608:3707   */\n    tag_224:\n        /* \"#utility.yul\":3660:3666   */\n      0x00\n        /* \"#utility.yul\":3694:3699   */\n      dup2\n        /* \"#utility.yul\":3688:3700   */\n      mload\n        /* \"#utility.yul\":3678:3700   */\n      swap1\n      pop\n        /* \"#utility.yul\":3608:3707   */\n      swap2\n      swap1\n      pop\n      jump\t// out\n        /* \"#utility.yul\":3713:3882   */\n    tag_225:\n        /* \"#utility.yul\":3797:3808   */\n      0x00\n        /* \"#utility.yul\":3831:3837   */\n      dup3\n        /* \"#utility.yul\":3826:3829   */\n      dup3\n        /* \"#utility.yul\":3819:3838   */\n      mstore\n        /* \"#utility.yul\":3871:3875   */\n      0x20\n        /* \"#utility.yul\":3866:3869   */\n      dup3\n        /* \"#utility.yul\":3862:3876   */\n      add\n        /* \"#utility.yul\":3847:3876   */\n      swap1\n      pop\n        /* \"#utility.yul\":3713:3882   */\n      swap3\n      swap2\n      pop\n      pop\n      jump\t// out\n        /* \"#utility.yul\":3888:4134   */\n    tag_226:\n        /* \"#utility.yul\":3969:3970   */\n      0x00\n        /* \"#utility.yul\":3979:4092   */\n    tag_310:\n        /* \"#utility.yul\":3993:3999   */\n      dup4\n        /* \"#utility.yul\":3990:3991   */\n      dup2\n        /* \"#utility.yul\":3987:4000   */\n      lt\n        /* \"#utility.yul\":3979:4092   */\n      iszero\n      tag_312\n      jumpi\n        /* \"#utility.yul\":4078:4079   */\n      dup1\n        /* \"#utility.yul\":4073:4076   */\n      dup3\n        /* \"#utility.yul\":4069:4080   */\n      add\n        /* \"#utility.yul\":4063:4081   */\n      mload\n        /* \"#utility.yul\":4059:4060   */\n      dup2\n        /* \"#utility.yul\":4054:4057   */\n      dup5\n        /* \"#utility.yul\":4050:4061   */\n      add\n        /* \"#utility.yul\":4043:4082   */\n      mstore\n        /* \"#utility.yul\":4015:4017   */\n      0x20\n        /* \"#utility.yul\":4012:4013   */\n      dup2\n        /* \"#utility.yul\":4008:4018   */\n      add\n        /* \"#utility.yul\":4003:4018   */\n      swap1\n      pop\n        /* \"#utility.yul\":3979:4092   */\n      jump(tag_310)\n    tag_312:\n        /* \"#utility.yul\":4126:4127   */\n      0x00\n        /* \"#utility.yul\":4117:4123   */\n      dup5\n        /* \"#utility.yul\":4112:4115   */\n      dup5\n        /* \"#utility.yul\":4108:4124   */\n      add\n        /* \"#utility.yul\":4101:4128   */\n      mstore\n        /* \"#utility.yul\":3950:4134   */\n      pop\n        /* \"#utility.yul\":3888:4134   */\n      pop\n      pop\n      pop\n      jump\t// out\n        /* \"#utility.yul\":4140:4242   */\n    tag_227:\n        /* \"#utility.yul\":4181:4187   */\n      0x00\n        /* \"#utility.yul\":4232:4234   */\n      0x1f\n        /* \"#utility.yul\":4228:4235   */\n      not\n        /* \"#utility.yul\":4223:4225   */\n      0x1f\n        /* \"#utility.yul\":4216:4221   */\n      dup4\n        /* \"#utility.yul\":4212:4226   */\n      add\n        /* \"#utility.yul\":4208:4236   */\n      and\n        /* \"#utility.yul\":4198:4236   */\n      swap1\n      pop\n        /* \"#utility.yul\":4140:4242   */\n      swap2\n      swap1\n      pop\n      jump\t// out\n        /* \"#utility.yul\":4248:4625   */\n    tag_228:\n        /* \"#utility.yul\":4336:4339   */\n      0x00\n        /* \"#utility.yul\":4364:4403   */\n      tag_315\n        /* \"#utility.yul\":4397:4402   */\n      dup3\n        /* \"#utility.yul\":4364:4403   */\n      tag_224\n      jump\t// in\n    tag_315:\n        /* \"#utility.yul\":4419:4490   */\n      tag_316\n        /* \"#utility.yul\":4483:4489   */\n      dup2\n        /* \"#utility.yul\":4478:4481   */\n      dup6\n        /* \"#utility.yul\":4419:4490   */\n      tag_225\n      jump\t// in\n    tag_316:\n        /* \"#utility.yul\":4412:4490   */\n      swap4\n      pop\n        /* \"#utility.yul\":4499:4564   */\n      tag_317\n        /* \"#utility.yul\":4557:4563   */\n      dup2\n        /* \"#utility.yul\":4552:4555   */\n      dup6\n        /* \"#utility.yul\":4545:4549   */\n      0x20\n        /* \"#utility.yul\":4538:4543   */\n      dup7\n        /* \"#utility.yul\":4534:4550   */\n      add\n        /* \"#utility.yul\":4499:4564   */\n      tag_226\n      jump\t// in\n    tag_317:\n        /* \"#utility.yul\":4589:4618   */\n      tag_318\n        /* \"#utility.yul\":4611:4617   */\n      dup2\n        /* \"#utility.yul\":4589:4618   */\n      tag_227\n      jump\t// in\n    tag_318:\n        /* \"#utility.yul\":4584:4587   */\n      dup5\n        /* \"#utility.yul\":4580:4619   */\n      add\n        /* \"#utility.yul\":4573:4619   */\n      swap2\n      pop\n        /* \"#utility.yul\":4340:4625   */\n      pop\n        /* \"#utility.yul\":4248:4625   */\n      swap3\n      swap2\n      pop\n      pop\n      jump\t// out\n        /* \"#utility.yul\":4631:6224   */\n    tag_39:\n        /* \"#utility.yul\":5059:5063   */\n      0x00\n        /* \"#utility.yul\":5097:5100   */\n      0x0160\n        /* \"#utility.yul\":5086:5095   */\n      dup3\n        /* \"#utility.yul\":5082:5101   */\n      add\n        /* \"#utility.yul\":5074:5101   */\n      swap1\n      pop\n        /* \"#utility.yul\":5111:5182   */\n      tag_320\n        /* \"#utility.yul\":5179:5180   */\n      0x00\n        /* \"#utility.yul\":5168:5177   */\n      dup4\n        /* \"#utility.yul\":5164:5181   */\n      add\n        /* \"#utility.yul\":5155:5161   */\n      dup15\n        /* \"#utility.yul\":5111:5182   */\n      tag_220\n      jump\t// in\n    tag_320:\n        /* \"#utility.yul\":5192:5264   */\n      tag_321\n        /* \"#utility.yul\":5260:5262   */\n      0x20\n        /* \"#utility.yul\":5249:5258   */\n      dup4\n        /* \"#utility.yul\":5245:5263   */\n      add\n        /* \"#utility.yul\":5236:5242   */\n      dup14\n        /* \"#utility.yul\":5192:5264   */\n      tag_223\n      jump\t// in\n    tag_321:\n        /* \"#utility.yul\":5311:5320   */\n      dup2\n        /* \"#utility.yul\":5305:5309   */\n      dup2\n        /* \"#utility.yul\":5301:5321   */\n      sub\n        /* \"#utility.yul\":5296:5298   */\n      0x40\n        /* \"#utility.yul\":5285:5294   */\n      dup4\n        /* \"#utility.yul\":5281:5299   */\n      add\n        /* \"#utility.yul\":5274:5322   */\n      mstore\n        /* \"#utility.yul\":5339:5417   */\n      tag_322\n        /* \"#utility.yul\":5412:5416   */\n      dup2\n        /* \"#utility.yul\":5403:5409   */\n      dup13\n        /* \"#utility.yul\":5339:5417   */\n      tag_228\n      jump\t// in\n    tag_322:\n        /* \"#utility.yul\":5331:5417   */\n      swap1\n      pop\n        /* \"#utility.yul\":5464:5473   */\n      dup2\n        /* \"#utility.yul\":5458:5462   */\n      dup2\n        /* \"#utility.yul\":5454:5474   */\n      sub\n        /* \"#utility.yul\":5449:5451   */\n      0x60\n        /* \"#utility.yul\":5438:5447   */\n      dup4\n        /* \"#utility.yul\":5434:5452   */\n      add\n        /* \"#utility.yul\":5427:5475   */\n      mstore\n        /* \"#utility.yul\":5492:5570   */\n      tag_323\n        /* \"#utility.yul\":5565:5569   */\n      dup2\n        /* \"#utility.yul\":5556:5562   */\n      dup12\n        /* \"#utility.yul\":5492:5570   */\n      tag_228\n      jump\t// in\n    tag_323:\n        /* \"#utility.yul\":5484:5570   */\n      swap1\n      pop\n        /* \"#utility.yul\":5580:5653   */\n      tag_324\n        /* \"#utility.yul\":5648:5651   */\n      0x80\n        /* \"#utility.yul\":5637:5646   */\n      dup4\n        /* \"#utility.yul\":5633:5652   */\n      add\n        /* \"#utility.yul\":5624:5630   */\n      dup11\n        /* \"#utility.yul\":5580:5653   */\n      tag_220\n      jump\t// in\n    tag_324:\n        /* \"#utility.yul\":5663:5736   */\n      tag_325\n        /* \"#utility.yul\":5731:5734   */\n      0xa0\n        /* \"#utility.yul\":5720:5729   */\n      dup4\n        /* \"#utility.yul\":5716:5735   */\n      add\n        /* \"#utility.yul\":5707:5713   */\n      dup10\n        /* \"#utility.yul\":5663:5736   */\n      tag_220\n      jump\t// in\n    tag_325:\n        /* \"#utility.yul\":5784:5793   */\n      dup2\n        /* \"#utility.yul\":5778:5782   */\n      dup2\n        /* \"#utility.yul\":5774:5794   */\n      sub\n        /* \"#utility.yul\":5768:5771   */\n      0xc0\n        /* \"#utility.yul\":5757:5766   */\n      dup4\n        /* \"#utility.yul\":5753:5772   */\n      add\n        /* \"#utility.yul\":5746:5795   */\n      mstore\n        /* \"#utility.yul\":5812:5890   */\n      tag_326\n        /* \"#utility.yul\":5885:5889   */\n      dup2\n        /* \"#utility.yul\":5876:5882   */\n      dup9\n        /* \"#utility.yul\":5812:5890   */\n      tag_228\n      jump\t// in\n    tag_326:\n        /* \"#utility.yul\":5804:5890   */\n      swap1\n      pop\n        /* \"#utility.yul\":5900:5973   */\n      tag_327\n        /* \"#utility.yul\":5968:5971   */\n      0xe0\n        /* \"#utility.yul\":5957:5966   */\n      dup4\n        /* \"#utility.yul\":5953:5972   */\n      add\n        /* \"#utility.yul\":5944:5950   */\n      dup8\n        /* \"#utility.yul\":5900:5973   */\n      tag_220\n      jump\t// in\n    tag_327:\n        /* \"#utility.yul\":5983:6056   */\n      tag_328\n        /* \"#utility.yul\":6051:6054   */\n      0x0100\n        /* \"#utility.yul\":6040:6049   */\n      dup4\n        /* \"#utility.yul\":6036:6055   */\n      add\n        /* \"#utility.yul\":6027:6033   */\n      dup7\n        /* \"#utility.yul\":5983:6056   */\n      tag_220\n      jump\t// in\n    tag_328:\n        /* \"#utility.yul\":6066:6139   */\n      tag_329\n        /* \"#utility.yul\":6134:6137   */\n      0x0120\n        /* \"#utility.yul\":6123:6132   */\n      dup4\n        /* \"#utility.yul\":6119:6138   */\n      add\n        /* \"#utility.yul\":6110:6116   */\n      dup6\n        /* \"#utility.yul\":6066:6139   */\n      tag_220\n      jump\t// in\n    tag_329:\n        /* \"#utility.yul\":6149:6217   */\n      tag_330\n        /* \"#utility.yul\":6212:6215   */\n      0x0140\n        /* \"#utility.yul\":6201:6210   */\n      dup4\n        /* \"#utility.yul\":6197:6216   */\n      add\n        /* \"#utility.yul\":6187:6194   */\n      dup5\n        /* \"#utility.yul\":6149:6217   */\n      tag_216\n      jump\t// in\n    tag_330:\n        /* \"#utility.yul\":4631:6224   */\n      swap13\n      swap12\n      pop\n      pop\n      pop\n      pop\n      pop\n      pop\n      pop\n      pop\n      pop\n      pop\n      pop\n      pop\n      jump\t// out\n        /* \"#utility.yul\":6230:6307   */\n    tag_229:\n        /* \"#utility.yul\":6267:6274   */\n      0x00\n        /* \"#utility.yul\":6296:6301   */\n      dup2\n        /* \"#utility.yul\":6285:6301   */\n      swap1\n      pop\n        /* \"#utility.yul\":6230:6307   */\n      swap2\n      swap1\n      pop\n      jump\t// out\n        /* \"#utility.yul\":6313:6435   */\n    tag_230:\n        /* \"#utility.yul\":6386:6410   */\n      tag_333\n        /* \"#utility.yul\":6404:6409   */\n      dup2\n        /* \"#utility.yul\":6386:6410   */\n      tag_229\n      jump\t// in\n    tag_333:\n        /* \"#utility.yul\":6379:6384   */\n      dup2\n        /* \"#utility.yul\":6376:6411   */\n      eq\n        /* \"#utility.yul\":6366:6429   */\n      tag_334\n      jumpi\n        /* \"#utility.yul\":6425:6426   */\n      0x00\n        /* \"#utility.yul\":6422:6423   */\n      dup1\n        /* \"#utility.yul\":6415:6427   */\n      revert\n        /* \"#utility.yul\":6366:6429   */\n    tag_334:\n        /* \"#utility.yul\":6313:6435   */\n      pop\n      jump\t// out\n        /* \"#utility.yul\":6441:6580   */\n    tag_231:\n        /* \"#utility.yul\":6487:6492   */\n      0x00\n        /* \"#utility.yul\":6525:6531   */\n      dup2\n        /* \"#utility.yul\":6512:6532   */\n      calldataload\n        /* \"#utility.yul\":6503:6532   */\n      swap1\n      pop\n        /* \"#utility.yul\":6541:6574   */\n      tag_336\n        /* \"#utility.yul\":6568:6573   */\n      dup2\n        /* \"#utility.yul\":6541:6574   */\n      tag_230\n      jump\t// in\n    tag_336:\n        /* \"#utility.yul\":6441:6580   */\n      swap3\n      swap2\n      pop\n      pop\n      jump\t// out\n        /* \"#utility.yul\":6586:6915   */\n    tag_42:\n        /* \"#utility.yul\":6645:6651   */\n      0x00\n        /* \"#utility.yul\":6694:6696   */\n      0x20\n        /* \"#utility.yul\":6682:6691   */\n      dup3\n        /* \"#utility.yul\":6673:6680   */\n      dup5\n        /* \"#utility.yul\":6669:6692   */\n      sub\n        /* \"#utility.yul\":6665:6697   */\n      slt\n        /* \"#utility.yul\":6662:6781   */\n      iszero\n      tag_338\n      jumpi\n        /* \"#utility.yul\":6700:6779   */\n      tag_339\n      tag_210\n      jump\t// in\n    tag_339:\n        /* \"#utility.yul\":6662:6781   */\n    tag_338:\n        /* \"#utility.yul\":6820:6821   */\n      0x00\n        /* \"#utility.yul\":6845:6898   */\n      tag_340\n        /* \"#utility.yul\":6890:6897   */\n      dup5\n        /* \"#utility.yul\":6881:6887   */\n      dup3\n        /* \"#utility.yul\":6870:6879   */\n      dup6\n        /* \"#utility.yul\":6866:6888   */\n      add\n        /* \"#utility.yul\":6845:6898   */\n      tag_231\n      jump\t// in\n    tag_340:\n        /* \"#utility.yul\":6835:6898   */\n      swap2\n      pop\n        /* \"#utility.yul\":6791:6908   */\n      pop\n        /* \"#utility.yul\":6586:6915   */\n      swap3\n      swap2\n      pop\n      pop\n      jump\t// out\n        /* \"#utility.yul\":6921:7039   */\n    tag_232:\n        /* \"#utility.yul\":7008:7032   */\n      tag_342\n        /* \"#utility.yul\":7026:7031   */\n      dup2\n        /* \"#utility.yul\":7008:7032   */\n      tag_229\n      jump\t// in\n    tag_342:\n        /* \"#utility.yul\":7003:7006   */\n      dup3\n        /* \"#utility.yul\":6996:7033   */\n      mstore\n        /* \"#utility.yul\":6921:7039   */\n      pop\n      pop\n      jump\t// out\n        /* \"#utility.yul\":7045:7267   */\n    tag_45:\n        /* \"#utility.yul\":7138:7142   */\n      0x00\n        /* \"#utility.yul\":7176:7178   */\n      0x20\n        /* \"#utility.yul\":7165:7174   */\n      dup3\n        /* \"#utility.yul\":7161:7179   */\n      add\n        /* \"#utility.yul\":7153:7179   */\n      swap1\n      pop\n        /* \"#utility.yul\":7189:7260   */\n      tag_344\n        /* \"#utility.yul\":7257:7258   */\n      0x00\n        /* \"#utility.yul\":7246:7255   */\n      dup4\n        /* \"#utility.yul\":7242:7259   */\n      add\n        /* \"#utility.yul\":7233:7239   */\n      dup5\n        /* \"#utility.yul\":7189:7260   */\n      tag_232\n      jump\t// in\n    tag_344:\n        /* \"#utility.yul\":7045:7267   */\n      swap3\n      swap2\n      pop\n      pop\n      jump\t// out\n        /* \"#utility.yul\":7273:7395   */\n    tag_233:\n        /* \"#utility.yul\":7346:7370   */\n      tag_346\n        /* \"#utility.yul\":7364:7369   */\n      dup2\n        /* \"#utility.yul\":7346:7370   */\n      tag_222\n      jump\t// in\n    tag_346:\n        /* \"#utility.yul\":7339:7344   */\n      dup2\n        /* \"#utility.yul\":7336:7371   */\n      eq\n        /* \"#utility.yul\":7326:7389   */\n      tag_347\n      jumpi\n        /* \"#utility.yul\":7385:7386   */\n      0x00\n        /* \"#utility.yul\":7382:7383   */\n      dup1\n        /* \"#utility.yul\":7375:7387   */\n      revert\n        /* \"#utility.yul\":7326:7389   */\n    tag_347:\n        /* \"#utility.yul\":7273:7395   */\n      pop\n      jump\t// out\n        /* \"#utility.yul\":7401:7540   */\n    tag_234:\n        /* \"#utility.yul\":7447:7452   */\n      0x00\n        /* \"#utility.yul\":7485:7491   */\n      dup2\n        /* \"#utility.yul\":7472:7492   */\n      calldataload\n        /* \"#utility.yul\":7463:7492   */\n      swap1\n      pop\n        /* \"#utility.yul\":7501:7534   */\n      tag_349\n        /* \"#utility.yul\":7528:7533   */\n      dup2\n        /* \"#utility.yul\":7501:7534   */\n      tag_233\n      jump\t// in\n    tag_349:\n        /* \"#utility.yul\":7401:7540   */\n      swap3\n      swap2\n      pop\n      pop\n      jump\t// out\n        /* \"#utility.yul\":7546:8020   */\n    tag_48:\n        /* \"#utility.yul\":7614:7620   */\n      0x00\n        /* \"#utility.yul\":7622:7628   */\n      dup1\n        /* \"#utility.yul\":7671:7673   */\n      0x40\n        /* \"#utility.yul\":7659:7668   */\n      dup4\n        /* \"#utility.yul\":7650:7657   */\n      dup6\n        /* \"#utility.yul\":7646:7669   */\n      sub\n        /* \"#utility.yul\":7642:7674   */\n      slt\n        /* \"#utility.yul\":7639:7758   */\n      iszero\n      tag_351\n      jumpi\n        /* \"#utility.yul\":7677:7756   */\n      tag_352\n      tag_210\n      jump\t// in\n    tag_352:\n        /* \"#utility.yul\":7639:7758   */\n    tag_351:\n        /* \"#utility.yul\":7797:7798   */\n      0x00\n        /* \"#utility.yul\":7822:7875   */\n      tag_353\n        /* \"#utility.yul\":7867:7874   */\n      dup6\n        /* \"#utility.yul\":7858:7864   */\n      dup3\n        /* \"#utility.yul\":7847:7856   */\n      dup7\n        /* \"#utility.yul\":7843:7865   */\n      add\n        /* \"#utility.yul\":7822:7875   */\n      tag_231\n      jump\t// in\n    tag_353:\n        /* \"#utility.yul\":7812:7875   */\n      swap3\n      pop\n        /* \"#utility.yul\":7768:7885   */\n      pop\n        /* \"#utility.yul\":7924:7926   */\n      0x20\n        /* \"#utility.yul\":7950:8003   */\n      tag_354\n        /* \"#utility.yul\":7995:8002   */\n      dup6\n        /* \"#utility.yul\":7986:7992   */\n      dup3\n        /* \"#utility.yul\":7975:7984   */\n      dup7\n        /* \"#utility.yul\":7971:7993   */\n      add\n        /* \"#utility.yul\":7950:8003   */\n      tag_234\n      jump\t// in\n    tag_354:\n        /* \"#utility.yul\":7940:8003   */\n      swap2\n      pop\n        /* \"#utility.yul\":7895:8013   */\n      pop\n        /* \"#utility.yul\":7546:8020   */\n      swap3\n      pop\n      swap3\n      swap1\n      pop\n      jump\t// out\n        /* \"#utility.yul\":8026:8248   */\n    tag_56:\n        /* \"#utility.yul\":8119:8123   */\n      0x00\n        /* \"#utility.yul\":8157:8159   */\n      0x20\n        /* \"#utility.yul\":8146:8155   */\n      dup3\n        /* \"#utility.yul\":8142:8160   */\n      add\n        /* \"#utility.yul\":8134:8160   */\n      swap1\n      pop\n        /* \"#utility.yul\":8170:8241   */\n      tag_356\n        /* \"#utility.yul\":8238:8239   */\n      0x00\n        /* \"#utility.yul\":8227:8236   */\n      dup4\n        /* \"#utility.yul\":8223:8240   */\n      add\n        /* \"#utility.yul\":8214:8220   */\n      dup5\n        /* \"#utility.yul\":8170:8241   */\n      tag_220\n      jump\t// in\n    tag_356:\n        /* \"#utility.yul\":8026:8248   */\n      swap3\n      swap2\n      pop\n      pop\n      jump\t// out\n        /* \"#utility.yul\":8254:8371   */\n    tag_235:\n        /* \"#utility.yul\":8363:8364   */\n      0x00\n        /* \"#utility.yul\":8360:8361   */\n      dup1\n        /* \"#utility.yul\":8353:8365   */\n      revert\n        /* \"#utility.yul\":8377:8494   */\n    tag_236:\n        /* \"#utility.yul\":8486:8487   */\n      0x00\n        /* \"#utility.yul\":8483:8484   */\n      dup1\n        /* \"#utility.yul\":8476:8488   */\n      revert\n        /* \"#utility.yul\":8500:8680   */\n    tag_237:\n        /* \"#utility.yul\":8548:8625   */\n      0x4e487b7100000000000000000000000000000000000000000000000000000000\n        /* \"#utility.yul\":8545:8546   */\n      0x00\n        /* \"#utility.yul\":8538:8626   */\n      mstore\n        /* \"#utility.yul\":8645:8649   */\n      0x41\n        /* \"#utility.yul\":8642:8643   */\n      0x04\n        /* \"#utility.yul\":8635:8650   */\n      mstore\n        /* \"#utility.yul\":8669:8673   */\n      0x24\n        /* \"#utility.yul\":8666:8667   */\n      0x00\n        /* \"#utility.yul\":8659:8674   */\n      revert\n        /* \"#utility.yul\":8686:8967   */\n    tag_238:\n        /* \"#utility.yul\":8769:8796   */\n      tag_361\n        /* \"#utility.yul\":8791:8795   */\n      dup3\n        /* \"#utility.yul\":8769:8796   */\n      tag_227\n      jump\t// in\n    tag_361:\n        /* \"#utility.yul\":8761:8767   */\n      dup2\n        /* \"#utility.yul\":8757:8797   */\n      add\n        /* \"#utility.yul\":8899:8905   */\n      dup2\n        /* \"#utility.yul\":8887:8897   */\n      dup2\n        /* \"#utility.yul\":8884:8906   */\n      lt\n        /* \"#utility.yul\":8863:8881   */\n      0xffffffffffffffff\n        /* \"#utility.yul\":8851:8861   */\n      dup3\n        /* \"#utility.yul\":8848:8882   */\n      gt\n        /* \"#utility.yul\":8845:8907   */\n      or\n        /* \"#utility.yul\":8842:8930   */\n      iszero\n      tag_362\n      jumpi\n        /* \"#utility.yul\":8910:8928   */\n      tag_363\n      tag_237\n      jump\t// in\n    tag_363:\n        /* \"#utility.yul\":8842:8930   */\n    tag_362:\n        /* \"#utility.yul\":8950:8960   */\n      dup1\n        /* \"#utility.yul\":8946:8948   */\n      0x40\n        /* \"#utility.yul\":8939:8961   */\n      mstore\n        /* \"#utility.yul\":8729:8967   */\n      pop\n        /* \"#utility.yul\":8686:8967   */\n      pop\n      pop\n      jump\t// out\n        /* \"#utility.yul\":8973:9102   */\n    tag_239:\n        /* \"#utility.yul\":9007:9013   */\n      0x00\n        /* \"#utility.yul\":9034:9054   */\n      tag_365\n      tag_209\n      jump\t// in\n    tag_365:\n        /* \"#utility.yul\":9024:9054   */\n      swap1\n      pop\n        /* \"#utility.yul\":9063:9096   */\n      tag_366\n        /* \"#utility.yul\":9091:9095   */\n      dup3\n        /* \"#utility.yul\":9083:9089   */\n      dup3\n        /* \"#utility.yul\":9063:9096   */\n      tag_238\n      jump\t// in\n    tag_366:\n        /* \"#utility.yul\":8973:9102   */\n      swap2\n      swap1\n      pop\n      jump\t// out\n        /* \"#utility.yul\":9108:9416   */\n    tag_240:\n        /* \"#utility.yul\":9170:9174   */\n      0x00\n        /* \"#utility.yul\":9260:9278   */\n      0xffffffffffffffff\n        /* \"#utility.yul\":9252:9258   */\n      dup3\n        /* \"#utility.yul\":9249:9279   */\n      gt\n        /* \"#utility.yul\":9246:9302   */\n      iszero\n      tag_368\n      jumpi\n        /* \"#utility.yul\":9282:9300   */\n      tag_369\n      tag_237\n      jump\t// in\n    tag_369:\n        /* \"#utility.yul\":9246:9302   */\n    tag_368:\n        /* \"#utility.yul\":9320:9349   */\n      tag_370\n        /* \"#utility.yul\":9342:9348   */\n      dup3\n        /* \"#utility.yul\":9320:9349   */\n      tag_227\n      jump\t// in\n    tag_370:\n        /* \"#utility.yul\":9312:9349   */\n      swap1\n      pop\n        /* \"#utility.yul\":9404:9408   */\n      0x20\n        /* \"#utility.yul\":9398:9402   */\n      dup2\n        /* \"#utility.yul\":9394:9409   */\n      add\n        /* \"#utility.yul\":9386:9409   */\n      swap1\n      pop\n        /* \"#utility.yul\":9108:9416   */\n      swap2\n      swap1\n      pop\n      jump\t// out\n        /* \"#utility.yul\":9422:9568   */\n    tag_241:\n        /* \"#utility.yul\":9519:9525   */\n      dup3\n        /* \"#utility.yul\":9514:9517   */\n      dup2\n        /* \"#utility.yul\":9509:9512   */\n      dup4\n        /* \"#utility.yul\":9496:9526   */\n      calldatacopy\n        /* \"#utility.yul\":9560:9561   */\n      0x00\n        /* \"#utility.yul\":9551:9557   */\n      dup4\n        /* \"#utility.yul\":9546:9549   */\n      dup4\n        /* \"#utility.yul\":9542:9558   */\n      add\n        /* \"#utility.yul\":9535:9562   */\n      mstore\n        /* \"#utility.yul\":9422:9568   */\n      pop\n      pop\n      pop\n      jump\t// out\n        /* \"#utility.yul\":9574:9999   */\n    tag_242:\n        /* \"#utility.yul\":9652:9657   */\n      0x00\n        /* \"#utility.yul\":9677:9743   */\n      tag_373\n        /* \"#utility.yul\":9693:9742   */\n      tag_374\n        /* \"#utility.yul\":9735:9741   */\n      dup5\n        /* \"#utility.yul\":9693:9742   */\n      tag_240\n      jump\t// in\n    tag_374:\n        /* \"#utility.yul\":9677:9743   */\n      tag_239\n      jump\t// in\n    tag_373:\n        /* \"#utility.yul\":9668:9743   */\n      swap1\n      pop\n        /* \"#utility.yul\":9766:9772   */\n      dup3\n        /* \"#utility.yul\":9759:9764   */\n      dup2\n        /* \"#utility.yul\":9752:9773   */\n      mstore\n        /* \"#utility.yul\":9804:9808   */\n      0x20\n        /* \"#utility.yul\":9797:9802   */\n      dup2\n        /* \"#utility.yul\":9793:9809   */\n      add\n        /* \"#utility.yul\":9842:9845   */\n      dup5\n        /* \"#utility.yul\":9833:9839   */\n      dup5\n        /* \"#utility.yul\":9828:9831   */\n      dup5\n        /* \"#utility.yul\":9824:9840   */\n      add\n        /* \"#utility.yul\":9821:9846   */\n      gt\n        /* \"#utility.yul\":9818:9930   */\n      iszero\n      tag_375\n      jumpi\n        /* \"#utility.yul\":9849:9928   */\n      tag_376\n      tag_236\n      jump\t// in\n    tag_376:\n        /* \"#utility.yul\":9818:9930   */\n    tag_375:\n        /* \"#utility.yul\":9939:9993   */\n      tag_377\n        /* \"#utility.yul\":9986:9992   */\n      dup5\n        /* \"#utility.yul\":9981:9984   */\n      dup3\n        /* \"#utility.yul\":9976:9979   */\n      dup6\n        /* \"#utility.yul\":9939:9993   */\n      tag_241\n      jump\t// in\n    tag_377:\n        /* \"#utility.yul\":9658:9999   */\n      pop\n        /* \"#utility.yul\":9574:9999   */\n      swap4\n      swap3\n      pop\n      pop\n      pop\n      jump\t// out\n        /* \"#utility.yul\":10019:10359   */\n    tag_243:\n        /* \"#utility.yul\":10075:10080   */\n      0x00\n        /* \"#utility.yul\":10124:10127   */\n      dup3\n        /* \"#utility.yul\":10117:10121   */\n      0x1f\n        /* \"#utility.yul\":10109:10115   */\n      dup4\n        /* \"#utility.yul\":10105:10122   */\n      add\n        /* \"#utility.yul\":10101:10128   */\n      slt\n        /* \"#utility.yul\":10091:10213   */\n      tag_379\n      jumpi\n        /* \"#utility.yul\":10132:10211   */\n      tag_380\n      tag_235\n      jump\t// in\n    tag_380:\n        /* \"#utility.yul\":10091:10213   */\n    tag_379:\n        /* \"#utility.yul\":10249:10255   */\n      dup2\n        /* \"#utility.yul\":10236:10256   */\n      calldataload\n        /* \"#utility.yul\":10274:10353   */\n      tag_381\n        /* \"#utility.yul\":10349:10352   */\n      dup5\n        /* \"#utility.yul\":10341:10347   */\n      dup3\n        /* \"#utility.yul\":10334:10338   */\n      0x20\n        /* \"#utility.yul\":10326:10332   */\n      dup7\n        /* \"#utility.yul\":10322:10339   */\n      add\n        /* \"#utility.yul\":10274:10353   */\n      tag_242\n      jump\t// in\n    tag_381:\n        /* \"#utility.yul\":10265:10353   */\n      swap2\n      pop\n        /* \"#utility.yul\":10081:10359   */\n      pop\n        /* \"#utility.yul\":10019:10359   */\n      swap3\n      swap2\n      pop\n      pop\n      jump\t// out\n        /* \"#utility.yul\":10365:12254   */\n    tag_59:\n        /* \"#utility.yul\":10517:10523   */\n      0x00\n        /* \"#utility.yul\":10525:10531   */\n      dup1\n        /* \"#utility.yul\":10533:10539   */\n      0x00\n        /* \"#utility.yul\":10541:10547   */\n      dup1\n        /* \"#utility.yul\":10549:10555   */\n      0x00\n        /* \"#utility.yul\":10557:10563   */\n      dup1\n        /* \"#utility.yul\":10565:10571   */\n      0x00\n        /* \"#utility.yul\":10573:10579   */\n      dup1\n        /* \"#utility.yul\":10622:10625   */\n      0x0100\n        /* \"#utility.yul\":10610:10619   */\n      dup10\n        /* \"#utility.yul\":10601:10608   */\n      dup12\n        /* \"#utility.yul\":10597:10620   */\n      sub\n        /* \"#utility.yul\":10593:10626   */\n      slt\n        /* \"#utility.yul\":10590:10710   */\n      iszero\n      tag_383\n      jumpi\n        /* \"#utility.yul\":10629:10708   */\n      tag_384\n      tag_210\n      jump\t// in\n    tag_384:\n        /* \"#utility.yul\":10590:10710   */\n    tag_383:\n        /* \"#utility.yul\":10777:10778   */\n      0x00\n        /* \"#utility.yul\":10766:10775   */\n      dup10\n        /* \"#utility.yul\":10762:10779   */\n      add\n        /* \"#utility.yul\":10749:10780   */\n      calldataload\n        /* \"#utility.yul\":10807:10825   */\n      0xffffffffffffffff\n        /* \"#utility.yul\":10799:10805   */\n      dup2\n        /* \"#utility.yul\":10796:10826   */\n      gt\n        /* \"#utility.yul\":10793:10910   */\n      iszero\n      tag_385\n      jumpi\n        /* \"#utility.yul\":10829:10908   */\n      tag_386\n      tag_211\n      jump\t// in\n    tag_386:\n        /* \"#utility.yul\":10793:10910   */\n    tag_385:\n        /* \"#utility.yul\":10934:10997   */\n      tag_387\n        /* \"#utility.yul\":10989:10996   */\n      dup12\n        /* \"#utility.yul\":10980:10986   */\n      dup3\n        /* \"#utility.yul\":10969:10978   */\n      dup13\n        /* \"#utility.yul\":10965:10987   */\n      add\n        /* \"#utility.yul\":10934:10997   */\n      tag_243\n      jump\t// in\n    tag_387:\n        /* \"#utility.yul\":10924:10997   */\n      swap9\n      pop\n        /* \"#utility.yul\":10720:11007   */\n      pop\n        /* \"#utility.yul\":11074:11076   */\n      0x20\n        /* \"#utility.yul\":11063:11072   */\n      dup10\n        /* \"#utility.yul\":11059:11077   */\n      add\n        /* \"#utility.yul\":11046:11078   */\n      calldataload\n        /* \"#utility.yul\":11105:11123   */\n      0xffffffffffffffff\n        /* \"#utility.yul\":11097:11103   */\n      dup2\n        /* \"#utility.yul\":11094:11124   */\n      gt\n        /* \"#utility.yul\":11091:11208   */\n      iszero\n      tag_388\n      jumpi\n        /* \"#utility.yul\":11127:11206   */\n      tag_389\n      tag_211\n      jump\t// in\n    tag_389:\n        /* \"#utility.yul\":11091:11208   */\n    tag_388:\n        /* \"#utility.yul\":11232:11295   */\n      tag_390\n        /* \"#utility.yul\":11287:11294   */\n      dup12\n        /* \"#utility.yul\":11278:11284   */\n      dup3\n        /* \"#utility.yul\":11267:11276   */\n      dup13\n        /* \"#utility.yul\":11263:11285   */\n      add\n        /* \"#utility.yul\":11232:11295   */\n      tag_243\n      jump\t// in\n    tag_390:\n        /* \"#utility.yul\":11222:11295   */\n      swap8\n      pop\n        /* \"#utility.yul\":11017:11305   */\n      pop\n        /* \"#utility.yul\":11344:11346   */\n      0x40\n        /* \"#utility.yul\":11370:11423   */\n      tag_391\n        /* \"#utility.yul\":11415:11422   */\n      dup12\n        /* \"#utility.yul\":11406:11412   */\n      dup3\n        /* \"#utility.yul\":11395:11404   */\n      dup13\n        /* \"#utility.yul\":11391:11413   */\n      add\n        /* \"#utility.yul\":11370:11423   */\n      tag_219\n      jump\t// in\n    tag_391:\n        /* \"#utility.yul\":11360:11423   */\n      swap7\n      pop\n        /* \"#utility.yul\":11315:11433   */\n      pop\n        /* \"#utility.yul\":11472:11474   */\n      0x60\n        /* \"#utility.yul\":11498:11551   */\n      tag_392\n        /* \"#utility.yul\":11543:11550   */\n      dup12\n        /* \"#utility.yul\":11534:11540   */\n      dup3\n        /* \"#utility.yul\":11523:11532   */\n      dup13\n        /* \"#utility.yul\":11519:11541   */\n      add\n        /* \"#utility.yul\":11498:11551   */\n      tag_219\n      jump\t// in\n    tag_392:\n        /* \"#utility.yul\":11488:11551   */\n      swap6\n      pop\n        /* \"#utility.yul\":11443:11561   */\n      pop\n        /* \"#utility.yul\":11628:11631   */\n      0x80\n        /* \"#utility.yul\":11617:11626   */\n      dup10\n        /* \"#utility.yul\":11613:11632   */\n      add\n        /* \"#utility.yul\":11600:11633   */\n      calldataload\n        /* \"#utility.yul\":11660:11678   */\n      0xffffffffffffffff\n        /* \"#utility.yul\":11652:11658   */\n      dup2\n        /* \"#utility.yul\":11649:11679   */\n      gt\n        /* \"#utility.yul\":11646:11763   */\n      iszero\n      tag_393\n      jumpi\n        /* \"#utility.yul\":11682:11761   */\n      tag_394\n      tag_211\n      jump\t// in\n    tag_394:\n        /* \"#utility.yul\":11646:11763   */\n    tag_393:\n        /* \"#utility.yul\":11787:11850   */\n      tag_395\n        /* \"#utility.yul\":11842:11849   */\n      dup12\n        /* \"#utility.yul\":11833:11839   */\n      dup3\n        /* \"#utility.yul\":11822:11831   */\n      dup13\n        /* \"#utility.yul\":11818:11840   */\n      add\n        /* \"#utility.yul\":11787:11850   */\n      tag_243\n      jump\t// in\n    tag_395:\n        /* \"#utility.yul\":11777:11850   */\n      swap5\n      pop\n        /* \"#utility.yul\":11571:11860   */\n      pop\n        /* \"#utility.yul\":11899:11902   */\n      0xa0\n        /* \"#utility.yul\":11926:11979   */\n      tag_396\n        /* \"#utility.yul\":11971:11978   */\n      dup12\n        /* \"#utility.yul\":11962:11968   */\n      dup3\n        /* \"#utility.yul\":11951:11960   */\n      dup13\n        /* \"#utility.yul\":11947:11969   */\n      add\n        /* \"#utility.yul\":11926:11979   */\n      tag_219\n      jump\t// in\n    tag_396:\n        /* \"#utility.yul\":11916:11979   */\n      swap4\n      pop\n        /* \"#utility.yul\":11870:11989   */\n      pop\n        /* \"#utility.yul\":12028:12031   */\n      0xc0\n        /* \"#utility.yul\":12055:12108   */\n      tag_397\n        /* \"#utility.yul\":12100:12107   */\n      dup12\n        /* \"#utility.yul\":12091:12097   */\n      dup3\n        /* \"#utility.yul\":12080:12089   */\n      dup13\n        /* \"#utility.yul\":12076:12098   */\n      add\n        /* \"#utility.yul\":12055:12108   */\n      tag_219\n      jump\t// in\n    tag_397:\n        /* \"#utility.yul\":12045:12108   */\n      swap3\n      pop\n        /* \"#utility.yul\":11999:12118   */\n      pop\n        /* \"#utility.yul\":12157:12160   */\n      0xe0\n        /* \"#utility.yul\":12184:12237   */\n      tag_398\n        /* \"#utility.yul\":12229:12236   */\n      dup12\n        /* \"#utility.yul\":12220:12226   */\n      dup3\n        /* \"#utility.yul\":12209:12218   */\n      dup13\n        /* \"#utility.yul\":12205:12227   */\n      add\n        /* \"#utility.yul\":12184:12237   */\n      tag_219\n      jump\t// in\n    tag_398:\n        /* \"#utility.yul\":12174:12237   */\n      swap2\n      pop\n        /* \"#utility.yul\":12128:12247   */\n      pop\n        /* \"#utility.yul\":10365:12254   */\n      swap3\n      swap6\n      swap9\n      pop\n      swap3\n      swap6\n      swap9\n      swap1\n      swap4\n      swap7\n      pop\n      jump\t// out\n        /* \"#utility.yul\":12260:12482   */\n    tag_72:\n        /* \"#utility.yul\":12353:12357   */\n      0x00\n        /* \"#utility.yul\":12391:12393   */\n      0x20\n        /* \"#utility.yul\":12380:12389   */\n      dup3\n        /* \"#utility.yul\":12376:12394   */\n      add\n        /* \"#utility.yul\":12368:12394   */\n      swap1\n      pop\n        /* \"#utility.yul\":12404:12475   */\n      tag_400\n        /* \"#utility.yul\":12472:12473   */\n      0x00\n        /* \"#utility.yul\":12461:12470   */\n      dup4\n        /* \"#utility.yul\":12457:12474   */\n      add\n        /* \"#utility.yul\":12448:12454   */\n      dup5\n        /* \"#utility.yul\":12404:12475   */\n      tag_223\n      jump\t// in\n    tag_400:\n        /* \"#utility.yul\":12260:12482   */\n      swap3\n      swap2\n      pop\n      pop\n      jump\t// out\n        /* \"#utility.yul\":12488:12817   */\n    tag_89:\n        /* \"#utility.yul\":12547:12553   */\n      0x00\n        /* \"#utility.yul\":12596:12598   */\n      0x20\n        /* \"#utility.yul\":12584:12593   */\n      dup3\n        /* \"#utility.yul\":12575:12582   */\n      dup5\n        /* \"#utility.yul\":12571:12594   */\n      sub\n        /* \"#utility.yul\":12567:12599   */\n      slt\n        /* \"#utility.yul\":12564:12683   */\n      iszero\n      tag_402\n      jumpi\n        /* \"#utility.yul\":12602:12681   */\n      tag_403\n      tag_210\n      jump\t// in\n    tag_403:\n        /* \"#utility.yul\":12564:12683   */\n    tag_402:\n        /* \"#utility.yul\":12722:12723   */\n      0x00\n        /* \"#utility.yul\":12747:12800   */\n      tag_404\n        /* \"#utility.yul\":12792:12799   */\n      dup5\n        /* \"#utility.yul\":12783:12789   */\n      dup3\n        /* \"#utility.yul\":12772:12781   */\n      dup6\n        /* \"#utility.yul\":12768:12790   */\n      add\n        /* \"#utility.yul\":12747:12800   */\n      tag_234\n      jump\t// in\n    tag_404:\n        /* \"#utility.yul\":12737:12800   */\n      swap2\n      pop\n        /* \"#utility.yul\":12693:12810   */\n      pop\n        /* \"#utility.yul\":12488:12817   */\n      swap3\n      swap2\n      pop\n      pop\n      jump\t// out\n        /* \"#utility.yul\":12823:13048   */\n    tag_244:\n        /* \"#utility.yul\":12963:12997   */\n      0x4f6e6c79207468652061756469746f722063616e206365727469667920746865\n        /* \"#utility.yul\":12959:12960   */\n      0x00\n        /* \"#utility.yul\":12951:12957   */\n      dup3\n        /* \"#utility.yul\":12947:12961   */\n      add\n        /* \"#utility.yul\":12940:12998   */\n      mstore\n        /* \"#utility.yul\":13032:13040   */\n      0x2061756469740000000000000000000000000000000000000000000000000000\n        /* \"#utility.yul\":13027:13029   */\n      0x20\n        /* \"#utility.yul\":13019:13025   */\n      dup3\n        /* \"#utility.yul\":13015:13030   */\n      add\n        /* \"#utility.yul\":13008:13041   */\n      mstore\n        /* \"#utility.yul\":12823:13048   */\n      pop\n      jump\t// out\n        /* \"#utility.yul\":13054:13420   */\n    tag_245:\n        /* \"#utility.yul\":13196:13199   */\n      0x00\n        /* \"#utility.yul\":13217:13284   */\n      tag_407\n        /* \"#utility.yul\":13281:13283   */\n      0x26\n        /* \"#utility.yul\":13276:13279   */\n      dup4\n        /* \"#utility.yul\":13217:13284   */\n      tag_225\n      jump\t// in\n    tag_407:\n        /* \"#utility.yul\":13210:13284   */\n      swap2\n      pop\n        /* \"#utility.yul\":13293:13386   */\n      tag_408\n        /* \"#utility.yul\":13382:13385   */\n      dup3\n        /* \"#utility.yul\":13293:13386   */\n      tag_244\n      jump\t// in\n    tag_408:\n        /* \"#utility.yul\":13411:13413   */\n      0x40\n        /* \"#utility.yul\":13406:13409   */\n      dup3\n        /* \"#utility.yul\":13402:13414   */\n      add\n        /* \"#utility.yul\":13395:13414   */\n      swap1\n      pop\n        /* \"#utility.yul\":13054:13420   */\n      swap2\n      swap1\n      pop\n      jump\t// out\n        /* \"#utility.yul\":13426:13845   */\n    tag_102:\n        /* \"#utility.yul\":13592:13596   */\n      0x00\n        /* \"#utility.yul\":13630:13632   */\n      0x20\n        /* \"#utility.yul\":13619:13628   */\n      dup3\n        /* \"#utility.yul\":13615:13633   */\n      add\n        /* \"#utility.yul\":13607:13633   */\n      swap1\n      pop\n        /* \"#utility.yul\":13679:13688   */\n      dup2\n        /* \"#utility.yul\":13673:13677   */\n      dup2\n        /* \"#utility.yul\":13669:13689   */\n      sub\n        /* \"#utility.yul\":13665:13666   */\n      0x00\n        /* \"#utility.yul\":13654:13663   */\n      dup4\n        /* \"#utility.yul\":13650:13667   */\n      add\n        /* \"#utility.yul\":13643:13690   */\n      mstore\n        /* \"#utility.yul\":13707:13838   */\n      tag_410\n        /* \"#utility.yul\":13833:13837   */\n      dup2\n        /* \"#utility.yul\":13707:13838   */\n      tag_245\n      jump\t// in\n    tag_410:\n        /* \"#utility.yul\":13699:13838   */\n      swap1\n      pop\n        /* \"#utility.yul\":13426:13845   */\n      swap2\n      swap1\n      pop\n      jump\t// out\n        /* \"#utility.yul\":13851:14031   */\n    tag_246:\n        /* \"#utility.yul\":13899:13976   */\n      0x4e487b7100000000000000000000000000000000000000000000000000000000\n        /* \"#utility.yul\":13896:13897   */\n      0x00\n        /* \"#utility.yul\":13889:13977   */\n      mstore\n        /* \"#utility.yul\":13996:14000   */\n      0x22\n        /* \"#utility.yul\":13993:13994   */\n      0x04\n        /* \"#utility.yul\":13986:14001   */\n      mstore\n        /* \"#utility.yul\":14020:14024   */\n      0x24\n        /* \"#utility.yul\":14017:14018   */\n      0x00\n        /* \"#utility.yul\":14010:14025   */\n      revert\n        /* \"#utility.yul\":14037:14357   */\n    tag_105:\n        /* \"#utility.yul\":14081:14087   */\n      0x00\n        /* \"#utility.yul\":14118:14119   */\n      0x02\n        /* \"#utility.yul\":14112:14116   */\n      dup3\n        /* \"#utility.yul\":14108:14120   */\n      div\n        /* \"#utility.yul\":14098:14120   */\n      swap1\n      pop\n        /* \"#utility.yul\":14165:14166   */\n      0x01\n        /* \"#utility.yul\":14159:14163   */\n      dup3\n        /* \"#utility.yul\":14155:14167   */\n      and\n        /* \"#utility.yul\":14186:14204   */\n      dup1\n        /* \"#utility.yul\":14176:14257   */\n      tag_413\n      jumpi\n        /* \"#utility.yul\":14242:14246   */\n      0x7f\n        /* \"#utility.yul\":14234:14240   */\n      dup3\n        /* \"#utility.yul\":14230:14247   */\n      and\n        /* \"#utility.yul\":14220:14247   */\n      swap2\n      pop\n        /* \"#utility.yul\":14176:14257   */\n    tag_413:\n        /* \"#utility.yul\":14304:14306   */\n      0x20\n        /* \"#utility.yul\":14296:14302   */\n      dup3\n        /* \"#utility.yul\":14293:14307   */\n      lt\n        /* \"#utility.yul\":14273:14291   */\n      dup2\n        /* \"#utility.yul\":14270:14308   */\n      sub\n        /* \"#utility.yul\":14267:14351   */\n      tag_414\n      jumpi\n        /* \"#utility.yul\":14323:14341   */\n      tag_415\n      tag_246\n      jump\t// in\n    tag_415:\n        /* \"#utility.yul\":14267:14351   */\n    tag_414:\n        /* \"#utility.yul\":14088:14357   */\n      pop\n        /* \"#utility.yul\":14037:14357   */\n      swap2\n      swap1\n      pop\n      jump\t// out\n        /* \"#utility.yul\":14363:14504   */\n    tag_247:\n        /* \"#utility.yul\":14412:14416   */\n      0x00\n        /* \"#utility.yul\":14435:14438   */\n      dup2\n        /* \"#utility.yul\":14427:14438   */\n      swap1\n      pop\n        /* \"#utility.yul\":14458:14461   */\n      dup2\n        /* \"#utility.yul\":14455:14456   */\n      0x00\n        /* \"#utility.yul\":14448:14462   */\n      mstore\n        /* \"#utility.yul\":14492:14496   */\n      0x20\n        /* \"#utility.yul\":14489:14490   */\n      0x00\n        /* \"#utility.yul\":14479:14497   */\n      keccak256\n        /* \"#utility.yul\":14471:14497   */\n      swap1\n      pop\n        /* \"#utility.yul\":14363:14504   */\n      swap2\n      swap1\n      pop\n      jump\t// out\n        /* \"#utility.yul\":14510:14603   */\n    tag_248:\n        /* \"#utility.yul\":14547:14553   */\n      0x00\n        /* \"#utility.yul\":14594:14596   */\n      0x20\n        /* \"#utility.yul\":14589:14591   */\n      0x1f\n        /* \"#utility.yul\":14582:14587   */\n      dup4\n        /* \"#utility.yul\":14578:14592   */\n      add\n        /* \"#utility.yul\":14574:14597   */\n      div\n        /* \"#utility.yul\":14564:14597   */\n      swap1\n      pop\n        /* \"#utility.yul\":14510:14603   */\n      swap2\n      swap1\n      pop\n      jump\t// out\n        /* \"#utility.yul\":14609:14716   */\n    tag_249:\n        /* \"#utility.yul\":14653:14661   */\n      0x00\n        /* \"#utility.yul\":14703:14708   */\n      dup3\n        /* \"#utility.yul\":14697:14701   */\n      dup3\n        /* \"#utility.yul\":14693:14709   */\n      shl\n        /* \"#utility.yul\":14672:14709   */\n      swap1\n      pop\n        /* \"#utility.yul\":14609:14716   */\n      swap3\n      swap2\n      pop\n      pop\n      jump\t// out\n        /* \"#utility.yul\":14722:15115   */\n    tag_250:\n        /* \"#utility.yul\":14791:14797   */\n      0x00\n        /* \"#utility.yul\":14841:14842   */\n      0x08\n        /* \"#utility.yul\":14829:14839   */\n      dup4\n        /* \"#utility.yul\":14825:14843   */\n      mul\n        /* \"#utility.yul\":14864:14961   */\n      tag_420\n        /* \"#utility.yul\":14894:14960   */\n      0xffffffffffffffffffffffffffffffffffffffffffffffffffffffffffffffff\n        /* \"#utility.yul\":14883:14892   */\n      dup3\n        /* \"#utility.yul\":14864:14961   */\n      tag_249\n      jump\t// in\n    tag_420:\n        /* \"#utility.yul\":14982:15021   */\n      tag_421\n        /* \"#utility.yul\":15012:15020   */\n      dup7\n        /* \"#utility.yul\":15001:15010   */\n      dup4\n        /* \"#utility.yul\":14982:15021   */\n      tag_249\n      jump\t// in\n    tag_421:\n        /* \"#utility.yul\":14970:15021   */\n      swap6\n      pop\n        /* \"#utility.yul\":15054:15058   */\n      dup1\n        /* \"#utility.yul\":15050:15059   */\n      not\n        /* \"#utility.yul\":15043:15048   */\n      dup5\n        /* \"#utility.yul\":15039:15060   */\n      and\n        /* \"#utility.yul\":15030:15060   */\n      swap4\n      pop\n        /* \"#utility.yul\":15103:15107   */\n      dup1\n        /* \"#utility.yul\":15093:15101   */\n      dup7\n        /* \"#utility.yul\":15089:15108   */\n      and\n        /* \"#utility.yul\":15082:15087   */\n      dup5\n        /* \"#utility.yul\":15079:15109   */\n      or\n        /* \"#utility.yul\":15069:15109   */\n      swap3\n      pop\n        /* \"#utility.yul\":14798:15115   */\n      pop\n      pop\n        /* \"#utility.yul\":14722:15115   */\n      swap4\n      swap3\n      pop\n      pop\n      pop\n      jump\t// out\n        /* \"#utility.yul\":15121:15181   */\n    tag_251:\n        /* \"#utility.yul\":15149:15152   */\n      0x00\n        /* \"#utility.yul\":15170:15175   */\n      dup2\n        /* \"#utility.yul\":15163:15175   */\n      swap1\n      pop\n        /* \"#utility.yul\":15121:15181   */\n      swap2\n      swap1\n      pop\n      jump\t// out\n        /* \"#utility.yul\":15187:15329   */\n    tag_252:\n        /* \"#utility.yul\":15237:15246   */\n      0x00\n        /* \"#utility.yul\":15270:15323   */\n      tag_424\n        /* \"#utility.yul\":15288:15322   */\n      tag_425\n        /* \"#utility.yul\":15297:15321   */\n      tag_426\n        /* \"#utility.yul\":15315:15320   */\n      dup5\n        /* \"#utility.yul\":15297:15321   */\n      tag_217\n      jump\t// in\n    tag_426:\n        /* \"#utility.yul\":15288:15322   */\n      tag_251\n      jump\t// in\n    tag_425:\n        /* \"#utility.yul\":15270:15323   */\n      tag_217\n      jump\t// in\n    tag_424:\n        /* \"#utility.yul\":15257:15323   */\n      swap1\n      pop\n        /* \"#utility.yul\":15187:15329   */\n      swap2\n      swap1\n      pop\n      jump\t// out\n        /* \"#utility.yul\":15335:15410   */\n    tag_253:\n        /* \"#utility.yul\":15378:15381   */\n      0x00\n        /* \"#utility.yul\":15399:15404   */\n      dup2\n        /* \"#utility.yul\":15392:15404   */\n      swap1\n      pop\n        /* \"#utility.yul\":15335:15410   */\n      swap2\n      swap1\n      pop\n      jump\t// out\n        /* \"#utility.yul\":15416:15685   */\n    tag_254:\n        /* \"#utility.yul\":15526:15565   */\n      tag_429\n        /* \"#utility.yul\":15557:15564   */\n      dup4\n        /* \"#utility.yul\":15526:15565   */\n      tag_252\n      jump\t// in\n    tag_429:\n        /* \"#utility.yul\":15587:15678   */\n      tag_430\n        /* \"#utility.yul\":15636:15677   */\n      tag_431\n        /* \"#utility.yul\":15660:15676   */\n      dup3\n        /* \"#utility.yul\":15636:15677   */\n      tag_253\n      jump\t// in\n    tag_431:\n        /* \"#utility.yul\":15628:15634   */\n      dup5\n        /* \"#utility.yul\":15621:15625   */\n      dup5\n        /* \"#utility.yul\":15615:15626   */\n      sload\n        /* \"#utility.yul\":15587:15678   */\n      tag_250\n      jump\t// in\n    tag_430:\n        /* \"#utility.yul\":15581:15585   */\n      dup3\n        /* \"#utility.yul\":15574:15679   */\n      sstore\n        /* \"#utility.yul\":15492:15685   */\n      pop\n        /* \"#utility.yul\":15416:15685   */\n      pop\n      pop\n      pop\n      jump\t// out\n        /* \"#utility.yul\":15691:15764   */\n    tag_255:\n        /* \"#utility.yul\":15736:15739   */\n      0x00\n        /* \"#utility.yul\":15691:15764   */\n      swap1\n      jump\t// out\n        /* \"#utility.yul\":15770:15959   */\n    tag_256:\n        /* \"#utility.yul\":15847:15879   */\n      tag_434\n      tag_255\n      jump\t// in\n    tag_434:\n        /* \"#utility.yul\":15888:15953   */\n      tag_435\n        /* \"#utility.yul\":15946:15952   */\n      dup2\n        /* \"#utility.yul\":15938:15944   */\n      dup5\n        /* \"#utility.yul\":15932:15936   */\n      dup5\n        /* \"#utility.yul\":15888:15953   */\n      tag_254\n      jump\t// in\n    tag_435:\n        /* \"#utility.yul\":15823:15959   */\n      pop\n        /* \"#utility.yul\":15770:15959   */\n      pop\n      pop\n      jump\t// out\n        /* \"#utility.yul\":15965:16151   */\n    tag_257:\n        /* \"#utility.yul\":16025:16145   */\n    tag_437:\n        /* \"#utility.yul\":16042:16045   */\n      dup2\n        /* \"#utility.yul\":16035:16040   */\n      dup2\n        /* \"#utility.yul\":16032:16046   */\n      lt\n        /* \"#utility.yul\":16025:16145   */\n      iszero\n      tag_439\n      jumpi\n        /* \"#utility.yul\":16096:16135   */\n      tag_440\n        /* \"#utility.yul\":16133:16134   */\n      0x00\n        /* \"#utility.yul\":16126:16131   */\n      dup3\n        /* \"#utility.yul\":16096:16135   */\n      tag_256\n      jump\t// in\n    tag_440:\n        /* \"#utility.yul\":16069:16070   */\n      0x01\n        /* \"#utility.yul\":16062:16067   */\n      dup2\n        /* \"#utility.yul\":16058:16071   */\n      add\n        /* \"#utility.yul\":16049:16071   */\n      swap1\n      pop\n        /* \"#utility.yul\":16025:16145   */\n      jump(tag_437)\n    tag_439:\n        /* \"#utility.yul\":15965:16151   */\n      pop\n      pop\n      jump\t// out\n        /* \"#utility.yul\":16157:16700   */\n    tag_258:\n        /* \"#utility.yul\":16258:16260   */\n      0x1f\n        /* \"#utility.yul\":16253:16256   */\n      dup3\n        /* \"#utility.yul\":16250:16261   */\n      gt\n        /* \"#utility.yul\":16247:16693   */\n      iszero\n      tag_442\n      jumpi\n        /* \"#utility.yul\":16292:16330   */\n      tag_443\n        /* \"#utility.yul\":16324:16329   */\n      dup2\n        /* \"#utility.yul\":16292:16330   */\n      tag_247\n      jump\t// in\n    tag_443:\n        /* \"#utility.yul\":16376:16405   */\n      tag_444\n        /* \"#utility.yul\":16394:16404   */\n      dup5\n        /* \"#utility.yul\":16376:16405   */\n      tag_248\n      jump\t// in\n    tag_444:\n        /* \"#utility.yul\":16366:16374   */\n      dup2\n        /* \"#utility.yul\":16362:16406   */\n      add\n        /* \"#utility.yul\":16559:16561   */\n      0x20\n        /* \"#utility.yul\":16547:16557   */\n      dup6\n        /* \"#utility.yul\":16544:16562   */\n      lt\n        /* \"#utility.yul\":16541:16590   */\n      iszero\n      tag_445\n      jumpi\n        /* \"#utility.yul\":16580:16588   */\n      dup2\n        /* \"#utility.yul\":16565:16588   */\n      swap1\n      pop\n        /* \"#utility.yul\":16541:16590   */\n    tag_445:\n        /* \"#utility.yul\":16603:16683   */\n      tag_446\n        /* \"#utility.yul\":16659:16681   */\n      tag_447\n        /* \"#utility.yul\":16677:16680   */\n      dup6\n        /* \"#utility.yul\":16659:16681   */\n      tag_248\n      jump\t// in\n    tag_447:\n        /* \"#utility.yul\":16649:16657   */\n      dup4\n        /* \"#utility.yul\":16645:16682   */\n      add\n        /* \"#utility.yul\":16632:16643   */\n      dup3\n        /* \"#utility.yul\":16603:16683   */\n      tag_257\n      jump\t// in\n    tag_446:\n        /* \"#utility.yul\":16262:16693   */\n      pop\n      pop\n        /* \"#utility.yul\":16247:16693   */\n    tag_442:\n        /* \"#utility.yul\":16157:16700   */\n      pop\n      pop\n      pop\n      jump\t// out\n        /* \"#utility.yul\":16706:16823   */\n    tag_259:\n        /* \"#utility.yul\":16760:16768   */\n      0x00\n        /* \"#utility.yul\":16810:16815   */\n      dup3\n        /* \"#utility.yul\":16804:16808   */\n      dup3\n        /* \"#utility.yul\":16800:16816   */\n      shr\n        /* \"#utility.yul\":16779:16816   */\n      swap1\n      pop\n        /* \"#utility.yul\":16706:16823   */\n      swap3\n      swap2\n      pop\n      pop\n      jump\t// out\n        /* \"#utility.yul\":16829:16998   */\n    tag_260:\n        /* \"#utility.yul\":16873:16879   */\n      0x00\n        /* \"#utility.yul\":16906:16957   */\n      tag_450\n        /* \"#utility.yul\":16954:16955   */\n      0x00\n        /* \"#utility.yul\":16950:16956   */\n      not\n        /* \"#utility.yul\":16942:16947   */\n      dup5\n        /* \"#utility.yul\":16939:16940   */\n      0x08\n        /* \"#utility.yul\":16935:16948   */\n      mul\n        /* \"#utility.yul\":16906:16957   */\n      tag_259\n      jump\t// in\n    tag_450:\n        /* \"#utility.yul\":16902:16958   */\n      not\n        /* \"#utility.yul\":16987:16991   */\n      dup1\n        /* \"#utility.yul\":16981:16985   */\n      dup4\n        /* \"#utility.yul\":16977:16992   */\n      and\n        /* \"#utility.yul\":16967:16992   */\n      swap2\n      pop\n        /* \"#utility.yul\":16880:16998   */\n      pop\n        /* \"#utility.yul\":16829:16998   */\n      swap3\n      swap2\n      pop\n      pop\n      jump\t// out\n        /* \"#utility.yul\":17003:17298   */\n    tag_261:\n        /* \"#utility.yul\":17079:17083   */\n      0x00\n        /* \"#utility.yul\":17225:17254   */\n      tag_452\n        /* \"#utility.yul\":17250:17253   */\n      dup4\n        /* \"#utility.yul\":17244:17248   */\n      dup4\n        /* \"#utility.yul\":17225:17254   */\n      tag_260\n      jump\t// in\n    tag_452:\n        /* \"#utility.yul\":17217:17254   */\n      swap2\n      pop\n        /* \"#utility.yul\":17287:17290   */\n      dup3\n        /* \"#utility.yul\":17284:17285   */\n      0x02\n        /* \"#utility.yul\":17280:17291   */\n      mul\n        /* \"#utility.yul\":17274:17278   */\n      dup3\n        /* \"#utility.yul\":17271:17292   */\n      or\n        /* \"#utility.yul\":17263:17292   */\n      swap1\n      pop\n        /* \"#utility.yul\":17003:17298   */\n      swap3\n      swap2\n      pop\n      pop\n      jump\t// out\n        /* \"#utility.yul\":17303:18698   */\n    tag_138:\n        /* \"#utility.yul\":17420:17457   */\n      tag_454\n        /* \"#utility.yul\":17453:17456   */\n      dup3\n        /* \"#utility.yul\":17420:17457   */\n      tag_224\n      jump\t// in\n    tag_454:\n        /* \"#utility.yul\":17522:17540   */\n      0xffffffffffffffff\n        /* \"#utility.yul\":17514:17520   */\n      dup2\n        /* \"#utility.yul\":17511:17541   */\n      gt\n        /* \"#utility.yul\":17508:17564   */\n      iszero\n      tag_455\n      jumpi\n        /* \"#utility.yul\":17544:17562   */\n      tag_456\n      tag_237\n      jump\t// in\n    tag_456:\n        /* \"#utility.yul\":17508:17564   */\n    tag_455:\n        /* \"#utility.yul\":17588:17626   */\n      tag_457\n        /* \"#utility.yul\":17620:17624   */\n      dup3\n        /* \"#utility.yul\":17614:17625   */\n      sload\n        /* \"#utility.yul\":17588:17626   */\n      tag_105\n      jump\t// in\n    tag_457:\n        /* \"#utility.yul\":17673:17740   */\n      tag_458\n        /* \"#utility.yul\":17733:17739   */\n      dup3\n        /* \"#utility.yul\":17725:17731   */\n      dup3\n        /* \"#utility.yul\":17719:17723   */\n      dup6\n        /* \"#utility.yul\":17673:17740   */\n      tag_258\n      jump\t// in\n    tag_458:\n        /* \"#utility.yul\":17767:17768   */\n      0x00\n        /* \"#utility.yul\":17791:17795   */\n      0x20\n        /* \"#utility.yul\":17778:17795   */\n      swap1\n      pop\n        /* \"#utility.yul\":17823:17825   */\n      0x1f\n        /* \"#utility.yul\":17815:17821   */\n      dup4\n        /* \"#utility.yul\":17812:17826   */\n      gt\n        /* \"#utility.yul\":17840:17841   */\n      0x01\n        /* \"#utility.yul\":17835:18453   */\n      dup2\n      eq\n      tag_460\n      jumpi\n        /* \"#utility.yul\":18497:18498   */\n      0x00\n        /* \"#utility.yul\":18514:18520   */\n      dup5\n        /* \"#utility.yul\":18511:18588   */\n      iszero\n      tag_461\n      jumpi\n        /* \"#utility.yul\":18563:18572   */\n      dup3\n        /* \"#utility.yul\":18558:18561   */\n      dup8\n        /* \"#utility.yul\":18554:18573   */\n      add\n        /* \"#utility.yul\":18548:18574   */\n      mload\n        /* \"#utility.yul\":18539:18574   */\n      swap1\n      pop\n        /* \"#utility.yul\":18511:18588   */\n    tag_461:\n        /* \"#utility.yul\":18614:18681   */\n      tag_462\n        /* \"#utility.yul\":18674:18680   */\n      dup6\n        /* \"#utility.yul\":18667:18672   */\n      dup3\n        /* \"#utility.yul\":18614:18681   */\n      tag_261\n      jump\t// in\n    tag_462:\n        /* \"#utility.yul\":18608:18612   */\n      dup7\n        /* \"#utility.yul\":18601:18682   */\n      sstore\n        /* \"#utility.yul\":18470:18692   */\n      pop\n        /* \"#utility.yul\":17805:18692   */\n      jump(tag_459)\n        /* \"#utility.yul\":17835:18453   */\n    tag_460:\n        /* \"#utility.yul\":17887:17891   */\n      0x1f\n        /* \"#utility.yul\":17883:17892   */\n      not\n        /* \"#utility.yul\":17875:17881   */\n      dup5\n        /* \"#utility.yul\":17871:17893   */\n      and\n        /* \"#utility.yul\":17921:17958   */\n      tag_463\n        /* \"#utility.yul\":17953:17957   */\n      dup7\n        /* \"#utility.yul\":17921:17958   */\n      tag_247\n      jump\t// in\n    tag_463:\n        /* \"#utility.yul\":17980:17981   */\n      0x00\n        /* \"#utility.yul\":17994:18202   */\n    tag_464:\n        /* \"#utility.yul\":18008:18015   */\n      dup3\n        /* \"#utility.yul\":18005:18006   */\n      dup2\n        /* \"#utility.yul\":18002:18016   */\n      lt\n        /* \"#utility.yul\":17994:18202   */\n      iszero\n      tag_466\n      jumpi\n        /* \"#utility.yul\":18087:18096   */\n      dup5\n        /* \"#utility.yul\":18082:18085   */\n      dup10\n        /* \"#utility.yul\":18078:18097   */\n      add\n        /* \"#utility.yul\":18072:18098   */\n      mload\n        /* \"#utility.yul\":18064:18070   */\n      dup3\n        /* \"#utility.yul\":18057:18099   */\n      sstore\n        /* \"#utility.yul\":18138:18139   */\n      0x01\n        /* \"#utility.yul\":18130:18136   */\n      dup3\n        /* \"#utility.yul\":18126:18140   */\n      add\n        /* \"#utility.yul\":18116:18140   */\n      swap2\n      pop\n        /* \"#utility.yul\":18185:18187   */\n      0x20\n        /* \"#utility.yul\":18174:18183   */\n      dup6\n        /* \"#utility.yul\":18170:18188   */\n      add\n        /* \"#utility.yul\":18157:18188   */\n      swap5\n      pop\n        /* \"#utility.yul\":18031:18035   */\n      0x20\n        /* \"#utility.yul\":18028:18029   */\n      dup2\n        /* \"#utility.yul\":18024:18036   */\n      add\n        /* \"#utility.yul\":18019:18036   */\n      swap1\n      pop\n        /* \"#utility.yul\":17994:18202   */\n      jump(tag_464)\n    tag_466:\n        /* \"#utility.yul\":18230:18236   */\n      dup7\n        /* \"#utility.yul\":18221:18228   */\n      dup4\n        /* \"#utility.yul\":18218:18237   */\n      lt\n        /* \"#utility.yul\":18215:18394   */\n      iszero\n      tag_467\n      jumpi\n        /* \"#utility.yul\":18288:18297   */\n      dup5\n        /* \"#utility.yul\":18283:18286   */\n      dup10\n        /* \"#utility.yul\":18279:18298   */\n      add\n        /* \"#utility.yul\":18273:18299   */\n      mload\n        /* \"#utility.yul\":18331:18379   */\n      tag_468\n        /* \"#utility.yul\":18373:18377   */\n      0x1f\n        /* \"#utility.yul\":18365:18371   */\n      dup10\n        /* \"#utility.yul\":18361:18378   */\n      and\n        /* \"#utility.yul\":18350:18359   */\n      dup3\n        /* \"#utility.yul\":18331:18379   */\n      tag_260\n      jump\t// in\n    tag_468:\n        /* \"#utility.yul\":18323:18329   */\n      dup4\n        /* \"#utility.yul\":18316:18380   */\n      sstore\n        /* \"#utility.yul\":18238:18394   */\n      pop\n        /* \"#utility.yul\":18215:18394   */\n    tag_467:\n        /* \"#utility.yul\":18440:18441   */\n      0x01\n        /* \"#utility.yul\":18436:18437   */\n      0x02\n        /* \"#utility.yul\":18428:18434   */\n      dup9\n        /* \"#utility.yul\":18424:18438   */\n      mul\n        /* \"#utility.yul\":18420:18442   */\n      add\n        /* \"#utility.yul\":18414:18418   */\n      dup9\n        /* \"#utility.yul\":18407:18443   */\n      sstore\n        /* \"#utility.yul\":17842:18453   */\n      pop\n      pop\n      pop\n        /* \"#utility.yul\":17805:18692   */\n    tag_459:\n      pop\n        /* \"#utility.yul\":17395:18698   */\n      pop\n      pop\n      pop\n        /* \"#utility.yul\":17303:18698   */\n      pop\n      pop\n      jump\t// out\n        /* \"#utility.yul\":18704:18884   */\n    tag_262:\n        /* \"#utility.yul\":18752:18829   */\n      0x4e487b7100000000000000000000000000000000000000000000000000000000\n        /* \"#utility.yul\":18749:18750   */\n      0x00\n        /* \"#utility.yul\":18742:18830   */\n      mstore\n        /* \"#utility.yul\":18849:18853   */\n      0x11\n        /* \"#utility.yul\":18846:18847   */\n      0x04\n        /* \"#utility.yul\":18839:18854   */\n      mstore\n        /* \"#utility.yul\":18873:18877   */\n      0x24\n        /* \"#utility.yul\":18870:18871   */\n      0x00\n        /* \"#utility.yul\":18863:18878   */\n      revert\n        /* \"#utility.yul\":18890:19123   */\n    tag_142:\n        /* \"#utility.yul\":18929:18932   */\n      0x00\n        /* \"#utility.yul\":18952:18976   */\n      tag_471\n        /* \"#utility.yul\":18970:18975   */\n      dup3\n        /* \"#utility.yul\":18952:18976   */\n      tag_217\n      jump\t// in\n    tag_471:\n        /* \"#utility.yul\":18943:18976   */\n      swap2\n      pop\n        /* \"#utility.yul\":18998:19064   */\n      0xffffffffffffffffffffffffffffffffffffffffffffffffffffffffffffffff\n        /* \"#utility.yul\":18991:18996   */\n      dup3\n        /* \"#utility.yul\":18988:19065   */\n      sub\n        /* \"#utility.yul\":18985:19088   */\n      tag_472\n      jumpi\n        /* \"#utility.yul\":19068:19086   */\n      tag_473\n      tag_262\n      jump\t// in\n    tag_473:\n        /* \"#utility.yul\":18985:19088   */\n    tag_472:\n        /* \"#utility.yul\":19115:19116   */\n      0x01\n        /* \"#utility.yul\":19108:19113   */\n      dup3\n        /* \"#utility.yul\":19104:19117   */\n      add\n        /* \"#utility.yul\":19097:19117   */\n      swap1\n      pop\n        /* \"#utility.yul\":18890:19123   */\n      swap2\n      swap1\n      pop\n      jump\t// out\n        /* \"#utility.yul\":19129:19461   */\n    tag_208:\n        /* \"#utility.yul\":19250:19254   */\n      0x00\n        /* \"#utility.yul\":19288:19290   */\n      0x40\n        /* \"#utility.yul\":19277:19286   */\n      dup3\n        /* \"#utility.yul\":19273:19291   */\n      add\n        /* \"#utility.yul\":19265:19291   */\n      swap1\n      pop\n        /* \"#utility.yul\":19301:19372   */\n      tag_475\n        /* \"#utility.yul\":19369:19370   */\n      0x00\n        /* \"#utility.yul\":19358:19367   */\n      dup4\n        /* \"#utility.yul\":19354:19371   */\n      add\n        /* \"#utility.yul\":19345:19351   */\n      dup6\n        /* \"#utility.yul\":19301:19372   */\n      tag_223\n      jump\t// in\n    tag_475:\n        /* \"#utility.yul\":19382:19454   */\n      tag_476\n        /* \"#utility.yul\":19450:19452   */\n      0x20\n        /* \"#utility.yul\":19439:19448   */\n      dup4\n        /* \"#utility.yul\":19435:19453   */\n      add\n        /* \"#utility.yul\":19426:19432   */\n      dup5\n        /* \"#utility.yul\":19382:19454   */\n      tag_232\n      jump\t// in\n    tag_476:\n        /* \"#utility.yul\":19129:19461   */\n      swap4\n      swap3\n      pop\n      pop\n      pop\n      jump\t// out\n\n    auxdata: 0xa2646970667358221220c2370a2dc9f97631a3c2ea17c5dd3e9b099c6ba223bb19936f5a62407d3e96dc64736f6c63430008180033\n}\n",
				"bytecode": {
					"linkReferences": {},
					"object": "6080604052600160035534801562000015575f80fd5b50335f73ffffffffffffffffffffffffffffffffffffffff168173ffffffffffffffffffffffffffffffffffffffff16036200008a575f6040517f1e4fbdf7000000000000000000000000000000000000000000000000000000008152600401620000819190620001a8565b60405180910390fd5b6200009b81620000a260201b60201c565b50620001c3565b5f60015f9054906101000a900473ffffffffffffffffffffffffffffffffffffffff1690508160015f6101000a81548173ffffffffffffffffffffffffffffffffffffffff021916908373ffffffffffffffffffffffffffffffffffffffff1602179055508173ffffffffffffffffffffffffffffffffffffffff168173ffffffffffffffffffffffffffffffffffffffff167f8be0079c531659141344cd1fd0a4f28419497f9722a3daafe3b4186f6b6457e060405160405180910390a35050565b5f73ffffffffffffffffffffffffffffffffffffffff82169050919050565b5f620001908262000165565b9050919050565b620001a28162000184565b82525050565b5f602082019050620001bd5f83018462000197565b92915050565b611c0a80620001d15f395ff3fe608060405234801561000f575f80fd5b5060043610610114575f3560e01c8063715018a6116100a0578063a217fddf1161006f578063a217fddf146102d4578063b60e73db146102f2578063d547741f1461032c578063e429cef114610348578063f2fde38b1461036457610114565b8063715018a61461025e57806375b238fc146102685780638da5cb5b1461028657806391d14854146102a457610114565b80632f2ff15d116100e75780632f2ff15d146101ce57806336568abe146101ea57806361b8ce8c14610206578063666fb488146102245780636e1d616e1461024057610114565b806301ffc9a714610118578063179c06fa1461014857806317bf37a314610164578063248a9ca31461019e575b5f80fd5b610132600480360381019061012d919061119d565b610380565b60405161013f91906111e2565b60405180910390f35b610162600480360381019061015d919061122e565b6103f9565b005b61017e600480360381019061017991906112a5565b6104be565b6040516101959b9a999897969594939291906113a8565b60405180910390f35b6101b860048036038101906101b39190611499565b610701565b6040516101c591906114d3565b60405180910390f35b6101e860048036038101906101e39190611516565b61071d565b005b61020460048036038101906101ff9190611516565b61073f565b005b61020e6107ba565b60405161021b9190611554565b60405180910390f35b61023e60048036038101906102399190611699565b6107c0565b005b61024861096c565b60405161025591906114d3565b60405180910390f35b610266610990565b005b6102706109a3565b60405161027d91906114d3565b60405180910390f35b61028e6109c7565b60405161029b919061179e565b60405180910390f35b6102be60048036038101906102b99190611516565b6109ef565b6040516102cb91906111e2565b60405180910390f35b6102dc610a52565b6040516102e991906114d3565b60405180910390f35b61030c600480360381019061030791906112a5565b610a58565b6040516103239b9a999897969594939291906113a8565b60405180910390f35b61034660048036038101906103419190611516565b610c6b565b005b610362600480360381019061035d91906117b7565b610c8d565b005b61037e600480360381019061037991906117b7565b610cc2565b005b5f7f7965db0b000000000000000000000000000000000000000000000000000000007bffffffffffffffffffffffffffffffffffffffffffffffffffffffff1916827bffffffffffffffffffffffffffffffffffffffffffffffffffffffff191614806103f257506103f182610d46565b5b9050919050565b6104237f59a1c48e5837ad7a7f3dcedcbe129bf3249ec4fbf651fd4f5e2600ead39fe2f5336109ef565b610462576040517f08c379a000000000000000000000000000000000000000000000000000000000815260040161045990611852565b60405180910390fd5b5f60025f8781526020019081526020015f209050848160050181905550838160070181905550828160080181905550818160090181905550600181600a015f6101000a81548160ff021916908315150217905550505050505050565b5f806060805f8060605f805f805f60025f8e81526020019081526020015f209050805f0154816001015f9054906101000a900473ffffffffffffffffffffffffffffffffffffffff16826002018360030184600401548560050154866006018760070154886008015489600901548a600a015f9054906101000a900460ff168880546105499061189d565b80601f01602080910402602001604051908101604052809291908181526020018280546105759061189d565b80156105c05780601f10610597576101008083540402835291602001916105c0565b820191905f5260205f20905b8154815290600101906020018083116105a357829003601f168201915b505050505098508780546105d39061189d565b80601f01602080910402602001604051908101604052809291908181526020018280546105ff9061189d565b801561064a5780601f106106215761010080835404028352916020019161064a565b820191905f5260205f20905b81548152906001019060200180831161062d57829003601f168201915b5050505050975084805461065d9061189d565b80601f01602080910402602001604051908101604052809291908181526020018280546106899061189d565b80156106d45780601f106106ab576101008083540402835291602001916106d4565b820191905f5260205f20905b8154815290600101906020018083116106b757829003601f168201915b505050505094509b509b509b509b509b509b509b509b509b509b509b505091939597999b90929496989a50565b5f805f8381526020019081526020015f20600101549050919050565b61072682610701565b61072f81610daf565b6107398383610dc3565b50505050565b610747610eac565b73ffffffffffffffffffffffffffffffffffffffff168173ffffffffffffffffffffffffffffffffffffffff16146107ab576040517f6697b23200000000000000000000000000000000000000000000000000000000815260040160405180910390fd5b6107b58282610eb3565b505050565b60035481565b7f59a1c48e5837ad7a7f3dcedcbe129bf3249ec4fbf651fd4f5e2600ead39fe2f56107ea81610daf565b60405180610160016040528060035481526020013373ffffffffffffffffffffffffffffffffffffffff1681526020018a81526020018981526020018881526020018781526020018681526020018581526020018481526020018381526020015f151581525060025f60035481526020019081526020015f205f820151815f01556020820151816001015f6101000a81548173ffffffffffffffffffffffffffffffffffffffff021916908373ffffffffffffffffffffffffffffffffffffffff16021790555060408201518160020190816108c69190611a6a565b5060608201518160030190816108dc9190611a6a565b506080820151816004015560a0820151816005015560c08201518160060190816109069190611a6a565b5060e082015181600701556101008201518160080155610120820151816009015561014082015181600a015f6101000a81548160ff02191690831515021790555090505060035f81548092919061095c90611b66565b9190505550505050505050505050565b7f59a1c48e5837ad7a7f3dcedcbe129bf3249ec4fbf651fd4f5e2600ead39fe2f581565b610998610f9c565b6109a15f611023565b565b7fa49807205ce4d355092ef5a8a18f56e8913cf4a201fbe287825b095693c2177581565b5f60015f9054906101000a900473ffffffffffffffffffffffffffffffffffffffff16905090565b5f805f8481526020019081526020015f205f015f8373ffffffffffffffffffffffffffffffffffffffff1673ffffffffffffffffffffffffffffffffffffffff1681526020019081526020015f205f9054906101000a900460ff16905092915050565b5f801b81565b6002602052805f5260405f205f91509050805f015490806001015f9054906101000a900473ffffffffffffffffffffffffffffffffffffffff1690806002018054610aa29061189d565b80601f0160208091040260200160405190810160405280929190818152602001828054610ace9061189d565b8015610b195780601f10610af057610100808354040283529160200191610b19565b820191905f5260205f20905b815481529060010190602001808311610afc57829003601f168201915b505050505090806003018054610b2e9061189d565b80601f0160208091040260200160405190810160405280929190818152602001828054610b5a9061189d565b8015610ba55780601f10610b7c57610100808354040283529160200191610ba5565b820191905f5260205f20905b815481529060010190602001808311610b8857829003601f168201915b505050505090806004015490806005015490806006018054610bc69061189d565b80601f0160208091040260200160405190810160405280929190818152602001828054610bf29061189d565b8015610c3d5780601f10610c1457610100808354040283529160200191610c3d565b820191905f5260205f20905b815481529060010190602001808311610c2057829003601f168201915b50505050509080600701549080600801549080600901549080600a015f9054906101000a900460ff1690508b565b610c7482610701565b610c7d81610daf565b610c878383610eb3565b50505050565b610c95610f9c565b610cbf7f59a1c48e5837ad7a7f3dcedcbe129bf3249ec4fbf651fd4f5e2600ead39fe2f58261071d565b50565b610cca610f9c565b5f73ffffffffffffffffffffffffffffffffffffffff168173ffffffffffffffffffffffffffffffffffffffff1603610d3a575f6040517f1e4fbdf7000000000000000000000000000000000000000000000000000000008152600401610d31919061179e565b60405180910390fd5b610d4381611023565b50565b5f7f01ffc9a7000000000000000000000000000000000000000000000000000000007bffffffffffffffffffffffffffffffffffffffffffffffffffffffff1916827bffffffffffffffffffffffffffffffffffffffffffffffffffffffff1916149050919050565b610dc081610dbb610eac565b6110e6565b50565b5f610dce83836109ef565b610ea25760015f808581526020019081526020015f205f015f8473ffffffffffffffffffffffffffffffffffffffff1673ffffffffffffffffffffffffffffffffffffffff1681526020019081526020015f205f6101000a81548160ff021916908315150217905550610e3f610eac565b73ffffffffffffffffffffffffffffffffffffffff168273ffffffffffffffffffffffffffffffffffffffff16847f2f8788117e7eff1d82e926ec794901d17c78024a50270940304540a733656f0d60405160405180910390a460019050610ea6565b5f90505b92915050565b5f33905090565b5f610ebe83836109ef565b15610f92575f805f8581526020019081526020015f205f015f8473ffffffffffffffffffffffffffffffffffffffff1673ffffffffffffffffffffffffffffffffffffffff1681526020019081526020015f205f6101000a81548160ff021916908315150217905550610f2f610eac565b73ffffffffffffffffffffffffffffffffffffffff168273ffffffffffffffffffffffffffffffffffffffff16847ff6391f5c32d9c69d2a47ea670b442974b53935d1edc7fd64eb21e047a839171b60405160405180910390a460019050610f96565b5f90505b92915050565b610fa4610eac565b73ffffffffffffffffffffffffffffffffffffffff16610fc26109c7565b73ffffffffffffffffffffffffffffffffffffffff161461102157610fe5610eac565b6040517f118cdaa7000000000000000000000000000000000000000000000000000000008152600401611018919061179e565b60405180910390fd5b565b5f60015f9054906101000a900473ffffffffffffffffffffffffffffffffffffffff1690508160015f6101000a81548173ffffffffffffffffffffffffffffffffffffffff021916908373ffffffffffffffffffffffffffffffffffffffff1602179055508173ffffffffffffffffffffffffffffffffffffffff168173ffffffffffffffffffffffffffffffffffffffff167f8be0079c531659141344cd1fd0a4f28419497f9722a3daafe3b4186f6b6457e060405160405180910390a35050565b6110f082826109ef565b6111335780826040517fe2517d3f00000000000000000000000000000000000000000000000000000000815260040161112a929190611bad565b60405180910390fd5b5050565b5f604051905090565b5f80fd5b5f80fd5b5f7fffffffff0000000000000000000000000000000000000000000000000000000082169050919050565b61117c81611148565b8114611186575f80fd5b50565b5f8135905061119781611173565b92915050565b5f602082840312156111b2576111b1611140565b5b5f6111bf84828501611189565b91505092915050565b5f8115159050919050565b6111dc816111c8565b82525050565b5f6020820190506111f55f8301846111d3565b92915050565b5f819050919050565b61120d816111fb565b8114611217575f80fd5b50565b5f8135905061122881611204565b92915050565b5f805f805f60a0868803121561124757611246611140565b5b5f6112548882890161121a565b95505060206112658882890161121a565b94505060406112768882890161121a565b93505060606112878882890161121a565b92505060806112988882890161121a565b9150509295509295909350565b5f602082840312156112ba576112b9611140565b5b5f6112c78482850161121a565b91505092915050565b6112d9816111fb565b82525050565b5f73ffffffffffffffffffffffffffffffffffffffff82169050919050565b5f611308826112df565b9050919050565b611318816112fe565b82525050565b5f81519050919050565b5f82825260208201905092915050565b5f5b8381101561135557808201518184015260208101905061133a565b5f8484015250505050565b5f601f19601f8301169050919050565b5f61137a8261131e565b6113848185611328565b9350611394818560208601611338565b61139d81611360565b840191505092915050565b5f610160820190506113bc5f83018e6112d0565b6113c9602083018d61130f565b81810360408301526113db818c611370565b905081810360608301526113ef818b611370565b90506113fe608083018a6112d0565b61140b60a08301896112d0565b81810360c083015261141d8188611370565b905061142c60e08301876112d0565b61143a6101008301866112d0565b6114486101208301856112d0565b6114566101408301846111d3565b9c9b505050505050505050505050565b5f819050919050565b61147881611466565b8114611482575f80fd5b50565b5f813590506114938161146f565b92915050565b5f602082840312156114ae576114ad611140565b5b5f6114bb84828501611485565b91505092915050565b6114cd81611466565b82525050565b5f6020820190506114e65f8301846114c4565b92915050565b6114f5816112fe565b81146114ff575f80fd5b50565b5f81359050611510816114ec565b92915050565b5f806040838503121561152c5761152b611140565b5b5f61153985828601611485565b925050602061154a85828601611502565b9150509250929050565b5f6020820190506115675f8301846112d0565b92915050565b5f80fd5b5f80fd5b7f4e487b71000000000000000000000000000000000000000000000000000000005f52604160045260245ffd5b6115ab82611360565b810181811067ffffffffffffffff821117156115ca576115c9611575565b5b80604052505050565b5f6115dc611137565b90506115e882826115a2565b919050565b5f67ffffffffffffffff82111561160757611606611575565b5b61161082611360565b9050602081019050919050565b828183375f83830152505050565b5f61163d611638846115ed565b6115d3565b90508281526020810184848401111561165957611658611571565b5b61166484828561161d565b509392505050565b5f82601f8301126116805761167f61156d565b5b813561169084826020860161162b565b91505092915050565b5f805f805f805f80610100898b0312156116b6576116b5611140565b5b5f89013567ffffffffffffffff8111156116d3576116d2611144565b5b6116df8b828c0161166c565b985050602089013567ffffffffffffffff811115611700576116ff611144565b5b61170c8b828c0161166c565b975050604061171d8b828c0161121a565b965050606061172e8b828c0161121a565b955050608089013567ffffffffffffffff81111561174f5761174e611144565b5b61175b8b828c0161166c565b94505060a061176c8b828c0161121a565b93505060c061177d8b828c0161121a565b92505060e061178e8b828c0161121a565b9150509295985092959890939650565b5f6020820190506117b15f83018461130f565b92915050565b5f602082840312156117cc576117cb611140565b5b5f6117d984828501611502565b91505092915050565b7f4f6e6c79207468652061756469746f722063616e2063657274696679207468655f8201527f2061756469740000000000000000000000000000000000000000000000000000602082015250565b5f61183c602683611328565b9150611847826117e2565b604082019050919050565b5f6020820190508181035f83015261186981611830565b9050919050565b7f4e487b71000000000000000000000000000000000000000000000000000000005f52602260045260245ffd5b5f60028204905060018216806118b457607f821691505b6020821081036118c7576118c6611870565b5b50919050565b5f819050815f5260205f209050919050565b5f6020601f8301049050919050565b5f82821b905092915050565b5f600883026119297fffffffffffffffffffffffffffffffffffffffffffffffffffffffffffffffff826118ee565b61193386836118ee565b95508019841693508086168417925050509392505050565b5f819050919050565b5f61196e611969611964846111fb565b61194b565b6111fb565b9050919050565b5f819050919050565b61198783611954565b61199b61199382611975565b8484546118fa565b825550505050565b5f90565b6119af6119a3565b6119ba81848461197e565b505050565b5b818110156119dd576119d25f826119a7565b6001810190506119c0565b5050565b601f821115611a22576119f3816118cd565b6119fc846118df565b81016020851015611a0b578190505b611a1f611a17856118df565b8301826119bf565b50505b505050565b5f82821c905092915050565b5f611a425f1984600802611a27565b1980831691505092915050565b5f611a5a8383611a33565b9150826002028217905092915050565b611a738261131e565b67ffffffffffffffff811115611a8c57611a8b611575565b5b611a96825461189d565b611aa18282856119e1565b5f60209050601f831160018114611ad2575f8415611ac0578287015190505b611aca8582611a4f565b865550611b31565b601f198416611ae0866118cd565b5f5b82811015611b0757848901518255600182019150602085019450602081019050611ae2565b86831015611b245784890151611b20601f891682611a33565b8355505b6001600288020188555050505b505050505050565b7f4e487b71000000000000000000000000000000000000000000000000000000005f52601160045260245ffd5b5f611b70826111fb565b91507fffffffffffffffffffffffffffffffffffffffffffffffffffffffffffffffff8203611ba257611ba1611b39565b5b600182019050919050565b5f604082019050611bc05f83018561130f565b611bcd60208301846114c4565b939250505056fea2646970667358221220c2370a2dc9f97631a3c2ea17c5dd3e9b099c6ba223bb19936f5a62407d3e96dc64736f6c63430008180033",
					"opcodes": "PUSH1 0x80 PUSH1 0x40 MSTORE PUSH1 0x1 PUSH1 0x3 SSTORE CALLVALUE DUP1 ISZERO PUSH3 0x15 JUMPI PUSH0 DUP1 REVERT JUMPDEST POP CALLER PUSH0 PUSH20 0xFFFFFFFFFFFFFFFFFFFFFFFFFFFFFFFFFFFFFFFF AND DUP2 PUSH20 0xFFFFFFFFFFFFFFFFFFFFFFFFFFFFFFFFFFFFFFFF AND SUB PUSH3 0x8A JUMPI PUSH0 PUSH1 0x40 MLOAD PUSH32 0x1E4FBDF700000000000000000000000000000000000000000000000000000000 DUP2 MSTORE PUSH1 0x4 ADD PUSH3 0x81 SWAP2 SWAP1 PUSH3 0x1A8 JUMP JUMPDEST PUSH1 0x40 MLOAD DUP1 SWAP2 SUB SWAP1 REVERT JUMPDEST PUSH3 0x9B DUP2 PUSH3 0xA2 PUSH1 0x20 SHL PUSH1 0x20 SHR JUMP JUMPDEST POP PUSH3 0x1C3 JUMP JUMPDEST PUSH0 PUSH1 0x1 PUSH0 SWAP1 SLOAD SWAP1 PUSH2 0x100 EXP SWAP1 DIV PUSH20 0xFFFFFFFFFFFFFFFFFFFFFFFFFFFFFFFFFFFFFFFF AND SWAP1 POP DUP2 PUSH1 0x1 PUSH0 PUSH2 0x100 EXP DUP2 SLOAD DUP2 PUSH20 0xFFFFFFFFFFFFFFFFFFFFFFFFFFFFFFFFFFFFFFFF MUL NOT AND SWAP1 DUP4 PUSH20 0xFFFFFFFFFFFFFFFFFFFFFFFFFFFFFFFFFFFFFFFF AND MUL OR SWAP1 SSTORE POP DUP2 PUSH20 0xFFFFFFFFFFFFFFFFFFFFFFFFFFFFFFFFFFFFFFFF AND DUP2 PUSH20 0xFFFFFFFFFFFFFFFFFFFFFFFFFFFFFFFFFFFFFFFF AND PUSH32 0x8BE0079C531659141344CD1FD0A4F28419497F9722A3DAAFE3B4186F6B6457E0 PUSH1 0x40 MLOAD PUSH1 0x40 MLOAD DUP1 SWAP2 SUB SWAP1 LOG3 POP POP JUMP JUMPDEST PUSH0 PUSH20 0xFFFFFFFFFFFFFFFFFFFFFFFFFFFFFFFFFFFFFFFF DUP3 AND SWAP1 POP SWAP2 SWAP1 POP JUMP JUMPDEST PUSH0 PUSH3 0x190 DUP3 PUSH3 0x165 JUMP JUMPDEST SWAP1 POP SWAP2 SWAP1 POP JUMP JUMPDEST PUSH3 0x1A2 DUP2 PUSH3 0x184 JUMP JUMPDEST DUP3 MSTORE POP POP JUMP JUMPDEST PUSH0 PUSH1 0x20 DUP3 ADD SWAP1 POP PUSH3 0x1BD PUSH0 DUP4 ADD DUP5 PUSH3 0x197 JUMP JUMPDEST SWAP3 SWAP2 POP POP JUMP JUMPDEST PUSH2 0x1C0A DUP1 PUSH3 0x1D1 PUSH0 CODECOPY PUSH0 RETURN INVALID PUSH1 0x80 PUSH1 0x40 MSTORE CALLVALUE DUP1 ISZERO PUSH2 0xF JUMPI PUSH0 DUP1 REVERT JUMPDEST POP PUSH1 0x4 CALLDATASIZE LT PUSH2 0x114 JUMPI PUSH0 CALLDATALOAD PUSH1 0xE0 SHR DUP1 PUSH4 0x715018A6 GT PUSH2 0xA0 JUMPI DUP1 PUSH4 0xA217FDDF GT PUSH2 0x6F JUMPI DUP1 PUSH4 0xA217FDDF EQ PUSH2 0x2D4 JUMPI DUP1 PUSH4 0xB60E73DB EQ PUSH2 0x2F2 JUMPI DUP1 PUSH4 0xD547741F EQ PUSH2 0x32C JUMPI DUP1 PUSH4 0xE429CEF1 EQ PUSH2 0x348 JUMPI DUP1 PUSH4 0xF2FDE38B EQ PUSH2 0x364 JUMPI PUSH2 0x114 JUMP JUMPDEST DUP1 PUSH4 0x715018A6 EQ PUSH2 0x25E JUMPI DUP1 PUSH4 0x75B238FC EQ PUSH2 0x268 JUMPI DUP1 PUSH4 0x8DA5CB5B EQ PUSH2 0x286 JUMPI DUP1 PUSH4 0x91D14854 EQ PUSH2 0x2A4 JUMPI PUSH2 0x114 JUMP JUMPDEST DUP1 PUSH4 0x2F2FF15D GT PUSH2 0xE7 JUMPI DUP1 PUSH4 0x2F2FF15D EQ PUSH2 0x1CE JUMPI DUP1 PUSH4 0x36568ABE EQ PUSH2 0x1EA JUMPI DUP1 PUSH4 0x61B8CE8C EQ PUSH2 0x206 JUMPI DUP1 PUSH4 0x666FB488 EQ PUSH2 0x224 JUMPI DUP1 PUSH4 0x6E1D616E EQ PUSH2 0x240 JUMPI PUSH2 0x114 JUMP JUMPDEST DUP1 PUSH4 0x1FFC9A7 EQ PUSH2 0x118 JUMPI DUP1 PUSH4 0x179C06FA EQ PUSH2 0x148 JUMPI DUP1 PUSH4 0x17BF37A3 EQ PUSH2 0x164 JUMPI DUP1 PUSH4 0x248A9CA3 EQ PUSH2 0x19E JUMPI JUMPDEST PUSH0 DUP1 REVERT JUMPDEST PUSH2 0x132 PUSH1 0x4 DUP1 CALLDATASIZE SUB DUP2 ADD SWAP1 PUSH2 0x12D SWAP2 SWAP1 PUSH2 0x119D JUMP JUMPDEST PUSH2 0x380 JUMP JUMPDEST PUSH1 0x40 MLOAD PUSH2 0x13F SWAP2 SWAP1 PUSH2 0x11E2 JUMP JUMPDEST PUSH1 0x40 MLOAD DUP1 SWAP2 SUB SWAP1 RETURN JUMPDEST PUSH2 0x162 PUSH1 0x4 DUP1 CALLDATASIZE SUB DUP2 ADD SWAP1 PUSH2 0x15D SWAP2 SWAP1 PUSH2 0x122E JUMP JUMPDEST PUSH2 0x3F9 JUMP JUMPDEST STOP JUMPDEST PUSH2 0x17E PUSH1 0x4 DUP1 CALLDATASIZE SUB DUP2 ADD SWAP1 PUSH2 0x179 SWAP2 SWAP1 PUSH2 0x12A5 JUMP JUMPDEST PUSH2 0x4BE JUMP JUMPDEST PUSH1 0x40 MLOAD PUSH2 0x195 SWAP12 SWAP11 SWAP10 SWAP9 SWAP8 SWAP7 SWAP6 SWAP5 SWAP4 SWAP3 SWAP2 SWAP1 PUSH2 0x13A8 JUMP JUMPDEST PUSH1 0x40 MLOAD DUP1 SWAP2 SUB SWAP1 RETURN JUMPDEST PUSH2 0x1B8 PUSH1 0x4 DUP1 CALLDATASIZE SUB DUP2 ADD SWAP1 PUSH2 0x1B3 SWAP2 SWAP1 PUSH2 0x1499 JUMP JUMPDEST PUSH2 0x701 JUMP JUMPDEST PUSH1 0x40 MLOAD PUSH2 0x1C5 SWAP2 SWAP1 PUSH2 0x14D3 JUMP JUMPDEST PUSH1 0x40 MLOAD DUP1 SWAP2 SUB SWAP1 RETURN JUMPDEST PUSH2 0x1E8 PUSH1 0x4 DUP1 CALLDATASIZE SUB DUP2 ADD SWAP1 PUSH2 0x1E3 SWAP2 SWAP1 PUSH2 0x1516 JUMP JUMPDEST PUSH2 0x71D JUMP JUMPDEST STOP JUMPDEST PUSH2 0x204 PUSH1 0x4 DUP1 CALLDATASIZE SUB DUP2 ADD SWAP1 PUSH2 0x1FF SWAP2 SWAP1 PUSH2 0x1516 JUMP JUMPDEST PUSH2 0x73F JUMP JUMPDEST STOP JUMPDEST PUSH2 0x20E PUSH2 0x7BA JUMP JUMPDEST PUSH1 0x40 MLOAD PUSH2 0x21B SWAP2 SWAP1 PUSH2 0x1554 JUMP JUMPDEST PUSH1 0x40 MLOAD DUP1 SWAP2 SUB SWAP1 RETURN JUMPDEST PUSH2 0x23E PUSH1 0x4 DUP1 CALLDATASIZE SUB DUP2 ADD SWAP1 PUSH2 0x239 SWAP2 SWAP1 PUSH2 0x1699 JUMP JUMPDEST PUSH2 0x7C0 JUMP JUMPDEST STOP JUMPDEST PUSH2 0x248 PUSH2 0x96C JUMP JUMPDEST PUSH1 0x40 MLOAD PUSH2 0x255 SWAP2 SWAP1 PUSH2 0x14D3 JUMP JUMPDEST PUSH1 0x40 MLOAD DUP1 SWAP2 SUB SWAP1 RETURN JUMPDEST PUSH2 0x266 PUSH2 0x990 JUMP JUMPDEST STOP JUMPDEST PUSH2 0x270 PUSH2 0x9A3 JUMP JUMPDEST PUSH1 0x40 MLOAD PUSH2 0x27D SWAP2 SWAP1 PUSH2 0x14D3 JUMP JUMPDEST PUSH1 0x40 MLOAD DUP1 SWAP2 SUB SWAP1 RETURN JUMPDEST PUSH2 0x28E PUSH2 0x9C7 JUMP JUMPDEST PUSH1 0x40 MLOAD PUSH2 0x29B SWAP2 SWAP1 PUSH2 0x179E JUMP JUMPDEST PUSH1 0x40 MLOAD DUP1 SWAP2 SUB SWAP1 RETURN JUMPDEST PUSH2 0x2BE PUSH1 0x4 DUP1 CALLDATASIZE SUB DUP2 ADD SWAP1 PUSH2 0x2B9 SWAP2 SWAP1 PUSH2 0x1516 JUMP JUMPDEST PUSH2 0x9EF JUMP JUMPDEST PUSH1 0x40 MLOAD PUSH2 0x2CB SWAP2 SWAP1 PUSH2 0x11E2 JUMP JUMPDEST PUSH1 0x40 MLOAD DUP1 SWAP2 SUB SWAP1 RETURN JUMPDEST PUSH2 0x2DC PUSH2 0xA52 JUMP JUMPDEST PUSH1 0x40 MLOAD PUSH2 0x2E9 SWAP2 SWAP1 PUSH2 0x14D3 JUMP JUMPDEST PUSH1 0x40 MLOAD DUP1 SWAP2 SUB SWAP1 RETURN JUMPDEST PUSH2 0x30C PUSH1 0x4 DUP1 CALLDATASIZE SUB DUP2 ADD SWAP1 PUSH2 0x307 SWAP2 SWAP1 PUSH2 0x12A5 JUMP JUMPDEST PUSH2 0xA58 JUMP JUMPDEST PUSH1 0x40 MLOAD PUSH2 0x323 SWAP12 SWAP11 SWAP10 SWAP9 SWAP8 SWAP7 SWAP6 SWAP5 SWAP4 SWAP3 SWAP2 SWAP1 PUSH2 0x13A8 JUMP JUMPDEST PUSH1 0x40 MLOAD DUP1 SWAP2 SUB SWAP1 RETURN JUMPDEST PUSH2 0x346 PUSH1 0x4 DUP1 CALLDATASIZE SUB DUP2 ADD SWAP1 PUSH2 0x341 SWAP2 SWAP1 PUSH2 0x1516 JUMP JUMPDEST PUSH2 0xC6B JUMP JUMPDEST STOP JUMPDEST PUSH2 0x362 PUSH1 0x4 DUP1 CALLDATASIZE SUB DUP2 ADD SWAP1 PUSH2 0x35D SWAP2 SWAP1 PUSH2 0x17B7 JUMP JUMPDEST PUSH2 0xC8D JUMP JUMPDEST STOP JUMPDEST PUSH2 0x37E PUSH1 0x4 DUP1 CALLDATASIZE SUB DUP2 ADD SWAP1 PUSH2 0x379 SWAP2 SWAP1 PUSH2 0x17B7 JUMP JUMPDEST PUSH2 0xCC2 JUMP JUMPDEST STOP JUMPDEST PUSH0 PUSH32 0x7965DB0B00000000000000000000000000000000000000000000000000000000 PUSH28 0xFFFFFFFFFFFFFFFFFFFFFFFFFFFFFFFFFFFFFFFFFFFFFFFFFFFFFFFF NOT AND DUP3 PUSH28 0xFFFFFFFFFFFFFFFFFFFFFFFFFFFFFFFFFFFFFFFFFFFFFFFFFFFFFFFF NOT AND EQ DUP1 PUSH2 0x3F2 JUMPI POP PUSH2 0x3F1 DUP3 PUSH2 0xD46 JUMP JUMPDEST JUMPDEST SWAP1 POP SWAP2 SWAP1 POP JUMP JUMPDEST PUSH2 0x423 PUSH32 0x59A1C48E5837AD7A7F3DCEDCBE129BF3249EC4FBF651FD4F5E2600EAD39FE2F5 CALLER PUSH2 0x9EF JUMP JUMPDEST PUSH2 0x462 JUMPI PUSH1 0x40 MLOAD PUSH32 0x8C379A000000000000000000000000000000000000000000000000000000000 DUP2 MSTORE PUSH1 0x4 ADD PUSH2 0x459 SWAP1 PUSH2 0x1852 JUMP JUMPDEST PUSH1 0x40 MLOAD DUP1 SWAP2 SUB SWAP1 REVERT JUMPDEST PUSH0 PUSH1 0x2 PUSH0 DUP8 DUP2 MSTORE PUSH1 0x20 ADD SWAP1 DUP2 MSTORE PUSH1 0x20 ADD PUSH0 KECCAK256 SWAP1 POP DUP5 DUP2 PUSH1 0x5 ADD DUP2 SWAP1 SSTORE POP DUP4 DUP2 PUSH1 0x7 ADD DUP2 SWAP1 SSTORE POP DUP3 DUP2 PUSH1 0x8 ADD DUP2 SWAP1 SSTORE POP DUP2 DUP2 PUSH1 0x9 ADD DUP2 SWAP1 SSTORE POP PUSH1 0x1 DUP2 PUSH1 0xA ADD PUSH0 PUSH2 0x100 EXP DUP2 SLOAD DUP2 PUSH1 0xFF MUL NOT AND SWAP1 DUP4 ISZERO ISZERO MUL OR SWAP1 SSTORE POP POP POP POP POP POP POP JUMP JUMPDEST PUSH0 DUP1 PUSH1 0x60 DUP1 PUSH0 DUP1 PUSH1 0x60 PUSH0 DUP1 PUSH0 DUP1 PUSH0 PUSH1 0x2 PUSH0 DUP15 DUP2 MSTORE PUSH1 0x20 ADD SWAP1 DUP2 MSTORE PUSH1 0x20 ADD PUSH0 KECCAK256 SWAP1 POP DUP1 PUSH0 ADD SLOAD DUP2 PUSH1 0x1 ADD PUSH0 SWAP1 SLOAD SWAP1 PUSH2 0x100 EXP SWAP1 DIV PUSH20 0xFFFFFFFFFFFFFFFFFFFFFFFFFFFFFFFFFFFFFFFF AND DUP3 PUSH1 0x2 ADD DUP4 PUSH1 0x3 ADD DUP5 PUSH1 0x4 ADD SLOAD DUP6 PUSH1 0x5 ADD SLOAD DUP7 PUSH1 0x6 ADD DUP8 PUSH1 0x7 ADD SLOAD DUP9 PUSH1 0x8 ADD SLOAD DUP10 PUSH1 0x9 ADD SLOAD DUP11 PUSH1 0xA ADD PUSH0 SWAP1 SLOAD SWAP1 PUSH2 0x100 EXP SWAP1 DIV PUSH1 0xFF AND DUP9 DUP1 SLOAD PUSH2 0x549 SWAP1 PUSH2 0x189D JUMP JUMPDEST DUP1 PUSH1 0x1F ADD PUSH1 0x20 DUP1 SWAP2 DIV MUL PUSH1 0x20 ADD PUSH1 0x40 MLOAD SWAP1 DUP2 ADD PUSH1 0x40 MSTORE DUP1 SWAP3 SWAP2 SWAP1 DUP2 DUP2 MSTORE PUSH1 0x20 ADD DUP3 DUP1 SLOAD PUSH2 0x575 SWAP1 PUSH2 0x189D JUMP JUMPDEST DUP1 ISZERO PUSH2 0x5C0 JUMPI DUP1 PUSH1 0x1F LT PUSH2 0x597 JUMPI PUSH2 0x100 DUP1 DUP4 SLOAD DIV MUL DUP4 MSTORE SWAP2 PUSH1 0x20 ADD SWAP2 PUSH2 0x5C0 JUMP JUMPDEST DUP3 ADD SWAP2 SWAP1 PUSH0 MSTORE PUSH1 0x20 PUSH0 KECCAK256 SWAP1 JUMPDEST DUP2 SLOAD DUP2 MSTORE SWAP1 PUSH1 0x1 ADD SWAP1 PUSH1 0x20 ADD DUP1 DUP4 GT PUSH2 0x5A3 JUMPI DUP3 SWAP1 SUB PUSH1 0x1F AND DUP3 ADD SWAP2 JUMPDEST POP POP POP POP POP SWAP9 POP DUP8 DUP1 SLOAD PUSH2 0x5D3 SWAP1 PUSH2 0x189D JUMP JUMPDEST DUP1 PUSH1 0x1F ADD PUSH1 0x20 DUP1 SWAP2 DIV MUL PUSH1 0x20 ADD PUSH1 0x40 MLOAD SWAP1 DUP2 ADD PUSH1 0x40 MSTORE DUP1 SWAP3 SWAP2 SWAP1 DUP2 DUP2 MSTORE PUSH1 0x20 ADD DUP3 DUP1 SLOAD PUSH2 0x5FF SWAP1 PUSH2 0x189D JUMP JUMPDEST DUP1 ISZERO PUSH2 0x64A JUMPI DUP1 PUSH1 0x1F LT PUSH2 0x621 JUMPI PUSH2 0x100 DUP1 DUP4 SLOAD DIV MUL DUP4 MSTORE SWAP2 PUSH1 0x20 ADD SWAP2 PUSH2 0x64A JUMP JUMPDEST DUP3 ADD SWAP2 SWAP1 PUSH0 MSTORE PUSH1 0x20 PUSH0 KECCAK256 SWAP1 JUMPDEST DUP2 SLOAD DUP2 MSTORE SWAP1 PUSH1 0x1 ADD SWAP1 PUSH1 0x20 ADD DUP1 DUP4 GT PUSH2 0x62D JUMPI DUP3 SWAP1 SUB PUSH1 0x1F AND DUP3 ADD SWAP2 JUMPDEST POP POP POP POP POP SWAP8 POP DUP5 DUP1 SLOAD PUSH2 0x65D SWAP1 PUSH2 0x189D JUMP JUMPDEST DUP1 PUSH1 0x1F ADD PUSH1 0x20 DUP1 SWAP2 DIV MUL PUSH1 0x20 ADD PUSH1 0x40 MLOAD SWAP1 DUP2 ADD PUSH1 0x40 MSTORE DUP1 SWAP3 SWAP2 SWAP1 DUP2 DUP2 MSTORE PUSH1 0x20 ADD DUP3 DUP1 SLOAD PUSH2 0x689 SWAP1 PUSH2 0x189D JUMP JUMPDEST DUP1 ISZERO PUSH2 0x6D4 JUMPI DUP1 PUSH1 0x1F LT PUSH2 0x6AB JUMPI PUSH2 0x100 DUP1 DUP4 SLOAD DIV MUL DUP4 MSTORE SWAP2 PUSH1 0x20 ADD SWAP2 PUSH2 0x6D4 JUMP JUMPDEST DUP3 ADD SWAP2 SWAP1 PUSH0 MSTORE PUSH1 0x20 PUSH0 KECCAK256 SWAP1 JUMPDEST DUP2 SLOAD DUP2 MSTORE SWAP1 PUSH1 0x1 ADD SWAP1 PUSH1 0x20 ADD DUP1 DUP4 GT PUSH2 0x6B7 JUMPI DUP3 SWAP1 SUB PUSH1 0x1F AND DUP3 ADD SWAP2 JUMPDEST POP POP POP POP POP SWAP5 POP SWAP12 POP SWAP12 POP SWAP12 POP SWAP12 POP SWAP12 POP SWAP12 POP SWAP12 POP SWAP12 POP SWAP12 POP SWAP12 POP SWAP12 POP POP SWAP2 SWAP4 SWAP6 SWAP8 SWAP10 SWAP12 SWAP1 SWAP3 SWAP5 SWAP7 SWAP9 SWAP11 POP JUMP JUMPDEST PUSH0 DUP1 PUSH0 DUP4 DUP2 MSTORE PUSH1 0x20 ADD SWAP1 DUP2 MSTORE PUSH1 0x20 ADD PUSH0 KECCAK256 PUSH1 0x1 ADD SLOAD SWAP1 POP SWAP2 SWAP1 POP JUMP JUMPDEST PUSH2 0x726 DUP3 PUSH2 0x701 JUMP JUMPDEST PUSH2 0x72F DUP2 PUSH2 0xDAF JUMP JUMPDEST PUSH2 0x739 DUP4 DUP4 PUSH2 0xDC3 JUMP JUMPDEST POP POP POP POP JUMP JUMPDEST PUSH2 0x747 PUSH2 0xEAC JUMP JUMPDEST PUSH20 0xFFFFFFFFFFFFFFFFFFFFFFFFFFFFFFFFFFFFFFFF AND DUP2 PUSH20 0xFFFFFFFFFFFFFFFFFFFFFFFFFFFFFFFFFFFFFFFF AND EQ PUSH2 0x7AB JUMPI PUSH1 0x40 MLOAD PUSH32 0x6697B23200000000000000000000000000000000000000000000000000000000 DUP2 MSTORE PUSH1 0x4 ADD PUSH1 0x40 MLOAD DUP1 SWAP2 SUB SWAP1 REVERT JUMPDEST PUSH2 0x7B5 DUP3 DUP3 PUSH2 0xEB3 JUMP JUMPDEST POP POP POP JUMP JUMPDEST PUSH1 0x3 SLOAD DUP2 JUMP JUMPDEST PUSH32 0x59A1C48E5837AD7A7F3DCEDCBE129BF3249EC4FBF651FD4F5E2600EAD39FE2F5 PUSH2 0x7EA DUP2 PUSH2 0xDAF JUMP JUMPDEST PUSH1 0x40 MLOAD DUP1 PUSH2 0x160 ADD PUSH1 0x40 MSTORE DUP1 PUSH1 0x3 SLOAD DUP2 MSTORE PUSH1 0x20 ADD CALLER PUSH20 0xFFFFFFFFFFFFFFFFFFFFFFFFFFFFFFFFFFFFFFFF AND DUP2 MSTORE PUSH1 0x20 ADD DUP11 DUP2 MSTORE PUSH1 0x20 ADD DUP10 DUP2 MSTORE PUSH1 0x20 ADD DUP9 DUP2 MSTORE PUSH1 0x20 ADD DUP8 DUP2 MSTORE PUSH1 0x20 ADD DUP7 DUP2 MSTORE PUSH1 0x20 ADD DUP6 DUP2 MSTORE PUSH1 0x20 ADD DUP5 DUP2 MSTORE PUSH1 0x20 ADD DUP4 DUP2 MSTORE PUSH1 0x20 ADD PUSH0 ISZERO ISZERO DUP2 MSTORE POP PUSH1 0x2 PUSH0 PUSH1 0x3 SLOAD DUP2 MSTORE PUSH1 0x20 ADD SWAP1 DUP2 MSTORE PUSH1 0x20 ADD PUSH0 KECCAK256 PUSH0 DUP3 ADD MLOAD DUP2 PUSH0 ADD SSTORE PUSH1 0x20 DUP3 ADD MLOAD DUP2 PUSH1 0x1 ADD PUSH0 PUSH2 0x100 EXP DUP2 SLOAD DUP2 PUSH20 0xFFFFFFFFFFFFFFFFFFFFFFFFFFFFFFFFFFFFFFFF MUL NOT AND SWAP1 DUP4 PUSH20 0xFFFFFFFFFFFFFFFFFFFFFFFFFFFFFFFFFFFFFFFF AND MUL OR SWAP1 SSTORE POP PUSH1 0x40 DUP3 ADD MLOAD DUP2 PUSH1 0x2 ADD SWAP1 DUP2 PUSH2 0x8C6 SWAP2 SWAP1 PUSH2 0x1A6A JUMP JUMPDEST POP PUSH1 0x60 DUP3 ADD MLOAD DUP2 PUSH1 0x3 ADD SWAP1 DUP2 PUSH2 0x8DC SWAP2 SWAP1 PUSH2 0x1A6A JUMP JUMPDEST POP PUSH1 0x80 DUP3 ADD MLOAD DUP2 PUSH1 0x4 ADD SSTORE PUSH1 0xA0 DUP3 ADD MLOAD DUP2 PUSH1 0x5 ADD SSTORE PUSH1 0xC0 DUP3 ADD MLOAD DUP2 PUSH1 0x6 ADD SWAP1 DUP2 PUSH2 0x906 SWAP2 SWAP1 PUSH2 0x1A6A JUMP JUMPDEST POP PUSH1 0xE0 DUP3 ADD MLOAD DUP2 PUSH1 0x7 ADD SSTORE PUSH2 0x100 DUP3 ADD MLOAD DUP2 PUSH1 0x8 ADD SSTORE PUSH2 0x120 DUP3 ADD MLOAD DUP2 PUSH1 0x9 ADD SSTORE PUSH2 0x140 DUP3 ADD MLOAD DUP2 PUSH1 0xA ADD PUSH0 PUSH2 0x100 EXP DUP2 SLOAD DUP2 PUSH1 0xFF MUL NOT AND SWAP1 DUP4 ISZERO ISZERO MUL OR SWAP1 SSTORE POP SWAP1 POP POP PUSH1 0x3 PUSH0 DUP2 SLOAD DUP1 SWAP3 SWAP2 SWAP1 PUSH2 0x95C SWAP1 PUSH2 0x1B66 JUMP JUMPDEST SWAP2 SWAP1 POP SSTORE POP POP POP POP POP POP POP POP POP POP JUMP JUMPDEST PUSH32 0x59A1C48E5837AD7A7F3DCEDCBE129BF3249EC4FBF651FD4F5E2600EAD39FE2F5 DUP2 JUMP JUMPDEST PUSH2 0x998 PUSH2 0xF9C JUMP JUMPDEST PUSH2 0x9A1 PUSH0 PUSH2 0x1023 JUMP JUMPDEST JUMP JUMPDEST PUSH32 0xA49807205CE4D355092EF5A8A18F56E8913CF4A201FBE287825B095693C21775 DUP2 JUMP JUMPDEST PUSH0 PUSH1 0x1 PUSH0 SWAP1 SLOAD SWAP1 PUSH2 0x100 EXP SWAP1 DIV PUSH20 0xFFFFFFFFFFFFFFFFFFFFFFFFFFFFFFFFFFFFFFFF AND SWAP1 POP SWAP1 JUMP JUMPDEST PUSH0 DUP1 PUSH0 DUP5 DUP2 MSTORE PUSH1 0x20 ADD SWAP1 DUP2 MSTORE PUSH1 0x20 ADD PUSH0 KECCAK256 PUSH0 ADD PUSH0 DUP4 PUSH20 0xFFFFFFFFFFFFFFFFFFFFFFFFFFFFFFFFFFFFFFFF AND PUSH20 0xFFFFFFFFFFFFFFFFFFFFFFFFFFFFFFFFFFFFFFFF AND DUP2 MSTORE PUSH1 0x20 ADD SWAP1 DUP2 MSTORE PUSH1 0x20 ADD PUSH0 KECCAK256 PUSH0 SWAP1 SLOAD SWAP1 PUSH2 0x100 EXP SWAP1 DIV PUSH1 0xFF AND SWAP1 POP SWAP3 SWAP2 POP POP JUMP JUMPDEST PUSH0 DUP1 SHL DUP2 JUMP JUMPDEST PUSH1 0x2 PUSH1 0x20 MSTORE DUP1 PUSH0 MSTORE PUSH1 0x40 PUSH0 KECCAK256 PUSH0 SWAP2 POP SWAP1 POP DUP1 PUSH0 ADD SLOAD SWAP1 DUP1 PUSH1 0x1 ADD PUSH0 SWAP1 SLOAD SWAP1 PUSH2 0x100 EXP SWAP1 DIV PUSH20 0xFFFFFFFFFFFFFFFFFFFFFFFFFFFFFFFFFFFFFFFF AND SWAP1 DUP1 PUSH1 0x2 ADD DUP1 SLOAD PUSH2 0xAA2 SWAP1 PUSH2 0x189D JUMP JUMPDEST DUP1 PUSH1 0x1F ADD PUSH1 0x20 DUP1 SWAP2 DIV MUL PUSH1 0x20 ADD PUSH1 0x40 MLOAD SWAP1 DUP2 ADD PUSH1 0x40 MSTORE DUP1 SWAP3 SWAP2 SWAP1 DUP2 DUP2 MSTORE PUSH1 0x20 ADD DUP3 DUP1 SLOAD PUSH2 0xACE SWAP1 PUSH2 0x189D JUMP JUMPDEST DUP1 ISZERO PUSH2 0xB19 JUMPI DUP1 PUSH1 0x1F LT PUSH2 0xAF0 JUMPI PUSH2 0x100 DUP1 DUP4 SLOAD DIV MUL DUP4 MSTORE SWAP2 PUSH1 0x20 ADD SWAP2 PUSH2 0xB19 JUMP JUMPDEST DUP3 ADD SWAP2 SWAP1 PUSH0 MSTORE PUSH1 0x20 PUSH0 KECCAK256 SWAP1 JUMPDEST DUP2 SLOAD DUP2 MSTORE SWAP1 PUSH1 0x1 ADD SWAP1 PUSH1 0x20 ADD DUP1 DUP4 GT PUSH2 0xAFC JUMPI DUP3 SWAP1 SUB PUSH1 0x1F AND DUP3 ADD SWAP2 JUMPDEST POP POP POP POP POP SWAP1 DUP1 PUSH1 0x3 ADD DUP1 SLOAD PUSH2 0xB2E SWAP1 PUSH2 0x189D JUMP JUMPDEST DUP1 PUSH1 0x1F ADD PUSH1 0x20 DUP1 SWAP2 DIV MUL PUSH1 0x20 ADD PUSH1 0x40 MLOAD SWAP1 DUP2 ADD PUSH1 0x40 MSTORE DUP1 SWAP3 SWAP2 SWAP1 DUP2 DUP2 MSTORE PUSH1 0x20 ADD DUP3 DUP1 SLOAD PUSH2 0xB5A SWAP1 PUSH2 0x189D JUMP JUMPDEST DUP1 ISZERO PUSH2 0xBA5 JUMPI DUP1 PUSH1 0x1F LT PUSH2 0xB7C JUMPI PUSH2 0x100 DUP1 DUP4 SLOAD DIV MUL DUP4 MSTORE SWAP2 PUSH1 0x20 ADD SWAP2 PUSH2 0xBA5 JUMP JUMPDEST DUP3 ADD SWAP2 SWAP1 PUSH0 MSTORE PUSH1 0x20 PUSH0 KECCAK256 SWAP1 JUMPDEST DUP2 SLOAD DUP2 MSTORE SWAP1 PUSH1 0x1 ADD SWAP1 PUSH1 0x20 ADD DUP1 DUP4 GT PUSH2 0xB88 JUMPI DUP3 SWAP1 SUB PUSH1 0x1F AND DUP3 ADD SWAP2 JUMPDEST POP POP POP POP POP SWAP1 DUP1 PUSH1 0x4 ADD SLOAD SWAP1 DUP1 PUSH1 0x5 ADD SLOAD SWAP1 DUP1 PUSH1 0x6 ADD DUP1 SLOAD PUSH2 0xBC6 SWAP1 PUSH2 0x189D JUMP JUMPDEST DUP1 PUSH1 0x1F ADD PUSH1 0x20 DUP1 SWAP2 DIV MUL PUSH1 0x20 ADD PUSH1 0x40 MLOAD SWAP1 DUP2 ADD PUSH1 0x40 MSTORE DUP1 SWAP3 SWAP2 SWAP1 DUP2 DUP2 MSTORE PUSH1 0x20 ADD DUP3 DUP1 SLOAD PUSH2 0xBF2 SWAP1 PUSH2 0x189D JUMP JUMPDEST DUP1 ISZERO PUSH2 0xC3D JUMPI DUP1 PUSH1 0x1F LT PUSH2 0xC14 JUMPI PUSH2 0x100 DUP1 DUP4 SLOAD DIV MUL DUP4 MSTORE SWAP2 PUSH1 0x20 ADD SWAP2 PUSH2 0xC3D JUMP JUMPDEST DUP3 ADD SWAP2 SWAP1 PUSH0 MSTORE PUSH1 0x20 PUSH0 KECCAK256 SWAP1 JUMPDEST DUP2 SLOAD DUP2 MSTORE SWAP1 PUSH1 0x1 ADD SWAP1 PUSH1 0x20 ADD DUP1 DUP4 GT PUSH2 0xC20 JUMPI DUP3 SWAP1 SUB PUSH1 0x1F AND DUP3 ADD SWAP2 JUMPDEST POP POP POP POP POP SWAP1 DUP1 PUSH1 0x7 ADD SLOAD SWAP1 DUP1 PUSH1 0x8 ADD SLOAD SWAP1 DUP1 PUSH1 0x9 ADD SLOAD SWAP1 DUP1 PUSH1 0xA ADD PUSH0 SWAP1 SLOAD SWAP1 PUSH2 0x100 EXP SWAP1 DIV PUSH1 0xFF AND SWAP1 POP DUP12 JUMP JUMPDEST PUSH2 0xC74 DUP3 PUSH2 0x701 JUMP JUMPDEST PUSH2 0xC7D DUP2 PUSH2 0xDAF JUMP JUMPDEST PUSH2 0xC87 DUP4 DUP4 PUSH2 0xEB3 JUMP JUMPDEST POP POP POP POP JUMP JUMPDEST PUSH2 0xC95 PUSH2 0xF9C JUMP JUMPDEST PUSH2 0xCBF PUSH32 0x59A1C48E5837AD7A7F3DCEDCBE129BF3249EC4FBF651FD4F5E2600EAD39FE2F5 DUP3 PUSH2 0x71D JUMP JUMPDEST POP JUMP JUMPDEST PUSH2 0xCCA PUSH2 0xF9C JUMP JUMPDEST PUSH0 PUSH20 0xFFFFFFFFFFFFFFFFFFFFFFFFFFFFFFFFFFFFFFFF AND DUP2 PUSH20 0xFFFFFFFFFFFFFFFFFFFFFFFFFFFFFFFFFFFFFFFF AND SUB PUSH2 0xD3A JUMPI PUSH0 PUSH1 0x40 MLOAD PUSH32 0x1E4FBDF700000000000000000000000000000000000000000000000000000000 DUP2 MSTORE PUSH1 0x4 ADD PUSH2 0xD31 SWAP2 SWAP1 PUSH2 0x179E JUMP JUMPDEST PUSH1 0x40 MLOAD DUP1 SWAP2 SUB SWAP1 REVERT JUMPDEST PUSH2 0xD43 DUP2 PUSH2 0x1023 JUMP JUMPDEST POP JUMP JUMPDEST PUSH0 PUSH32 0x1FFC9A700000000000000000000000000000000000000000000000000000000 PUSH28 0xFFFFFFFFFFFFFFFFFFFFFFFFFFFFFFFFFFFFFFFFFFFFFFFFFFFFFFFF NOT AND DUP3 PUSH28 0xFFFFFFFFFFFFFFFFFFFFFFFFFFFFFFFFFFFFFFFFFFFFFFFFFFFFFFFF NOT AND EQ SWAP1 POP SWAP2 SWAP1 POP JUMP JUMPDEST PUSH2 0xDC0 DUP2 PUSH2 0xDBB PUSH2 0xEAC JUMP JUMPDEST PUSH2 0x10E6 JUMP JUMPDEST POP JUMP JUMPDEST PUSH0 PUSH2 0xDCE DUP4 DUP4 PUSH2 0x9EF JUMP JUMPDEST PUSH2 0xEA2 JUMPI PUSH1 0x1 PUSH0 DUP1 DUP6 DUP2 MSTORE PUSH1 0x20 ADD SWAP1 DUP2 MSTORE PUSH1 0x20 ADD PUSH0 KECCAK256 PUSH0 ADD PUSH0 DUP5 PUSH20 0xFFFFFFFFFFFFFFFFFFFFFFFFFFFFFFFFFFFFFFFF AND PUSH20 0xFFFFFFFFFFFFFFFFFFFFFFFFFFFFFFFFFFFFFFFF AND DUP2 MSTORE PUSH1 0x20 ADD SWAP1 DUP2 MSTORE PUSH1 0x20 ADD PUSH0 KECCAK256 PUSH0 PUSH2 0x100 EXP DUP2 SLOAD DUP2 PUSH1 0xFF MUL NOT AND SWAP1 DUP4 ISZERO ISZERO MUL OR SWAP1 SSTORE POP PUSH2 0xE3F PUSH2 0xEAC JUMP JUMPDEST PUSH20 0xFFFFFFFFFFFFFFFFFFFFFFFFFFFFFFFFFFFFFFFF AND DUP3 PUSH20 0xFFFFFFFFFFFFFFFFFFFFFFFFFFFFFFFFFFFFFFFF AND DUP5 PUSH32 0x2F8788117E7EFF1D82E926EC794901D17C78024A50270940304540A733656F0D PUSH1 0x40 MLOAD PUSH1 0x40 MLOAD DUP1 SWAP2 SUB SWAP1 LOG4 PUSH1 0x1 SWAP1 POP PUSH2 0xEA6 JUMP JUMPDEST PUSH0 SWAP1 POP JUMPDEST SWAP3 SWAP2 POP POP JUMP JUMPDEST PUSH0 CALLER SWAP1 POP SWAP1 JUMP JUMPDEST PUSH0 PUSH2 0xEBE DUP4 DUP4 PUSH2 0x9EF JUMP JUMPDEST ISZERO PUSH2 0xF92 JUMPI PUSH0 DUP1 PUSH0 DUP6 DUP2 MSTORE PUSH1 0x20 ADD SWAP1 DUP2 MSTORE PUSH1 0x20 ADD PUSH0 KECCAK256 PUSH0 ADD PUSH0 DUP5 PUSH20 0xFFFFFFFFFFFFFFFFFFFFFFFFFFFFFFFFFFFFFFFF AND PUSH20 0xFFFFFFFFFFFFFFFFFFFFFFFFFFFFFFFFFFFFFFFF AND DUP2 MSTORE PUSH1 0x20 ADD SWAP1 DUP2 MSTORE PUSH1 0x20 ADD PUSH0 KECCAK256 PUSH0 PUSH2 0x100 EXP DUP2 SLOAD DUP2 PUSH1 0xFF MUL NOT AND SWAP1 DUP4 ISZERO ISZERO MUL OR SWAP1 SSTORE POP PUSH2 0xF2F PUSH2 0xEAC JUMP JUMPDEST PUSH20 0xFFFFFFFFFFFFFFFFFFFFFFFFFFFFFFFFFFFFFFFF AND DUP3 PUSH20 0xFFFFFFFFFFFFFFFFFFFFFFFFFFFFFFFFFFFFFFFF AND DUP5 PUSH32 0xF6391F5C32D9C69D2A47EA670B442974B53935D1EDC7FD64EB21E047A839171B PUSH1 0x40 MLOAD PUSH1 0x40 MLOAD DUP1 SWAP2 SUB SWAP1 LOG4 PUSH1 0x1 SWAP1 POP PUSH2 0xF96 JUMP JUMPDEST PUSH0 SWAP1 POP JUMPDEST SWAP3 SWAP2 POP POP JUMP JUMPDEST PUSH2 0xFA4 PUSH2 0xEAC JUMP JUMPDEST PUSH20 0xFFFFFFFFFFFFFFFFFFFFFFFFFFFFFFFFFFFFFFFF AND PUSH2 0xFC2 PUSH2 0x9C7 JUMP JUMPDEST PUSH20 0xFFFFFFFFFFFFFFFFFFFFFFFFFFFFFFFFFFFFFFFF AND EQ PUSH2 0x1021 JUMPI PUSH2 0xFE5 PUSH2 0xEAC JUMP JUMPDEST PUSH1 0x40 MLOAD PUSH32 0x118CDAA700000000000000000000000000000000000000000000000000000000 DUP2 MSTORE PUSH1 0x4 ADD PUSH2 0x1018 SWAP2 SWAP1 PUSH2 0x179E JUMP JUMPDEST PUSH1 0x40 MLOAD DUP1 SWAP2 SUB SWAP1 REVERT JUMPDEST JUMP JUMPDEST PUSH0 PUSH1 0x1 PUSH0 SWAP1 SLOAD SWAP1 PUSH2 0x100 EXP SWAP1 DIV PUSH20 0xFFFFFFFFFFFFFFFFFFFFFFFFFFFFFFFFFFFFFFFF AND SWAP1 POP DUP2 PUSH1 0x1 PUSH0 PUSH2 0x100 EXP DUP2 SLOAD DUP2 PUSH20 0xFFFFFFFFFFFFFFFFFFFFFFFFFFFFFFFFFFFFFFFF MUL NOT AND SWAP1 DUP4 PUSH20 0xFFFFFFFFFFFFFFFFFFFFFFFFFFFFFFFFFFFFFFFF AND MUL OR SWAP1 SSTORE POP DUP2 PUSH20 0xFFFFFFFFFFFFFFFFFFFFFFFFFFFFFFFFFFFFFFFF AND DUP2 PUSH20 0xFFFFFFFFFFFFFFFFFFFFFFFFFFFFFFFFFFFFFFFF AND PUSH32 0x8BE0079C531659141344CD1FD0A4F28419497F9722A3DAAFE3B4186F6B6457E0 PUSH1 0x40 MLOAD PUSH1 0x40 MLOAD DUP1 SWAP2 SUB SWAP1 LOG3 POP POP JUMP JUMPDEST PUSH2 0x10F0 DUP3 DUP3 PUSH2 0x9EF JUMP JUMPDEST PUSH2 0x1133 JUMPI DUP1 DUP3 PUSH1 0x40 MLOAD PUSH32 0xE2517D3F00000000000000000000000000000000000000000000000000000000 DUP2 MSTORE PUSH1 0x4 ADD PUSH2 0x112A SWAP3 SWAP2 SWAP1 PUSH2 0x1BAD JUMP JUMPDEST PUSH1 0x40 MLOAD DUP1 SWAP2 SUB SWAP1 REVERT JUMPDEST POP POP JUMP JUMPDEST PUSH0 PUSH1 0x40 MLOAD SWAP1 POP SWAP1 JUMP JUMPDEST PUSH0 DUP1 REVERT JUMPDEST PUSH0 DUP1 REVERT JUMPDEST PUSH0 PUSH32 0xFFFFFFFF00000000000000000000000000000000000000000000000000000000 DUP3 AND SWAP1 POP SWAP2 SWAP1 POP JUMP JUMPDEST PUSH2 0x117C DUP2 PUSH2 0x1148 JUMP JUMPDEST DUP2 EQ PUSH2 0x1186 JUMPI PUSH0 DUP1 REVERT JUMPDEST POP JUMP JUMPDEST PUSH0 DUP2 CALLDATALOAD SWAP1 POP PUSH2 0x1197 DUP2 PUSH2 0x1173 JUMP JUMPDEST SWAP3 SWAP2 POP POP JUMP JUMPDEST PUSH0 PUSH1 0x20 DUP3 DUP5 SUB SLT ISZERO PUSH2 0x11B2 JUMPI PUSH2 0x11B1 PUSH2 0x1140 JUMP JUMPDEST JUMPDEST PUSH0 PUSH2 0x11BF DUP5 DUP3 DUP6 ADD PUSH2 0x1189 JUMP JUMPDEST SWAP2 POP POP SWAP3 SWAP2 POP POP JUMP JUMPDEST PUSH0 DUP2 ISZERO ISZERO SWAP1 POP SWAP2 SWAP1 POP JUMP JUMPDEST PUSH2 0x11DC DUP2 PUSH2 0x11C8 JUMP JUMPDEST DUP3 MSTORE POP POP JUMP JUMPDEST PUSH0 PUSH1 0x20 DUP3 ADD SWAP1 POP PUSH2 0x11F5 PUSH0 DUP4 ADD DUP5 PUSH2 0x11D3 JUMP JUMPDEST SWAP3 SWAP2 POP POP JUMP JUMPDEST PUSH0 DUP2 SWAP1 POP SWAP2 SWAP1 POP JUMP JUMPDEST PUSH2 0x120D DUP2 PUSH2 0x11FB JUMP JUMPDEST DUP2 EQ PUSH2 0x1217 JUMPI PUSH0 DUP1 REVERT JUMPDEST POP JUMP JUMPDEST PUSH0 DUP2 CALLDATALOAD SWAP1 POP PUSH2 0x1228 DUP2 PUSH2 0x1204 JUMP JUMPDEST SWAP3 SWAP2 POP POP JUMP JUMPDEST PUSH0 DUP1 PUSH0 DUP1 PUSH0 PUSH1 0xA0 DUP7 DUP9 SUB SLT ISZERO PUSH2 0x1247 JUMPI PUSH2 0x1246 PUSH2 0x1140 JUMP JUMPDEST JUMPDEST PUSH0 PUSH2 0x1254 DUP9 DUP3 DUP10 ADD PUSH2 0x121A JUMP JUMPDEST SWAP6 POP POP PUSH1 0x20 PUSH2 0x1265 DUP9 DUP3 DUP10 ADD PUSH2 0x121A JUMP JUMPDEST SWAP5 POP POP PUSH1 0x40 PUSH2 0x1276 DUP9 DUP3 DUP10 ADD PUSH2 0x121A JUMP JUMPDEST SWAP4 POP POP PUSH1 0x60 PUSH2 0x1287 DUP9 DUP3 DUP10 ADD PUSH2 0x121A JUMP JUMPDEST SWAP3 POP POP PUSH1 0x80 PUSH2 0x1298 DUP9 DUP3 DUP10 ADD PUSH2 0x121A JUMP JUMPDEST SWAP2 POP POP SWAP3 SWAP6 POP SWAP3 SWAP6 SWAP1 SWAP4 POP JUMP JUMPDEST PUSH0 PUSH1 0x20 DUP3 DUP5 SUB SLT ISZERO PUSH2 0x12BA JUMPI PUSH2 0x12B9 PUSH2 0x1140 JUMP JUMPDEST JUMPDEST PUSH0 PUSH2 0x12C7 DUP5 DUP3 DUP6 ADD PUSH2 0x121A JUMP JUMPDEST SWAP2 POP POP SWAP3 SWAP2 POP POP JUMP JUMPDEST PUSH2 0x12D9 DUP2 PUSH2 0x11FB JUMP JUMPDEST DUP3 MSTORE POP POP JUMP JUMPDEST PUSH0 PUSH20 0xFFFFFFFFFFFFFFFFFFFFFFFFFFFFFFFFFFFFFFFF DUP3 AND SWAP1 POP SWAP2 SWAP1 POP JUMP JUMPDEST PUSH0 PUSH2 0x1308 DUP3 PUSH2 0x12DF JUMP JUMPDEST SWAP1 POP SWAP2 SWAP1 POP JUMP JUMPDEST PUSH2 0x1318 DUP2 PUSH2 0x12FE JUMP JUMPDEST DUP3 MSTORE POP POP JUMP JUMPDEST PUSH0 DUP2 MLOAD SWAP1 POP SWAP2 SWAP1 POP JUMP JUMPDEST PUSH0 DUP3 DUP3 MSTORE PUSH1 0x20 DUP3 ADD SWAP1 POP SWAP3 SWAP2 POP POP JUMP JUMPDEST PUSH0 JUMPDEST DUP4 DUP2 LT ISZERO PUSH2 0x1355 JUMPI DUP1 DUP3 ADD MLOAD DUP2 DUP5 ADD MSTORE PUSH1 0x20 DUP2 ADD SWAP1 POP PUSH2 0x133A JUMP JUMPDEST PUSH0 DUP5 DUP5 ADD MSTORE POP POP POP POP JUMP JUMPDEST PUSH0 PUSH1 0x1F NOT PUSH1 0x1F DUP4 ADD AND SWAP1 POP SWAP2 SWAP1 POP JUMP JUMPDEST PUSH0 PUSH2 0x137A DUP3 PUSH2 0x131E JUMP JUMPDEST PUSH2 0x1384 DUP2 DUP6 PUSH2 0x1328 JUMP JUMPDEST SWAP4 POP PUSH2 0x1394 DUP2 DUP6 PUSH1 0x20 DUP7 ADD PUSH2 0x1338 JUMP JUMPDEST PUSH2 0x139D DUP2 PUSH2 0x1360 JUMP JUMPDEST DUP5 ADD SWAP2 POP POP SWAP3 SWAP2 POP POP JUMP JUMPDEST PUSH0 PUSH2 0x160 DUP3 ADD SWAP1 POP PUSH2 0x13BC PUSH0 DUP4 ADD DUP15 PUSH2 0x12D0 JUMP JUMPDEST PUSH2 0x13C9 PUSH1 0x20 DUP4 ADD DUP14 PUSH2 0x130F JUMP JUMPDEST DUP2 DUP2 SUB PUSH1 0x40 DUP4 ADD MSTORE PUSH2 0x13DB DUP2 DUP13 PUSH2 0x1370 JUMP JUMPDEST SWAP1 POP DUP2 DUP2 SUB PUSH1 0x60 DUP4 ADD MSTORE PUSH2 0x13EF DUP2 DUP12 PUSH2 0x1370 JUMP JUMPDEST SWAP1 POP PUSH2 0x13FE PUSH1 0x80 DUP4 ADD DUP11 PUSH2 0x12D0 JUMP JUMPDEST PUSH2 0x140B PUSH1 0xA0 DUP4 ADD DUP10 PUSH2 0x12D0 JUMP JUMPDEST DUP2 DUP2 SUB PUSH1 0xC0 DUP4 ADD MSTORE PUSH2 0x141D DUP2 DUP9 PUSH2 0x1370 JUMP JUMPDEST SWAP1 POP PUSH2 0x142C PUSH1 0xE0 DUP4 ADD DUP8 PUSH2 0x12D0 JUMP JUMPDEST PUSH2 0x143A PUSH2 0x100 DUP4 ADD DUP7 PUSH2 0x12D0 JUMP JUMPDEST PUSH2 0x1448 PUSH2 0x120 DUP4 ADD DUP6 PUSH2 0x12D0 JUMP JUMPDEST PUSH2 0x1456 PUSH2 0x140 DUP4 ADD DUP5 PUSH2 0x11D3 JUMP JUMPDEST SWAP13 SWAP12 POP POP POP POP POP POP POP POP POP POP POP POP JUMP JUMPDEST PUSH0 DUP2 SWAP1 POP SWAP2 SWAP1 POP JUMP JUMPDEST PUSH2 0x1478 DUP2 PUSH2 0x1466 JUMP JUMPDEST DUP2 EQ PUSH2 0x1482 JUMPI PUSH0 DUP1 REVERT JUMPDEST POP JUMP JUMPDEST PUSH0 DUP2 CALLDATALOAD SWAP1 POP PUSH2 0x1493 DUP2 PUSH2 0x146F JUMP JUMPDEST SWAP3 SWAP2 POP POP JUMP JUMPDEST PUSH0 PUSH1 0x20 DUP3 DUP5 SUB SLT ISZERO PUSH2 0x14AE JUMPI PUSH2 0x14AD PUSH2 0x1140 JUMP JUMPDEST JUMPDEST PUSH0 PUSH2 0x14BB DUP5 DUP3 DUP6 ADD PUSH2 0x1485 JUMP JUMPDEST SWAP2 POP POP SWAP3 SWAP2 POP POP JUMP JUMPDEST PUSH2 0x14CD DUP2 PUSH2 0x1466 JUMP JUMPDEST DUP3 MSTORE POP POP JUMP JUMPDEST PUSH0 PUSH1 0x20 DUP3 ADD SWAP1 POP PUSH2 0x14E6 PUSH0 DUP4 ADD DUP5 PUSH2 0x14C4 JUMP JUMPDEST SWAP3 SWAP2 POP POP JUMP JUMPDEST PUSH2 0x14F5 DUP2 PUSH2 0x12FE JUMP JUMPDEST DUP2 EQ PUSH2 0x14FF JUMPI PUSH0 DUP1 REVERT JUMPDEST POP JUMP JUMPDEST PUSH0 DUP2 CALLDATALOAD SWAP1 POP PUSH2 0x1510 DUP2 PUSH2 0x14EC JUMP JUMPDEST SWAP3 SWAP2 POP POP JUMP JUMPDEST PUSH0 DUP1 PUSH1 0x40 DUP4 DUP6 SUB SLT ISZERO PUSH2 0x152C JUMPI PUSH2 0x152B PUSH2 0x1140 JUMP JUMPDEST JUMPDEST PUSH0 PUSH2 0x1539 DUP6 DUP3 DUP7 ADD PUSH2 0x1485 JUMP JUMPDEST SWAP3 POP POP PUSH1 0x20 PUSH2 0x154A DUP6 DUP3 DUP7 ADD PUSH2 0x1502 JUMP JUMPDEST SWAP2 POP POP SWAP3 POP SWAP3 SWAP1 POP JUMP JUMPDEST PUSH0 PUSH1 0x20 DUP3 ADD SWAP1 POP PUSH2 0x1567 PUSH0 DUP4 ADD DUP5 PUSH2 0x12D0 JUMP JUMPDEST SWAP3 SWAP2 POP POP JUMP JUMPDEST PUSH0 DUP1 REVERT JUMPDEST PUSH0 DUP1 REVERT JUMPDEST PUSH32 0x4E487B7100000000000000000000000000000000000000000000000000000000 PUSH0 MSTORE PUSH1 0x41 PUSH1 0x4 MSTORE PUSH1 0x24 PUSH0 REVERT JUMPDEST PUSH2 0x15AB DUP3 PUSH2 0x1360 JUMP JUMPDEST DUP2 ADD DUP2 DUP2 LT PUSH8 0xFFFFFFFFFFFFFFFF DUP3 GT OR ISZERO PUSH2 0x15CA JUMPI PUSH2 0x15C9 PUSH2 0x1575 JUMP JUMPDEST JUMPDEST DUP1 PUSH1 0x40 MSTORE POP POP POP JUMP JUMPDEST PUSH0 PUSH2 0x15DC PUSH2 0x1137 JUMP JUMPDEST SWAP1 POP PUSH2 0x15E8 DUP3 DUP3 PUSH2 0x15A2 JUMP JUMPDEST SWAP2 SWAP1 POP JUMP JUMPDEST PUSH0 PUSH8 0xFFFFFFFFFFFFFFFF DUP3 GT ISZERO PUSH2 0x1607 JUMPI PUSH2 0x1606 PUSH2 0x1575 JUMP JUMPDEST JUMPDEST PUSH2 0x1610 DUP3 PUSH2 0x1360 JUMP JUMPDEST SWAP1 POP PUSH1 0x20 DUP2 ADD SWAP1 POP SWAP2 SWAP1 POP JUMP JUMPDEST DUP3 DUP2 DUP4 CALLDATACOPY PUSH0 DUP4 DUP4 ADD MSTORE POP POP POP JUMP JUMPDEST PUSH0 PUSH2 0x163D PUSH2 0x1638 DUP5 PUSH2 0x15ED JUMP JUMPDEST PUSH2 0x15D3 JUMP JUMPDEST SWAP1 POP DUP3 DUP2 MSTORE PUSH1 0x20 DUP2 ADD DUP5 DUP5 DUP5 ADD GT ISZERO PUSH2 0x1659 JUMPI PUSH2 0x1658 PUSH2 0x1571 JUMP JUMPDEST JUMPDEST PUSH2 0x1664 DUP5 DUP3 DUP6 PUSH2 0x161D JUMP JUMPDEST POP SWAP4 SWAP3 POP POP POP JUMP JUMPDEST PUSH0 DUP3 PUSH1 0x1F DUP4 ADD SLT PUSH2 0x1680 JUMPI PUSH2 0x167F PUSH2 0x156D JUMP JUMPDEST JUMPDEST DUP2 CALLDATALOAD PUSH2 0x1690 DUP5 DUP3 PUSH1 0x20 DUP7 ADD PUSH2 0x162B JUMP JUMPDEST SWAP2 POP POP SWAP3 SWAP2 POP POP JUMP JUMPDEST PUSH0 DUP1 PUSH0 DUP1 PUSH0 DUP1 PUSH0 DUP1 PUSH2 0x100 DUP10 DUP12 SUB SLT ISZERO PUSH2 0x16B6 JUMPI PUSH2 0x16B5 PUSH2 0x1140 JUMP JUMPDEST JUMPDEST PUSH0 DUP10 ADD CALLDATALOAD PUSH8 0xFFFFFFFFFFFFFFFF DUP2 GT ISZERO PUSH2 0x16D3 JUMPI PUSH2 0x16D2 PUSH2 0x1144 JUMP JUMPDEST JUMPDEST PUSH2 0x16DF DUP12 DUP3 DUP13 ADD PUSH2 0x166C JUMP JUMPDEST SWAP9 POP POP PUSH1 0x20 DUP10 ADD CALLDATALOAD PUSH8 0xFFFFFFFFFFFFFFFF DUP2 GT ISZERO PUSH2 0x1700 JUMPI PUSH2 0x16FF PUSH2 0x1144 JUMP JUMPDEST JUMPDEST PUSH2 0x170C DUP12 DUP3 DUP13 ADD PUSH2 0x166C JUMP JUMPDEST SWAP8 POP POP PUSH1 0x40 PUSH2 0x171D DUP12 DUP3 DUP13 ADD PUSH2 0x121A JUMP JUMPDEST SWAP7 POP POP PUSH1 0x60 PUSH2 0x172E DUP12 DUP3 DUP13 ADD PUSH2 0x121A JUMP JUMPDEST SWAP6 POP POP PUSH1 0x80 DUP10 ADD CALLDATALOAD PUSH8 0xFFFFFFFFFFFFFFFF DUP2 GT ISZERO PUSH2 0x174F JUMPI PUSH2 0x174E PUSH2 0x1144 JUMP JUMPDEST JUMPDEST PUSH2 0x175B DUP12 DUP3 DUP13 ADD PUSH2 0x166C JUMP JUMPDEST SWAP5 POP POP PUSH1 0xA0 PUSH2 0x176C DUP12 DUP3 DUP13 ADD PUSH2 0x121A JUMP JUMPDEST SWAP4 POP POP PUSH1 0xC0 PUSH2 0x177D DUP12 DUP3 DUP13 ADD PUSH2 0x121A JUMP JUMPDEST SWAP3 POP POP PUSH1 0xE0 PUSH2 0x178E DUP12 DUP3 DUP13 ADD PUSH2 0x121A JUMP JUMPDEST SWAP2 POP POP SWAP3 SWAP6 SWAP9 POP SWAP3 SWAP6 SWAP9 SWAP1 SWAP4 SWAP7 POP JUMP JUMPDEST PUSH0 PUSH1 0x20 DUP3 ADD SWAP1 POP PUSH2 0x17B1 PUSH0 DUP4 ADD DUP5 PUSH2 0x130F JUMP JUMPDEST SWAP3 SWAP2 POP POP JUMP JUMPDEST PUSH0 PUSH1 0x20 DUP3 DUP5 SUB SLT ISZERO PUSH2 0x17CC JUMPI PUSH2 0x17CB PUSH2 0x1140 JUMP JUMPDEST JUMPDEST PUSH0 PUSH2 0x17D9 DUP5 DUP3 DUP6 ADD PUSH2 0x1502 JUMP JUMPDEST SWAP2 POP POP SWAP3 SWAP2 POP POP JUMP JUMPDEST PUSH32 0x4F6E6C79207468652061756469746F722063616E206365727469667920746865 PUSH0 DUP3 ADD MSTORE PUSH32 0x2061756469740000000000000000000000000000000000000000000000000000 PUSH1 0x20 DUP3 ADD MSTORE POP JUMP JUMPDEST PUSH0 PUSH2 0x183C PUSH1 0x26 DUP4 PUSH2 0x1328 JUMP JUMPDEST SWAP2 POP PUSH2 0x1847 DUP3 PUSH2 0x17E2 JUMP JUMPDEST PUSH1 0x40 DUP3 ADD SWAP1 POP SWAP2 SWAP1 POP JUMP JUMPDEST PUSH0 PUSH1 0x20 DUP3 ADD SWAP1 POP DUP2 DUP2 SUB PUSH0 DUP4 ADD MSTORE PUSH2 0x1869 DUP2 PUSH2 0x1830 JUMP JUMPDEST SWAP1 POP SWAP2 SWAP1 POP JUMP JUMPDEST PUSH32 0x4E487B7100000000000000000000000000000000000000000000000000000000 PUSH0 MSTORE PUSH1 0x22 PUSH1 0x4 MSTORE PUSH1 0x24 PUSH0 REVERT JUMPDEST PUSH0 PUSH1 0x2 DUP3 DIV SWAP1 POP PUSH1 0x1 DUP3 AND DUP1 PUSH2 0x18B4 JUMPI PUSH1 0x7F DUP3 AND SWAP2 POP JUMPDEST PUSH1 0x20 DUP3 LT DUP2 SUB PUSH2 0x18C7 JUMPI PUSH2 0x18C6 PUSH2 0x1870 JUMP JUMPDEST JUMPDEST POP SWAP2 SWAP1 POP JUMP JUMPDEST PUSH0 DUP2 SWAP1 POP DUP2 PUSH0 MSTORE PUSH1 0x20 PUSH0 KECCAK256 SWAP1 POP SWAP2 SWAP1 POP JUMP JUMPDEST PUSH0 PUSH1 0x20 PUSH1 0x1F DUP4 ADD DIV SWAP1 POP SWAP2 SWAP1 POP JUMP JUMPDEST PUSH0 DUP3 DUP3 SHL SWAP1 POP SWAP3 SWAP2 POP POP JUMP JUMPDEST PUSH0 PUSH1 0x8 DUP4 MUL PUSH2 0x1929 PUSH32 0xFFFFFFFFFFFFFFFFFFFFFFFFFFFFFFFFFFFFFFFFFFFFFFFFFFFFFFFFFFFFFFFF DUP3 PUSH2 0x18EE JUMP JUMPDEST PUSH2 0x1933 DUP7 DUP4 PUSH2 0x18EE JUMP JUMPDEST SWAP6 POP DUP1 NOT DUP5 AND SWAP4 POP DUP1 DUP7 AND DUP5 OR SWAP3 POP POP POP SWAP4 SWAP3 POP POP POP JUMP JUMPDEST PUSH0 DUP2 SWAP1 POP SWAP2 SWAP1 POP JUMP JUMPDEST PUSH0 PUSH2 0x196E PUSH2 0x1969 PUSH2 0x1964 DUP5 PUSH2 0x11FB JUMP JUMPDEST PUSH2 0x194B JUMP JUMPDEST PUSH2 0x11FB JUMP JUMPDEST SWAP1 POP SWAP2 SWAP1 POP JUMP JUMPDEST PUSH0 DUP2 SWAP1 POP SWAP2 SWAP1 POP JUMP JUMPDEST PUSH2 0x1987 DUP4 PUSH2 0x1954 JUMP JUMPDEST PUSH2 0x199B PUSH2 0x1993 DUP3 PUSH2 0x1975 JUMP JUMPDEST DUP5 DUP5 SLOAD PUSH2 0x18FA JUMP JUMPDEST DUP3 SSTORE POP POP POP POP JUMP JUMPDEST PUSH0 SWAP1 JUMP JUMPDEST PUSH2 0x19AF PUSH2 0x19A3 JUMP JUMPDEST PUSH2 0x19BA DUP2 DUP5 DUP5 PUSH2 0x197E JUMP JUMPDEST POP POP POP JUMP JUMPDEST JUMPDEST DUP2 DUP2 LT ISZERO PUSH2 0x19DD JUMPI PUSH2 0x19D2 PUSH0 DUP3 PUSH2 0x19A7 JUMP JUMPDEST PUSH1 0x1 DUP2 ADD SWAP1 POP PUSH2 0x19C0 JUMP JUMPDEST POP POP JUMP JUMPDEST PUSH1 0x1F DUP3 GT ISZERO PUSH2 0x1A22 JUMPI PUSH2 0x19F3 DUP2 PUSH2 0x18CD JUMP JUMPDEST PUSH2 0x19FC DUP5 PUSH2 0x18DF JUMP JUMPDEST DUP2 ADD PUSH1 0x20 DUP6 LT ISZERO PUSH2 0x1A0B JUMPI DUP2 SWAP1 POP JUMPDEST PUSH2 0x1A1F PUSH2 0x1A17 DUP6 PUSH2 0x18DF JUMP JUMPDEST DUP4 ADD DUP3 PUSH2 0x19BF JUMP JUMPDEST POP POP JUMPDEST POP POP POP JUMP JUMPDEST PUSH0 DUP3 DUP3 SHR SWAP1 POP SWAP3 SWAP2 POP POP JUMP JUMPDEST PUSH0 PUSH2 0x1A42 PUSH0 NOT DUP5 PUSH1 0x8 MUL PUSH2 0x1A27 JUMP JUMPDEST NOT DUP1 DUP4 AND SWAP2 POP POP SWAP3 SWAP2 POP POP JUMP JUMPDEST PUSH0 PUSH2 0x1A5A DUP4 DUP4 PUSH2 0x1A33 JUMP JUMPDEST SWAP2 POP DUP3 PUSH1 0x2 MUL DUP3 OR SWAP1 POP SWAP3 SWAP2 POP POP JUMP JUMPDEST PUSH2 0x1A73 DUP3 PUSH2 0x131E JUMP JUMPDEST PUSH8 0xFFFFFFFFFFFFFFFF DUP2 GT ISZERO PUSH2 0x1A8C JUMPI PUSH2 0x1A8B PUSH2 0x1575 JUMP JUMPDEST JUMPDEST PUSH2 0x1A96 DUP3 SLOAD PUSH2 0x189D JUMP JUMPDEST PUSH2 0x1AA1 DUP3 DUP3 DUP6 PUSH2 0x19E1 JUMP JUMPDEST PUSH0 PUSH1 0x20 SWAP1 POP PUSH1 0x1F DUP4 GT PUSH1 0x1 DUP2 EQ PUSH2 0x1AD2 JUMPI PUSH0 DUP5 ISZERO PUSH2 0x1AC0 JUMPI DUP3 DUP8 ADD MLOAD SWAP1 POP JUMPDEST PUSH2 0x1ACA DUP6 DUP3 PUSH2 0x1A4F JUMP JUMPDEST DUP7 SSTORE POP PUSH2 0x1B31 JUMP JUMPDEST PUSH1 0x1F NOT DUP5 AND PUSH2 0x1AE0 DUP7 PUSH2 0x18CD JUMP JUMPDEST PUSH0 JUMPDEST DUP3 DUP2 LT ISZERO PUSH2 0x1B07 JUMPI DUP5 DUP10 ADD MLOAD DUP3 SSTORE PUSH1 0x1 DUP3 ADD SWAP2 POP PUSH1 0x20 DUP6 ADD SWAP5 POP PUSH1 0x20 DUP2 ADD SWAP1 POP PUSH2 0x1AE2 JUMP JUMPDEST DUP7 DUP4 LT ISZERO PUSH2 0x1B24 JUMPI DUP5 DUP10 ADD MLOAD PUSH2 0x1B20 PUSH1 0x1F DUP10 AND DUP3 PUSH2 0x1A33 JUMP JUMPDEST DUP4 SSTORE POP JUMPDEST PUSH1 0x1 PUSH1 0x2 DUP9 MUL ADD DUP9 SSTORE POP POP POP JUMPDEST POP POP POP POP POP POP JUMP JUMPDEST PUSH32 0x4E487B7100000000000000000000000000000000000000000000000000000000 PUSH0 MSTORE PUSH1 0x11 PUSH1 0x4 MSTORE PUSH1 0x24 PUSH0 REVERT JUMPDEST PUSH0 PUSH2 0x1B70 DUP3 PUSH2 0x11FB JUMP JUMPDEST SWAP2 POP PUSH32 0xFFFFFFFFFFFFFFFFFFFFFFFFFFFFFFFFFFFFFFFFFFFFFFFFFFFFFFFFFFFFFFFF DUP3 SUB PUSH2 0x1BA2 JUMPI PUSH2 0x1BA1 PUSH2 0x1B39 JUMP JUMPDEST JUMPDEST PUSH1 0x1 DUP3 ADD SWAP1 POP SWAP2 SWAP1 POP JUMP JUMPDEST PUSH0 PUSH1 0x40 DUP3 ADD SWAP1 POP PUSH2 0x1BC0 PUSH0 DUP4 ADD DUP6 PUSH2 0x130F JUMP JUMPDEST PUSH2 0x1BCD PUSH1 0x20 DUP4 ADD DUP5 PUSH2 0x14C4 JUMP JUMPDEST SWAP4 SWAP3 POP POP POP JUMP INVALID LOG2 PUSH5 0x6970667358 0x22 SLT KECCAK256 0xC2 CALLDATACOPY EXP 0x2D 0xC9 0xF9 PUSH23 0x31A3C2EA17C5DD3E9B099C6BA223BB19936F5A62407D3E SWAP7 0xDC PUSH5 0x736F6C6343 STOP ADDMOD XOR STOP CALLER "
				},
				"gasEstimates": {
					"creation": {
						"codeDepositCost": "1435600",
						"executionCost": "infinite",
						"totalCost": "infinite"
					},
					"external": {
						"ADMIN_ROLE()": "370",
						"AUDITOR_ROLE()": "436",
						"DEFAULT_ADMIN_ROLE()": "352",
						"addAuditor(address)": "infinite",
						"audits(uint256)": "infinite",
						"certifyAudit(uint256,uint256,uint256,uint256,uint256)": "infinite",
						"getAudit(uint256)": "infinite",
						"getRoleAdmin(bytes32)": "infinite",
						"grantRole(bytes32,address)": "infinite",
						"hasRole(bytes32,address)": "3211",
						"nextId()": "2492",
						"owner()": "2582",
						"recordAudit(string,string,uint256,uint256,string,uint256,uint256,uint256)": "infinite",
						"renounceOwnership()": "infinite",
						"renounceRole(bytes32,address)": "infinite",
						"revokeRole(bytes32,address)": "infinite",
						"supportsInterface(bytes4)": "741",
						"transferOwnership(address)": "infinite"
					}
				},
				"methodIdentifiers": {
					"ADMIN_ROLE()": "75b238fc",
					"AUDITOR_ROLE()": "6e1d616e",
					"DEFAULT_ADMIN_ROLE()": "a217fddf",
					"addAuditor(address)": "e429cef1",
					"audits(uint256)": "b60e73db",
					"certifyAudit(uint256,uint256,uint256,uint256,uint256)": "179c06fa",
					"getAudit(uint256)": "17bf37a3",
					"getRoleAdmin(bytes32)": "248a9ca3",
					"grantRole(bytes32,address)": "2f2ff15d",
					"hasRole(bytes32,address)": "91d14854",
					"nextId()": "61b8ce8c",
					"owner()": "8da5cb5b",
					"recordAudit(string,string,uint256,uint256,string,uint256,uint256,uint256)": "666fb488",
					"renounceOwnership()": "715018a6",
					"renounceRole(bytes32,address)": "36568abe",
					"revokeRole(bytes32,address)": "d547741f",
					"supportsInterface(bytes4)": "01ffc9a7",
					"transferOwnership(address)": "f2fde38b"
				}
			},
			"storageLayout": {
				"storage": [
					{
						"astId": 26,
						"contract": "contracts/AuditRegistry.sol:AuditRegistry",
						"label": "_roles",
						"offset": 0,
						"slot": "0",
						"type": "t_mapping(t_bytes32,t_struct(RoleData)21_storage)"
					},
					{
						"astId": 387,
						"contract": "contracts/AuditRegistry.sol:AuditRegistry",
						"label": "_owner",
						"offset": 0,
						"slot": "1",
						"type": "t_address"
					},
					{
						"astId": 638,
						"contract": "contracts/AuditRegistry.sol:AuditRegistry",
						"label": "audits",
						"offset": 0,
						"slot": "2",
						"type": "t_mapping(t_uint256,t_struct(Audit)633_storage)"
					},
					{
						"astId": 641,
						"contract": "contracts/AuditRegistry.sol:AuditRegistry",
						"label": "nextId",
						"offset": 0,
						"slot": "3",
						"type": "t_uint256"
					}
				],
				"types": {
					"t_address": {
						"encoding": "inplace",
						"label": "address",
						"numberOfBytes": "20"
					},
					"t_bool": {
						"encoding": "inplace",
						"label": "bool",
						"numberOfBytes": "1"
					},
					"t_bytes32": {
						"encoding": "inplace",
						"label": "bytes32",
						"numberOfBytes": "32"
					},
					"t_mapping(t_address,t_bool)": {
						"encoding": "mapping",
						"key": "t_address",
						"label": "mapping(address => bool)",
						"numberOfBytes": "32",
						"value": "t_bool"
					},
					"t_mapping(t_bytes32,t_struct(RoleData)21_storage)": {
						"encoding": "mapping",
						"key": "t_bytes32",
						"label": "mapping(bytes32 => struct AccessControl.RoleData)",
						"numberOfBytes": "32",
						"value": "t_struct(RoleData)21_storage"
					},
					"t_mapping(t_uint256,t_struct(Audit)633_storage)": {
						"encoding": "mapping",
						"key": "t_uint256",
						"label": "mapping(uint256 => struct AuditRegistry.Audit)",
						"numberOfBytes": "32",
						"value": "t_struct(Audit)633_storage"
					},
					"t_string_storage": {
						"encoding": "bytes",
						"label": "string",
						"numberOfBytes": "32"
					},
					"t_struct(Audit)633_storage": {
						"encoding": "inplace",
						"label": "struct AuditRegistry.Audit",
						"members": [
							{
								"astId": 612,
								"contract": "contracts/AuditRegistry.sol:AuditRegistry",
								"label": "id",
								"offset": 0,
								"slot": "0",
								"type": "t_uint256"
							},
							{
								"astId": 614,
								"contract": "contracts/AuditRegistry.sol:AuditRegistry",
								"label": "auditor",
								"offset": 0,
								"slot": "1",
								"type": "t_address"
							},
							{
								"astId": 616,
								"contract": "contracts/AuditRegistry.sol:AuditRegistry",
								"label": "company",
								"offset": 0,
								"slot": "2",
								"type": "t_string_storage"
							},
							{
								"astId": 618,
								"contract": "contracts/AuditRegistry.sol:AuditRegistry",
								"label": "project",
								"offset": 0,
								"slot": "3",
								"type": "t_string_storage"
							},
							{
								"astId": 620,
								"contract": "contracts/AuditRegistry.sol:AuditRegistry",
								"label": "startDate",
								"offset": 0,
								"slot": "4",
								"type": "t_uint256"
							},
							{
								"astId": 622,
								"contract": "contracts/AuditRegistry.sol:AuditRegistry",
								"label": "endDate",
								"offset": 0,
								"slot": "5",
								"type": "t_uint256"
							},
							{
								"astId": 624,
								"contract": "contracts/AuditRegistry.sol:AuditRegistry",
								"label": "githubCommit",
								"offset": 0,
								"slot": "6",
								"type": "t_string_storage"
							},
							{
								"astId": 626,
								"contract": "contracts/AuditRegistry.sol:AuditRegistry",
								"label": "highSeverity",
								"offset": 0,
								"slot": "7",
								"type": "t_uint256"
							},
							{
								"astId": 628,
								"contract": "contracts/AuditRegistry.sol:AuditRegistry",
								"label": "mediumSeverity",
								"offset": 0,
								"slot": "8",
								"type": "t_uint256"
							},
							{
								"astId": 630,
								"contract": "contracts/AuditRegistry.sol:AuditRegistry",
								"label": "lowSeverity",
								"offset": 0,
								"slot": "9",
								"type": "t_uint256"
							},
							{
								"astId": 632,
								"contract": "contracts/AuditRegistry.sol:AuditRegistry",
								"label": "certified",
								"offset": 0,
								"slot": "10",
								"type": "t_bool"
							}
						],
						"numberOfBytes": "352"
					},
					"t_struct(RoleData)21_storage": {
						"encoding": "inplace",
						"label": "struct AccessControl.RoleData",
						"members": [
							{
								"astId": 18,
								"contract": "contracts/AuditRegistry.sol:AuditRegistry",
								"label": "hasRole",
								"offset": 0,
								"slot": "0",
								"type": "t_mapping(t_address,t_bool)"
							},
							{
								"astId": 20,
								"contract": "contracts/AuditRegistry.sol:AuditRegistry",
								"label": "adminRole",
								"offset": 0,
								"slot": "1",
								"type": "t_bytes32"
							}
						],
						"numberOfBytes": "64"
					},
					"t_uint256": {
						"encoding": "inplace",
						"label": "uint256",
						"numberOfBytes": "32"
					}
				}
			},
			"userdoc": {
				"kind": "user",
				"methods": {},
				"version": 1
			}
		}
	}
}