{
  "_format": "hh-sol-artifact-1",
  "contractName": "AuditRegistry",
  "sourceName": "contracts/AuditRegistry.sol",
  "abi": [
    {
      "inputs": [],
      "stateMutability": "nonpayable",
      "type": "constructor"
    },
    {
      "inputs": [],
      "name": "AccessControlBadConfirmation",
      "type": "error"
    },
    {
      "inputs": [
        {
          "internalType": "address",
          "name": "account",
          "type": "address"
        },
        {
          "internalType": "bytes32",
          "name": "neededRole",
          "type": "bytes32"
        }
      ],
      "name": "AccessControlUnauthorizedAccount",
      "type": "error"
    },
    {
      "anonymous": false,
      "inputs": [
        {
          "indexed": true,
          "internalType": "bytes32",
          "name": "role",
          "type": "bytes32"
        },
        {
          "indexed": true,
          "internalType": "bytes32",
          "name": "previousAdminRole",
          "type": "bytes32"
        },
        {
          "indexed": true,
          "internalType": "bytes32",
          "name": "newAdminRole",
          "type": "bytes32"
        }
      ],
      "name": "RoleAdminChanged",
      "type": "event"
    },
    {
      "anonymous": false,
      "inputs": [
        {
          "indexed": true,
          "internalType": "bytes32",
          "name": "role",
          "type": "bytes32"
        },
        {
          "indexed": true,
          "internalType": "address",
          "name": "account",
          "type": "address"
        },
        {
          "indexed": true,
          "internalType": "address",
          "name": "sender",
          "type": "address"
        }
      ],
      "name": "RoleGranted",
      "type": "event"
    },
    {
      "anonymous": false,
      "inputs": [
        {
          "indexed": true,
          "internalType": "bytes32",
          "name": "role",
          "type": "bytes32"
        },
        {
          "indexed": true,
          "internalType": "address",
          "name": "account",
          "type": "address"
        },
        {
          "indexed": true,
          "internalType": "address",
          "name": "sender",
          "type": "address"
        }
      ],
      "name": "RoleRevoked",
      "type": "event"
    },
    {
      "inputs": [],
      "name": "ADMIN_ROLE",
      "outputs": [
        {
          "internalType": "bytes32",
          "name": "",
          "type": "bytes32"
        }
      ],
      "stateMutability": "view",
      "type": "function"
    },
    {
      "inputs": [],
      "name": "AUDITOR_ROLE",
      "outputs": [
        {
          "internalType": "bytes32",
          "name": "",
          "type": "bytes32"
        }
      ],
      "stateMutability": "view",
      "type": "function"
    },
    {
      "inputs": [],
      "name": "DEFAULT_ADMIN_ROLE",
      "outputs": [
        {
          "internalType": "bytes32",
          "name": "",
          "type": "bytes32"
        }
      ],
      "stateMutability": "view",
      "type": "function"
    },
    {
      "inputs": [
        {
          "internalType": "address",
          "name": "auditor",
          "type": "address"
        }
      ],
      "name": "addAuditor",
      "outputs": [],
      "stateMutability": "nonpayable",
      "type": "function"
    },
    {
      "inputs": [
        {
          "internalType": "uint256",
          "name": "",
          "type": "uint256"
        }
      ],
      "name": "audits",
      "outputs": [
        {
          "internalType": "uint256",
          "name": "id",
          "type": "uint256"
        },
        {
          "internalType": "address",
          "name": "auditor",
          "type": "address"
        },
        {
          "internalType": "string",
          "name": "company",
          "type": "string"
        },
        {
          "internalType": "string",
          "name": "project",
          "type": "string"
        },
        {
          "internalType": "uint256",
          "name": "startDate",
          "type": "uint256"
        },
        {
          "internalType": "uint256",
          "name": "endDate",
          "type": "uint256"
        },
        {
          "internalType": "uint256",
          "name": "vulnerabilitiesFound",
          "type": "uint256"
        },
        {
          "internalType": "string",
          "name": "githubCommit",
          "type": "string"
        },
        {
          "internalType": "uint256",
          "name": "highSeverity",
          "type": "uint256"
        },
        {
          "internalType": "uint256",
          "name": "mediumSeverity",
          "type": "uint256"
        },
        {
          "internalType": "uint256",
          "name": "lowSeverity",
          "type": "uint256"
        },
        {
          "internalType": "bool",
          "name": "certified",
          "type": "bool"
        }
      ],
      "stateMutability": "view",
      "type": "function"
    },
    {
      "inputs": [
        {
          "internalType": "uint256",
          "name": "id",
          "type": "uint256"
        }
      ],
      "name": "certifyAudit",
      "outputs": [],
      "stateMutability": "nonpayable",
      "type": "function"
    },
    {
      "inputs": [
        {
          "internalType": "bytes32",
          "name": "role",
          "type": "bytes32"
        }
      ],
      "name": "getRoleAdmin",
      "outputs": [
        {
          "internalType": "bytes32",
          "name": "",
          "type": "bytes32"
        }
      ],
      "stateMutability": "view",
      "type": "function"
    },
    {
      "inputs": [
        {
          "internalType": "bytes32",
          "name": "role",
          "type": "bytes32"
        },
        {
          "internalType": "address",
          "name": "account",
          "type": "address"
        }
      ],
      "name": "grantRole",
      "outputs": [],
      "stateMutability": "nonpayable",
      "type": "function"
    },
    {
      "inputs": [
        {
          "internalType": "bytes32",
          "name": "role",
          "type": "bytes32"
        },
        {
          "internalType": "address",
          "name": "account",
          "type": "address"
        }
      ],
      "name": "hasRole",
      "outputs": [
        {
          "internalType": "bool",
          "name": "",
          "type": "bool"
        }
      ],
      "stateMutability": "view",
      "type": "function"
    },
    {
      "inputs": [],
      "name": "nextId",
      "outputs": [
        {
          "internalType": "uint256",
          "name": "",
          "type": "uint256"
        }
      ],
      "stateMutability": "view",
      "type": "function"
    },
    {
      "inputs": [
        {
          "internalType": "string",
          "name": "company",
          "type": "string"
        },
        {
          "internalType": "string",
          "name": "project",
          "type": "string"
        },
        {
          "internalType": "uint256",
          "name": "startDate",
          "type": "uint256"
        },
        {
          "internalType": "uint256",
          "name": "endDate",
          "type": "uint256"
        },
        {
          "internalType": "uint256",
          "name": "vulnerabilitiesFound",
          "type": "uint256"
        },
        {
          "internalType": "string",
          "name": "githubCommit",
          "type": "string"
        },
        {
          "internalType": "uint256",
          "name": "highSeverity",
          "type": "uint256"
        },
        {
          "internalType": "uint256",
          "name": "mediumSeverity",
          "type": "uint256"
        },
        {
          "internalType": "uint256",
          "name": "lowSeverity",
          "type": "uint256"
        }
      ],
      "name": "recordAudit",
      "outputs": [],
      "stateMutability": "nonpayable",
      "type": "function"
    },
    {
      "inputs": [
        {
          "internalType": "bytes32",
          "name": "role",
          "type": "bytes32"
        },
        {
          "internalType": "address",
          "name": "callerConfirmation",
          "type": "address"
        }
      ],
      "name": "renounceRole",
      "outputs": [],
      "stateMutability": "nonpayable",
      "type": "function"
    },
    {
      "inputs": [
        {
          "internalType": "bytes32",
          "name": "role",
          "type": "bytes32"
        },
        {
          "internalType": "address",
          "name": "account",
          "type": "address"
        }
      ],
      "name": "revokeRole",
      "outputs": [],
      "stateMutability": "nonpayable",
      "type": "function"
    },
    {
      "inputs": [
        {
          "internalType": "bytes4",
          "name": "interfaceId",
          "type": "bytes4"
        }
      ],
      "name": "supportsInterface",
      "outputs": [
        {
          "internalType": "bool",
          "name": "",
          "type": "bool"
        }
      ],
      "stateMutability": "view",
      "type": "function"
    }
  ],
  "bytecode": "0x608060405260016002553480156200001657600080fd5b50620000497fa49807205ce4d355092ef5a8a18f56e8913cf4a201fbe287825b095693c21775336200004f60201b60201c565b6200032a565b62000060826200008960201b60201c565b6200007181620000a860201b60201c565b620000838383620000cc60201b60201c565b50505050565b6000806000838152602001908152602001600020600101549050919050565b620000c981620000bd620001cf60201b60201c565b620001d760201b60201c565b50565b6000620000e083836200023360201b60201c565b620001c457600160008085815260200190815260200160002060000160008473ffffffffffffffffffffffffffffffffffffffff1673ffffffffffffffffffffffffffffffffffffffff16815260200190815260200160002060006101000a81548160ff02191690831515021790555062000160620001cf60201b60201c565b73ffffffffffffffffffffffffffffffffffffffff168273ffffffffffffffffffffffffffffffffffffffff16847f2f8788117e7eff1d82e926ec794901d17c78024a50270940304540a733656f0d60405160405180910390a460019050620001c9565b600090505b92915050565b600033905090565b620001e982826200023360201b60201c565b6200022f5780826040517fe2517d3f00000000000000000000000000000000000000000000000000000000815260040162000226929190620002fd565b60405180910390fd5b5050565b600080600084815260200190815260200160002060000160008373ffffffffffffffffffffffffffffffffffffffff1673ffffffffffffffffffffffffffffffffffffffff16815260200190815260200160002060009054906101000a900460ff16905092915050565b600073ffffffffffffffffffffffffffffffffffffffff82169050919050565b6000620002ca826200029d565b9050919050565b620002dc81620002bd565b82525050565b6000819050919050565b620002f781620002e2565b82525050565b6000604082019050620003146000830185620002d1565b620003236020830184620002ec565b9392505050565b61171f806200033a6000396000f3fe608060405234801561001057600080fd5b50600436106100ea5760003560e01c80636e1d616e1161008c578063a217fddf11610066578063a217fddf14610249578063b60e73db14610267578063d547741f146102a2578063e429cef1146102be576100ea565b80636e1d616e146101dd57806375b238fc146101fb57806391d1485414610219576100ea565b80632f2ff15d116100c85780632f2ff15d1461016b578063328f7ebe1461018757806336568abe146101a357806361b8ce8c146101bf576100ea565b806301ffc9a7146100ef578063248a9ca31461011f57806327bda1971461014f575b600080fd5b61010960048036038101906101049190610cd0565b6102da565b6040516101169190610d18565b60405180910390f35b61013960048036038101906101349190610d69565b610354565b6040516101469190610da5565b60405180910390f35b61016960048036038101906101649190610df6565b610373565b005b61018560048036038101906101809190610e81565b610414565b005b6101a1600480360381019061019c9190611007565b610436565b005b6101bd60048036038101906101b89190610e81565b6105fc565b005b6101c7610677565b6040516101d49190611134565b60405180910390f35b6101e561067d565b6040516101f29190610da5565b60405180910390f35b6102036106a1565b6040516102109190610da5565b60405180910390f35b610233600480360381019061022e9190610e81565b6106c5565b6040516102409190610d18565b60405180910390f35b61025161072f565b60405161025e9190610da5565b60405180910390f35b610281600480360381019061027c9190610df6565b610736565b6040516102999c9b9a999897969594939291906111dd565b60405180910390f35b6102bc60048036038101906102b79190610e81565b61095b565b005b6102d860048036038101906102d391906112ac565b61097d565b005b60007f7965db0b000000000000000000000000000000000000000000000000000000007bffffffffffffffffffffffffffffffffffffffffffffffffffffffff1916827bffffffffffffffffffffffffffffffffffffffffffffffffffffffff1916148061034d575061034c826109aa565b5b9050919050565b6000806000838152602001908152602001600020600101549050919050565b61039d7f59a1c48e5837ad7a7f3dcedcbe129bf3249ec4fbf651fd4f5e2600ead39fe2f5336106c5565b6103dc576040517f08c379a00000000000000000000000000000000000000000000000000000000081526004016103d39061134b565b60405180910390fd5b6000600160008381526020019081526020016000209050600181600b0160006101000a81548160ff0219169083151502179055505050565b61041d82610354565b61042681610a14565b6104308383610a28565b50505050565b7f59a1c48e5837ad7a7f3dcedcbe129bf3249ec4fbf651fd4f5e2600ead39fe2f561046081610a14565b60405180610180016040528060025481526020013373ffffffffffffffffffffffffffffffffffffffff1681526020018b81526020018a8152602001898152602001888152602001878152602001868152602001858152602001848152602001838152602001600015158152506001600060025481526020019081526020016000206000820151816000015560208201518160010160006101000a81548173ffffffffffffffffffffffffffffffffffffffff021916908373ffffffffffffffffffffffffffffffffffffffff16021790555060408201518160020190816105489190611577565b50606082015181600301908161055e9190611577565b506080820151816004015560a0820151816005015560c0820151816006015560e08201518160070190816105929190611577565b506101008201518160080155610120820151816009015561014082015181600a015561016082015181600b0160006101000a81548160ff021916908315150217905550905050600260008154809291906105eb90611678565b919050555050505050505050505050565b610604610b19565b73ffffffffffffffffffffffffffffffffffffffff168173ffffffffffffffffffffffffffffffffffffffff1614610668576040517f6697b23200000000000000000000000000000000000000000000000000000000815260040160405180910390fd5b6106728282610b21565b505050565b60025481565b7f59a1c48e5837ad7a7f3dcedcbe129bf3249ec4fbf651fd4f5e2600ead39fe2f581565b7fa49807205ce4d355092ef5a8a18f56e8913cf4a201fbe287825b095693c2177581565b600080600084815260200190815260200160002060000160008373ffffffffffffffffffffffffffffffffffffffff1673ffffffffffffffffffffffffffffffffffffffff16815260200190815260200160002060009054906101000a900460ff16905092915050565b6000801b81565b60016020528060005260406000206000915090508060000154908060010160009054906101000a900473ffffffffffffffffffffffffffffffffffffffff16908060020180546107859061139a565b80601f01602080910402602001604051908101604052809291908181526020018280546107b19061139a565b80156107fe5780601f106107d3576101008083540402835291602001916107fe565b820191906000526020600020905b8154815290600101906020018083116107e157829003601f168201915b5050505050908060030180546108139061139a565b80601f016020809104026020016040519081016040528092919081815260200182805461083f9061139a565b801561088c5780601f106108615761010080835404028352916020019161088c565b820191906000526020600020905b81548152906001019060200180831161086f57829003601f168201915b5050505050908060040154908060050154908060060154908060070180546108b39061139a565b80601f01602080910402602001604051908101604052809291908181526020018280546108df9061139a565b801561092c5780601f106109015761010080835404028352916020019161092c565b820191906000526020600020905b81548152906001019060200180831161090f57829003601f168201915b50505050509080600801549080600901549080600a01549080600b0160009054906101000a900460ff1690508c565b61096482610354565b61096d81610a14565b6109778383610b21565b50505050565b6109a77f59a1c48e5837ad7a7f3dcedcbe129bf3249ec4fbf651fd4f5e2600ead39fe2f582610414565b50565b60007f01ffc9a7000000000000000000000000000000000000000000000000000000007bffffffffffffffffffffffffffffffffffffffffffffffffffffffff1916827bffffffffffffffffffffffffffffffffffffffffffffffffffffffff1916149050919050565b610a2581610a20610b19565b610c13565b50565b6000610a3483836106c5565b610b0e57600160008085815260200190815260200160002060000160008473ffffffffffffffffffffffffffffffffffffffff1673ffffffffffffffffffffffffffffffffffffffff16815260200190815260200160002060006101000a81548160ff021916908315150217905550610aab610b19565b73ffffffffffffffffffffffffffffffffffffffff168273ffffffffffffffffffffffffffffffffffffffff16847f2f8788117e7eff1d82e926ec794901d17c78024a50270940304540a733656f0d60405160405180910390a460019050610b13565b600090505b92915050565b600033905090565b6000610b2d83836106c5565b15610c0857600080600085815260200190815260200160002060000160008473ffffffffffffffffffffffffffffffffffffffff1673ffffffffffffffffffffffffffffffffffffffff16815260200190815260200160002060006101000a81548160ff021916908315150217905550610ba5610b19565b73ffffffffffffffffffffffffffffffffffffffff168273ffffffffffffffffffffffffffffffffffffffff16847ff6391f5c32d9c69d2a47ea670b442974b53935d1edc7fd64eb21e047a839171b60405160405180910390a460019050610c0d565b600090505b92915050565b610c1d82826106c5565b610c605780826040517fe2517d3f000000000000000000000000000000000000000000000000000000008152600401610c579291906116c0565b60405180910390fd5b5050565b6000604051905090565b600080fd5b600080fd5b60007fffffffff0000000000000000000000000000000000000000000000000000000082169050919050565b610cad81610c78565b8114610cb857600080fd5b50565b600081359050610cca81610ca4565b92915050565b600060208284031215610ce657610ce5610c6e565b5b6000610cf484828501610cbb565b91505092915050565b60008115159050919050565b610d1281610cfd565b82525050565b6000602082019050610d2d6000830184610d09565b92915050565b6000819050919050565b610d4681610d33565b8114610d5157600080fd5b50565b600081359050610d6381610d3d565b92915050565b600060208284031215610d7f57610d7e610c6e565b5b6000610d8d84828501610d54565b91505092915050565b610d9f81610d33565b82525050565b6000602082019050610dba6000830184610d96565b92915050565b6000819050919050565b610dd381610dc0565b8114610dde57600080fd5b50565b600081359050610df081610dca565b92915050565b600060208284031215610e0c57610e0b610c6e565b5b6000610e1a84828501610de1565b91505092915050565b600073ffffffffffffffffffffffffffffffffffffffff82169050919050565b6000610e4e82610e23565b9050919050565b610e5e81610e43565b8114610e6957600080fd5b50565b600081359050610e7b81610e55565b92915050565b60008060408385031215610e9857610e97610c6e565b5b6000610ea685828601610d54565b9250506020610eb785828601610e6c565b9150509250929050565b600080fd5b600080fd5b6000601f19601f8301169050919050565b7f4e487b7100000000000000000000000000000000000000000000000000000000600052604160045260246000fd5b610f1482610ecb565b810181811067ffffffffffffffff82111715610f3357610f32610edc565b5b80604052505050565b6000610f46610c64565b9050610f528282610f0b565b919050565b600067ffffffffffffffff821115610f7257610f71610edc565b5b610f7b82610ecb565b9050602081019050919050565b82818337600083830152505050565b6000610faa610fa584610f57565b610f3c565b905082815260208101848484011115610fc657610fc5610ec6565b5b610fd1848285610f88565b509392505050565b600082601f830112610fee57610fed610ec1565b5b8135610ffe848260208601610f97565b91505092915050565b60008060008060008060008060006101208a8c03121561102a57611029610c6e565b5b60008a013567ffffffffffffffff81111561104857611047610c73565b5b6110548c828d01610fd9565b99505060208a013567ffffffffffffffff81111561107557611074610c73565b5b6110818c828d01610fd9565b98505060406110928c828d01610de1565b97505060606110a38c828d01610de1565b96505060806110b48c828d01610de1565b95505060a08a013567ffffffffffffffff8111156110d5576110d4610c73565b5b6110e18c828d01610fd9565b94505060c06110f28c828d01610de1565b93505060e06111038c828d01610de1565b9250506101006111158c828d01610de1565b9150509295985092959850929598565b61112e81610dc0565b82525050565b60006020820190506111496000830184611125565b92915050565b61115881610e43565b82525050565b600081519050919050565b600082825260208201905092915050565b60005b8381101561119857808201518184015260208101905061117d565b60008484015250505050565b60006111af8261115e565b6111b98185611169565b93506111c981856020860161117a565b6111d281610ecb565b840191505092915050565b6000610180820190506111f3600083018f611125565b611200602083018e61114f565b8181036040830152611212818d6111a4565b90508181036060830152611226818c6111a4565b9050611235608083018b611125565b61124260a083018a611125565b61124f60c0830189611125565b81810360e083015261126181886111a4565b9050611271610100830187611125565b61127f610120830186611125565b61128d610140830185611125565b61129b610160830184610d09565b9d9c50505050505050505050505050565b6000602082840312156112c2576112c1610c6e565b5b60006112d084828501610e6c565b91505092915050565b7f4f6e6c79207468652061756469746f722063616e20636572746966792074686560008201527f2061756469740000000000000000000000000000000000000000000000000000602082015250565b6000611335602683611169565b9150611340826112d9565b604082019050919050565b6000602082019050818103600083015261136481611328565b9050919050565b7f4e487b7100000000000000000000000000000000000000000000000000000000600052602260045260246000fd5b600060028204905060018216806113b257607f821691505b6020821081036113c5576113c461136b565b5b50919050565b60008190508160005260206000209050919050565b60006020601f8301049050919050565b600082821b905092915050565b60006008830261142d7fffffffffffffffffffffffffffffffffffffffffffffffffffffffffffffffff826113f0565b61143786836113f0565b95508019841693508086168417925050509392505050565b6000819050919050565b600061147461146f61146a84610dc0565b61144f565b610dc0565b9050919050565b6000819050919050565b61148e83611459565b6114a261149a8261147b565b8484546113fd565b825550505050565b600090565b6114b76114aa565b6114c2818484611485565b505050565b5b818110156114e6576114db6000826114af565b6001810190506114c8565b5050565b601f82111561152b576114fc816113cb565b611505846113e0565b81016020851015611514578190505b611528611520856113e0565b8301826114c7565b50505b505050565b600082821c905092915050565b600061154e60001984600802611530565b1980831691505092915050565b6000611567838361153d565b9150826002028217905092915050565b6115808261115e565b67ffffffffffffffff81111561159957611598610edc565b5b6115a3825461139a565b6115ae8282856114ea565b600060209050601f8311600181146115e157600084156115cf578287015190505b6115d9858261155b565b865550611641565b601f1984166115ef866113cb565b60005b82811015611617578489015182556001820191506020850194506020810190506115f2565b868310156116345784890151611630601f89168261153d565b8355505b6001600288020188555050505b505050505050565b7f4e487b7100000000000000000000000000000000000000000000000000000000600052601160045260246000fd5b600061168382610dc0565b91507fffffffffffffffffffffffffffffffffffffffffffffffffffffffffffffffff82036116b5576116b4611649565b5b600182019050919050565b60006040820190506116d5600083018561114f565b6116e26020830184610d96565b939250505056fea2646970667358221220dac06b55fcf8ba93c686ce93d773fc533b1c5b5ef2279129c1822c518fff211164736f6c63430008180033",
  "linkReferences": {},
  "deployedLinkReferences": {}
}